{
  "contractName": "BancorFormula",
  "abi": [
    {
      "inputs": [],
      "name": "init",
      "outputs": [],
      "stateMutability": "nonpayable",
      "type": "function"
    },
    {
      "inputs": [
        {
          "internalType": "uint256",
          "name": "_supply",
          "type": "uint256"
        },
        {
          "internalType": "uint256",
          "name": "_reserveBalance",
          "type": "uint256"
        },
        {
          "internalType": "uint32",
          "name": "_reserveWeight",
          "type": "uint32"
        },
        {
          "internalType": "uint256",
          "name": "_amount",
          "type": "uint256"
        }
      ],
      "name": "purchaseTargetAmount",
      "outputs": [
        {
          "internalType": "uint256",
          "name": "",
          "type": "uint256"
        }
      ],
      "stateMutability": "view",
      "type": "function"
    },
    {
      "inputs": [
        {
          "internalType": "uint256",
          "name": "_supply",
          "type": "uint256"
        },
        {
          "internalType": "uint256",
          "name": "_reserveBalance",
          "type": "uint256"
        },
        {
          "internalType": "uint32",
          "name": "_reserveWeight",
          "type": "uint32"
        },
        {
          "internalType": "uint256",
          "name": "_amount",
          "type": "uint256"
        }
      ],
      "name": "saleTargetAmount",
      "outputs": [
        {
          "internalType": "uint256",
          "name": "",
          "type": "uint256"
        }
      ],
      "stateMutability": "view",
      "type": "function"
    }
  ],
  "bytecode": "0x608060405234801561001057600080fd5b506122ac806100206000396000f3fe608060405234801561001057600080fd5b50600436106100415760003560e01c806376cf0b5614610046578063e1c7392a1461006b578063f3250fe214610075575b600080fd5b6100596100543660046120ef565b610088565b60405190815260200160405180910390f35b61007361027a565b005b6100596100833660046120ef565b610a51565b60008085116100d35760405162461bcd60e51b81526020600482015260126024820152714552525f494e56414c49445f535550504c5960701b60448201526064015b60405180910390fd5b600084116101235760405162461bcd60e51b815260206004820152601b60248201527f4552525f494e56414c49445f524553455256455f42414c414e4345000000000060448201526064016100ca565b60008363ffffffff161180156101425750620f424063ffffffff841611155b61018e5760405162461bcd60e51b815260206004820152601a60248201527f4552525f494e56414c49445f524553455256455f57454947485400000000000060448201526064016100ca565b848211156101d35760405162461bcd60e51b815260206004820152601260248201527111549497d253959053125117d05353d5539560721b60448201526064016100ca565b816101e057506000610272565b848214156101ef575082610272565b63ffffffff8316620f4240141561021c578461020b8584610bca565b6102159190612174565b9050610272565b6000808061022a85896121c9565b905061023b8882620f424089610bdd565b9093509150600061024c8885610bca565b905060ff831688901b8461026082846121c9565b61026a9190612174565b955050505050505b949350505050565b610a4f701c35fedd14ffffffffffffffffffffffff602055701b0ce43b323fffffffffffffffffffffff6021557019f0028ec1ffffffffffffffffffffffff6022557018ded91f0e7fffffffffffffffffffffff6023557017d8ec7f0417ffffffffffffffffffffff6024557016ddc6556cdbffffffffffffffffffffff6025557015ecf52776a1ffffffffffffffffffffff6026557015060c256cb2ffffffffffffffffffffff602755701428a2f98d72ffffffffffffffffffffff6028557013545598e5c23fffffffffffffffffffff602955701288c4161ce1dfffffffffffffffffffff602a557011c592761c666fffffffffffffffffffff602b5570110a688680a757ffffffffffffffffffff602c55701056f1b5bedf77ffffffffffffffffffff602d55700faadceceeff8bffffffffffffffffffff602e55700f05dc6b27edadffffffffffffffffffff602f55700e67a5a25da4107fffffffffffffffffff603055700dcff115b14eedffffffffffffffffffff603155700d3e7a392431239fffffffffffffffffff603255700cb2ff529eb71e4fffffffffffffffffff603355700c2d415c3db974afffffffffffffffffff603455700bad03e7d883f69bffffffffffffffffff603555700b320d03b2c343d5ffffffffffffffffff603655700abc25204e02828dffffffffffffffffff603755700a4b16f74ee4bb207fffffffffffffffff6038557009deaf736ac1f569ffffffffffffffffff603955700976bd9952c7aa957fffffffffffffffff603a557009131271922eaa606fffffffffffffffff603b557008b380f3558668c46fffffffffffffffff603c55700857ddf0117efa215bffffffffffffffff603d557007ffffffffffffffffffffffffffffffff603e557007abbf6f6abb9d087fffffffffffffffff603f5570075af62cbac95f7dfa7fffffffffffffff60405570070d7fb7452e187ac13fffffffffffffff6041557006c3390ecc8af379295fffffffffffffff60425570067c00a3b07ffc01fd6fffffffffffffff604355700637b647c39cbb9d3d27ffffffffffffff6044557005f63b1fc104dbd39587ffffffffffffff6045557005b771955b36e12f7235ffffffffffffff60465570057b3d49dda84556d6f6ffffffffffffff60475570054183095b2c8ececf30ffffffffffffff60485570050a28be635ca2b888f77fffffffffffff6049557004d5156639708c9db33c3fffffffffffff604a557004a23105873875bd52dfdfffffffffffff604b55700471649d87199aa990756fffffffffffff604c557004429a21a029d4c1457cfbffffffffffff604d55700415bc6d6fb7dd71af2cb3ffffffffffff604e557003eab73b3bbfe282243ce1ffffffffffff604f557003c1771ac9fb6b4c18e229ffffffffffff605055700399e96897690418f785257fffffffffff605155700373fc456c53bb779bf0ea9fffffffffff60525570034f9e8e490c48e67e6ab8bfffffffffff60535570032cbfd4a7adc790560b3337ffffffffff60545570030b50570f6e5d2acca94613ffffffffff6055557002eb40f9f620fda6b56c2861ffffffffff6056557002cc8340ecb0d0f520a6af58ffffffffff6057557002af09481380a0a35cf1ba02ffffffffff605855700292c5bdd3b92ec810287b1b3fffffffff605955700277abdcdab07d5a77ac6d6b9fffffffff605a5570025daf6654b1eaa55fd64df5efffffffff605b55700244c49c648baa98192dce88b7ffffffff605c5570022ce03cd5619a311b2471268bffffffff605d55700215f77c045fbe885654a44a0fffffffff605e557001ffffffffffffffffffffffffffffffff605f557001eaefdbdaaee7421fc4d3ede5ffffffff6060557001d6bd8b2eb257df7e8ca57b09bfffffff6061557001c35fedd14b861eb0443f7f133fffffff6062557001b0ce43b322bcde4a56e8ada5afffffff60635570019f0028ec1fff007f5a195a39dfffffff60645570018ded91f0e72ee74f49b15ba527ffffff60655570017d8ec7f04136f4e5615fd41a63ffffff60665570016ddc6556cdb84bdc8d12d22e6fffffff60675570015ecf52776a1155b5bd8395814f7fffff60685570015060c256cb23b3b3cc3754cf40ffffff6069557001428a2f98d728ae223ddab715be3fffff606a5570013545598e5c23276ccf0ede68034fffff606b557001288c4161ce1d6f54b7f61081194fffff606c5570011c592761c666aa641d5a01a40f17ffff606d55700110a688680a7530515f3e6e6cfdcdffff606e557001056f1b5bedf75c6bcb2ce8aed428ffff606f556ffaadceceeff8a0890f3875f008277fff6070556ff05dc6b27edad306388a600f6ba0bfff6071556fe67a5a25da41063de1495d5b18cdbfff6072556fdcff115b14eedde6fc3aa5353f2e4fff6073556fd3e7a3924312399f9aae2e0f868f8fff6074556fcb2ff529eb71e41582cccd5a1ee26fff6075556fc2d415c3db974ab32a51840c0b67edff6076556fbad03e7d883f69ad5b0a186184e06bff6077556fb320d03b2c343d4829abd6075f0cc5ff6078556fabc25204e02828d73c6e80bcdb1a95bf6079556fa4b16f74ee4bb2040a1ec6c15fbbf2df607a556f9deaf736ac1f569deb1b5ae3f36c130f607b556f976bd9952c7aa957f5937d790ef65037607c556f9131271922eaa6064b73a22d0bd4f2bf607d556f8b380f3558668c46c91c49a2f8e967b9607e556f857ddf0117efa215952912839f6473e6607f55565b565b6000808511610a975760405162461bcd60e51b81526020600482015260126024820152714552525f494e56414c49445f535550504c5960701b60448201526064016100ca565b60008411610ae75760405162461bcd60e51b815260206004820152601b60248201527f4552525f494e56414c49445f524553455256455f42414c414e4345000000000060448201526064016100ca565b60008363ffffffff16118015610b065750620f424063ffffffff841611155b610b525760405162461bcd60e51b815260206004820152601a60248201527f4552525f494e56414c49445f524553455256455f57454947485400000000000060448201526064016100ca565b81610b5f57506000610272565b63ffffffff8316620f42401415610b7b578361020b8684610bca565b60008080610b898588610cca565b9050610b9a818888620f4240610bdd565b9093509150600060ff8316610baf8a86610bca565b901c9050610bbd89826121c9565b9998505050505050505050565b6000610bd682846121aa565b9392505050565b600080600160811b8610610bf057600080fd5b60008086610c026001607f1b8a6121aa565b610c0c9190612174565b905070015bf0a8b1457695355fb8ac404e7a79e3811015610c3757610c3081610cd6565b9150610c43565b610c408161124f565b91505b60008563ffffffff168763ffffffff1684610c5e91906121aa565b610c689190612174565b9050600160831b811015610c8d57610c7f8161133d565b607f94509450505050610cc1565b6000610c9882611968565b9050610cb4610ca882607f6121e0565b60ff1683901c82611a1b565b95509350610cc192505050565b94509492505050565b6000610bd68284612137565b6000808080806fd3094c70f034de4b96ff7d5b6f99fcd88610610d2f57610d016001607e1b85612137565b93506fd3094c70f034de4b96ff7d5b6f99fcd8610d226001607f1b886121aa565b610d2c9190612174565b95505b6fa45af1e1f40c333b3de1db4dd55f29a78610610d8257610d546001607d1b85612137565b93506fa45af1e1f40c333b3de1db4dd55f29a7610d756001607f1b886121aa565b610d7f9190612174565b95505b6f910b022db7ae67ce76b441c27035c6a18610610dd557610da76001607c1b85612137565b93506f910b022db7ae67ce76b441c27035c6a1610dc86001607f1b886121aa565b610dd29190612174565b95505b6f88415abbe9a76bead8d00cf112e4d4a88610610e2857610dfa6001607b1b85612137565b93506f88415abbe9a76bead8d00cf112e4d4a8610e1b6001607f1b886121aa565b610e259190612174565b95505b6f84102b00893f64c705e841d5d4064bd38610610e7b57610e4d6001607a1b85612137565b93506f84102b00893f64c705e841d5d4064bd3610e6e6001607f1b886121aa565b610e789190612174565b95505b6f8204055aaef1c8bd5c3259f4822735a28610610ece57610ea0600160791b85612137565b93506f8204055aaef1c8bd5c3259f4822735a2610ec16001607f1b886121aa565b610ecb9190612174565b95505b6f810100ab00222d861931c15e39b44e998610610f2157610ef3600160781b85612137565b93506f810100ab00222d861931c15e39b44e99610f146001607f1b886121aa565b610f1e9190612174565b95505b6f808040155aabbbe9451521693554f7338610610f7457610f46600160771b85612137565b93506f808040155aabbbe9451521693554f733610f676001607f1b886121aa565b610f719190612174565b95505b610f826001607f1b876121c9565b92508291506001607f1b610f9683806121aa565b610fa09190612174565b9050600160801b610fb184826121c9565b610fbb90846121aa565b610fc59190612174565b610fcf9085612137565b93506001607f1b610fe082846121aa565b610fea9190612174565b9150600160811b61100b846faaaaaaaaaaaaaaaaaaaaaaaaaaaaaaaa6121c9565b61101590846121aa565b61101f9190612174565b6110299085612137565b93506001607f1b61103a82846121aa565b6110449190612174565b9150600360801b611065846f999999999999999999999999999999996121c9565b61106f90846121aa565b6110799190612174565b6110839085612137565b93506001607f1b61109482846121aa565b61109e9190612174565b9150600160821b6110bf846f924924924924924924924924924924926121c9565b6110c990846121aa565b6110d39190612174565b6110dd9085612137565b93506001607f1b6110ee82846121aa565b6110f89190612174565b9150600560801b611119846f8e38e38e38e38e38e38e38e38e38e38e6121c9565b61112390846121aa565b61112d9190612174565b6111379085612137565b93506001607f1b61114882846121aa565b6111529190612174565b9150600360811b611173846f8ba2e8ba2e8ba2e8ba2e8ba2e8ba2e8b6121c9565b61117d90846121aa565b6111879190612174565b6111919085612137565b93506001607f1b6111a282846121aa565b6111ac9190612174565b9150600760801b6111cd846f89d89d89d89d89d89d89d89d89d89d896121c9565b6111d790846121aa565b6111e19190612174565b6111eb9085612137565b93506001607f1b6111fc82846121aa565b6112069190612174565b9150600160831b611227846f888888888888888888888888888888886121c9565b61123190846121aa565b61123b9190612174565b6112459085612137565b9695505050505050565b600080600160801b83106112935760006112756112706001607f1b86612174565b612082565b60ff811694851c9490915061128f906001607f1b906121aa565b9150505b6001607f1b83111561130857607f5b60ff811615611306576001607f1b6112ba85806121aa565b6112c49190612174565b9350600160801b84106112f657600193841c936112e190826121e0565b60ff166001901b826112f39190612137565b91505b6112ff81612203565b90506112a2565b505b6f05b9de1d10bf4103d647b0955897ba806113336f03f80fe03f80fe03f80fe03f80fe03f8836121aa565b610bd69190612174565b60008080806113506001607c1b86612220565b91508190506001607f1b61136482806121aa565b61136e9190612174565b9050611382816710e1b3be415a00006121aa565b61138c9084612137565b92506001607f1b61139d83836121aa565b6113a79190612174565b90506113bb816705a0913f6b1e00006121aa565b6113c59084612137565b92506001607f1b6113d683836121aa565b6113e09190612174565b90506113f481670168244fdac780006121aa565b6113fe9084612137565b92506001607f1b61140f83836121aa565b6114199190612174565b905061142c81664807432bc180006121aa565b6114369084612137565b92506001607f1b61144783836121aa565b6114519190612174565b905061146481660c0135dca040006121aa565b61146e9084612137565b92506001607f1b61147f83836121aa565b6114899190612174565b905061149c816601b707b1cdc0006121aa565b6114a69084612137565b92506001607f1b6114b783836121aa565b6114c19190612174565b90506114d3816536e0f639b8006121aa565b6114dd9084612137565b92506001607f1b6114ee83836121aa565b6114f89190612174565b905061150a81650618fee9f8006121aa565b6115149084612137565b92506001607f1b61152583836121aa565b61152f9190612174565b905061154081649c197dcc006121aa565b61154a9084612137565b92506001607f1b61155b83836121aa565b6115659190612174565b905061157681640e30dce4006121aa565b6115809084612137565b92506001607f1b61159183836121aa565b61159b9190612174565b90506115ac8164012ebd13006121aa565b6115b69084612137565b92506001607f1b6115c783836121aa565b6115d19190612174565b90506115e1816317499f006121aa565b6115eb9084612137565b92506001607f1b6115fc83836121aa565b6116069190612174565b9050611616816301a9d4806121aa565b6116209084612137565b92506001607f1b61163183836121aa565b61163b9190612174565b905061164a81621c63806121aa565b6116549084612137565b92506001607f1b61166583836121aa565b61166f9190612174565b905061167e816201c6386121aa565b6116889084612137565b92506001607f1b61169983836121aa565b6116a39190612174565b90506116b181611ab86121aa565b6116bb9084612137565b92506001607f1b6116cc83836121aa565b6116d69190612174565b90506116e48161017c6121aa565b6116ee9084612137565b92506001607f1b6116ff83836121aa565b6117099190612174565b90506117168160146121aa565b6117209084612137565b92506001607f1b61173183836121aa565b61173b9190612174565b90506117488160016121aa565b6117529084612137565b92506001607f1b8261176c6721c3677c82b4000086612174565b6117769190612137565b6117809190612137565b92506001607c1b8516156117c85770018ebef9eac820ae8682b9793ac6d1e7766117bb847001c3d6a24ed82218787d624d3e5eba95f96121aa565b6117c59190612174565b92505b6001607d1b85161561180e577001368b2fc6f9609fe7aceb46aa619baed46118018470018ebef9eac820ae8682b9793ac6d1e7786121aa565b61180b9190612174565b92505b6001607e1b851615611853576fbc5ab1b16779be3575bd8f0520a9f21f611846847001368b2fc6f9609fe7aceb46aa619baed56121aa565b6118509190612174565b92505b6001607f1b851615611897576f454aaa8efe072e7f6ddbab84b40a55c961188a846fbc5ab1b16779be3575bd8f0520a9f21e6121aa565b6118949190612174565b92505b600160801b8516156118db576f0960aadc109e7a3bf4578099615711ea6118ce846f454aaa8efe072e7f6ddbab84b40a55c56121aa565b6118d89190612174565b92505b600160811b85161561191e576e2bf84208204f5977f9a8cf01fdce3d611911846f0960aadc109e7a3bf4578099615711d76121aa565b61191b9190612174565b92505b600160821b85161561195f576d03c6ab775dd0b95b4cbee7e65d11611952846e2bf84208204f5977f9a8cf01fdc3076121aa565b61195c9190612174565b92505b50909392505050565b60006020607f5b60ff811661197e83600161214f565b60ff1610156119d15760006002611995838561214f565b61199f9190612188565b90508460008260ff16608081106119b8576119b8612260565b0154106119c7578092506119cb565b8091505b5061196f565b8360008260ff16608081106119e8576119e8612260565b0154106119f6579392505050565b8360008360ff1660808110611a0d57611a0d612260565b015410610041575092915050565b6000828160ff8416611a2d83806121aa565b901c9150611a4b826f03442c4e6074a82f1797f72ac00000006121aa565b611a559082612137565b905060ff8416611a6586846121aa565b901c9150611a83826f0116b96f757c380fb287fd0e400000006121aa565b611a8d9082612137565b905060ff8416611a9d86846121aa565b901c9150611aba826e45ae5bdd5f0e03eca1ff43900000006121aa565b611ac49082612137565b905060ff8416611ad486846121aa565b901c9150611af1826e0defabf91302cd95b9ffda500000006121aa565b611afb9082612137565b905060ff8416611b0b86846121aa565b901c9150611b28826e02529ca9832b22439efff9b80000006121aa565b611b329082612137565b905060ff8416611b4286846121aa565b901c9150611b5e826d54f1cf12bd04e516b6da880000006121aa565b611b689082612137565b905060ff8416611b7886846121aa565b901c9150611b94826d0a9e39e257a09ca2d6db510000006121aa565b611b9e9082612137565b905060ff8416611bae86846121aa565b901c9150611bca826d012e066e7b839fa050c3090000006121aa565b611bd49082612137565b905060ff8416611be486846121aa565b901c9150611bff826c1e33d7d926c329a1ad1a8000006121aa565b611c099082612137565b905060ff8416611c1986846121aa565b901c9150611c34826c02bee513bdb4a6b19b5f8000006121aa565b611c3e9082612137565b905060ff8416611c4e86846121aa565b901c9150611c68826b3a9316fa79b88eccf2a000006121aa565b611c729082612137565b905060ff8416611c8286846121aa565b901c9150611c9c826b048177ebe1fa8123752000006121aa565b611ca69082612137565b905060ff8416611cb686846121aa565b901c9150611ccf826a5263fe90242dcbacf000006121aa565b611cd99082612137565b905060ff8416611ce986846121aa565b901c9150611d02826a057e22099c030d941000006121aa565b611d0c9082612137565b905060ff8416611d1c86846121aa565b901c9150611d34826957e22099c030d94100006121aa565b611d3e9082612137565b905060ff8416611d4e86846121aa565b901c9150611d668269052b6b545699763100006121aa565b611d709082612137565b905060ff8416611d8086846121aa565b901c9150611d9782684985f67696bf7480006121aa565b611da19082612137565b905060ff8416611db186846121aa565b901c9150611dc8826803dea12ea99e4980006121aa565b611dd29082612137565b905060ff8416611de286846121aa565b901c9150611df8826731880f2214b6e0006121aa565b611e029082612137565b905060ff8416611e1286846121aa565b901c9150611e288267025bcff56eb360006121aa565b611e329082612137565b905060ff8416611e4286846121aa565b901c9150611e5782661b722e10ab10006121aa565b611e619082612137565b905060ff8416611e7186846121aa565b901c9150611e86826601317c700770006121aa565b611e909082612137565b905060ff8416611ea086846121aa565b901c9150611eb482650cba84aafa006121aa565b611ebe9082612137565b905060ff8416611ece86846121aa565b901c9150611ee1826482573a0a006121aa565b611eeb9082612137565b905060ff8416611efb86846121aa565b901c9150611f0e826405035ad9006121aa565b611f189082612137565b905060ff8416611f2886846121aa565b901c9150611f3a82632f881b006121aa565b611f449082612137565b905060ff8416611f5486846121aa565b901c9150611f66826301b293406121aa565b611f709082612137565b905060ff8416611f8086846121aa565b901c9150611f9182620efc406121aa565b611f9b9082612137565b905060ff8416611fab86846121aa565b901c9150611fbb82617fe06121aa565b611fc59082612137565b905060ff8416611fd586846121aa565b901c9150611fe5826104206121aa565b611fef9082612137565b905060ff8416611fff86846121aa565b901c915061200e8260216121aa565b6120189082612137565b905060ff841661202886846121aa565b901c91506120378260016121aa565b6120419082612137565b9050600160ff85161b856120656f0688589cc0e9505e2f2fee558000000084612174565b61206f9190612137565b6120799190612137565b95945050505050565b6000806101008310156120b5575b60018311156120b057600192831c926120a9908261214f565b9050612090565b6120e9565b60805b60ff8116156120e757600160ff82161b84106120dc5760ff81169390931c92908117905b60011c607f166120b8565b505b92915050565b6000806000806080858703121561210557600080fd5b8435935060208501359250604085013563ffffffff8116811461212757600080fd5b9396929550929360600135925050565b6000821982111561214a5761214a612234565b500190565b600060ff821660ff84168060ff0382111561216c5761216c612234565b019392505050565b6000826121835761218361224a565b500490565b600060ff83168061219b5761219b61224a565b8060ff84160491505092915050565b60008160001904831182151516156121c4576121c4612234565b500290565b6000828210156121db576121db612234565b500390565b600060ff821660ff8416808210156121fa576121fa612234565b90039392505050565b600060ff82168061221657612216612234565b6000190192915050565b60008261222f5761222f61224a565b500690565b634e487b7160e01b600052601160045260246000fd5b634e487b7160e01b600052601260045260246000fd5b634e487b7160e01b600052603260045260246000fdfea26469706673582212207cc258e0174f2966d22488001fe2ed1fdbf4272d5053b7a29da40fcacb651dad64736f6c63430008060033",
  "immutableReferences": {},
  "source": "// SPDX-License-Identifier: Apache-2.0\n\npragma solidity ^0.8.6;\n\nimport \"openzeppelin-solidity/contracts/utils/math/SafeMath.sol\";\nimport \"./IBancorFormula.sol\";\n\ncontract BancorFormula is IBancorFormula {\n  using SafeMath for uint256;\n\n  uint256 private constant ONE = 1;\n  uint32 private constant MAX_WEIGHT = 1000000;\n  uint8 private constant MIN_PRECISION = 32;\n  uint8 private constant MAX_PRECISION = 127;\n\n  // Auto-generated via 'PrintIntScalingFactors.py'\n  uint256 private constant FIXED_1 = 0x080000000000000000000000000000000;\n  uint256 private constant FIXED_2 = 0x100000000000000000000000000000000;\n  uint256 private constant MAX_NUM = 0x200000000000000000000000000000000;\n\n  // Auto-generated via 'PrintLn2ScalingFactors.py'\n  uint256 private constant LN2_NUMERATOR = 0x3f80fe03f80fe03f80fe03f80fe03f8;\n  uint256 private constant LN2_DENOMINATOR = 0x5b9de1d10bf4103d647b0955897ba80;\n\n  // Auto-generated via 'PrintFunctionOptimalLog.py' and 'PrintFunctionOptimalExp.py'\n  uint256 private constant OPT_LOG_MAX_VAL = 0x15bf0a8b1457695355fb8ac404e7a79e3;\n  uint256 private constant OPT_EXP_MAX_VAL = 0x800000000000000000000000000000000;\n\n  // Auto-generated via 'PrintWeightFactors.py'\n  uint256 private constant MAX_UNF_WEIGHT = 0x10c6f7a0b5ed8d36b4c7f34938583621fafc8b0079a2834d26fa3fcc9ea9;\n\n  // Auto-generated via 'PrintMaxExpArray.py'\n  uint256[128] private maxExpArray;\n\n  function initMaxExpArray() private {\n    //  maxExpArray[  0] = 0x6bffffffffffffffffffffffffffffffff;\n    //  maxExpArray[  1] = 0x67ffffffffffffffffffffffffffffffff;\n    //  maxExpArray[  2] = 0x637fffffffffffffffffffffffffffffff;\n    //  maxExpArray[  3] = 0x5f6fffffffffffffffffffffffffffffff;\n    //  maxExpArray[  4] = 0x5b77ffffffffffffffffffffffffffffff;\n    //  maxExpArray[  5] = 0x57b3ffffffffffffffffffffffffffffff;\n    //  maxExpArray[  6] = 0x5419ffffffffffffffffffffffffffffff;\n    //  maxExpArray[  7] = 0x50a2ffffffffffffffffffffffffffffff;\n    //  maxExpArray[  8] = 0x4d517fffffffffffffffffffffffffffff;\n    //  maxExpArray[  9] = 0x4a233fffffffffffffffffffffffffffff;\n    //  maxExpArray[ 10] = 0x47165fffffffffffffffffffffffffffff;\n    //  maxExpArray[ 11] = 0x4429afffffffffffffffffffffffffffff;\n    //  maxExpArray[ 12] = 0x415bc7ffffffffffffffffffffffffffff;\n    //  maxExpArray[ 13] = 0x3eab73ffffffffffffffffffffffffffff;\n    //  maxExpArray[ 14] = 0x3c1771ffffffffffffffffffffffffffff;\n    //  maxExpArray[ 15] = 0x399e96ffffffffffffffffffffffffffff;\n    //  maxExpArray[ 16] = 0x373fc47fffffffffffffffffffffffffff;\n    //  maxExpArray[ 17] = 0x34f9e8ffffffffffffffffffffffffffff;\n    //  maxExpArray[ 18] = 0x32cbfd5fffffffffffffffffffffffffff;\n    //  maxExpArray[ 19] = 0x30b5057fffffffffffffffffffffffffff;\n    //  maxExpArray[ 20] = 0x2eb40f9fffffffffffffffffffffffffff;\n    //  maxExpArray[ 21] = 0x2cc8340fffffffffffffffffffffffffff;\n    //  maxExpArray[ 22] = 0x2af09481ffffffffffffffffffffffffff;\n    //  maxExpArray[ 23] = 0x292c5bddffffffffffffffffffffffffff;\n    //  maxExpArray[ 24] = 0x277abdcdffffffffffffffffffffffffff;\n    //  maxExpArray[ 25] = 0x25daf6657fffffffffffffffffffffffff;\n    //  maxExpArray[ 26] = 0x244c49c65fffffffffffffffffffffffff;\n    //  maxExpArray[ 27] = 0x22ce03cd5fffffffffffffffffffffffff;\n    //  maxExpArray[ 28] = 0x215f77c047ffffffffffffffffffffffff;\n    //  maxExpArray[ 29] = 0x1fffffffffffffffffffffffffffffffff;\n    //  maxExpArray[ 30] = 0x1eaefdbdabffffffffffffffffffffffff;\n    //  maxExpArray[ 31] = 0x1d6bd8b2ebffffffffffffffffffffffff;\n    maxExpArray[32] = 0x1c35fedd14ffffffffffffffffffffffff;\n    maxExpArray[33] = 0x1b0ce43b323fffffffffffffffffffffff;\n    maxExpArray[34] = 0x19f0028ec1ffffffffffffffffffffffff;\n    maxExpArray[35] = 0x18ded91f0e7fffffffffffffffffffffff;\n    maxExpArray[36] = 0x17d8ec7f0417ffffffffffffffffffffff;\n    maxExpArray[37] = 0x16ddc6556cdbffffffffffffffffffffff;\n    maxExpArray[38] = 0x15ecf52776a1ffffffffffffffffffffff;\n    maxExpArray[39] = 0x15060c256cb2ffffffffffffffffffffff;\n    maxExpArray[40] = 0x1428a2f98d72ffffffffffffffffffffff;\n    maxExpArray[41] = 0x13545598e5c23fffffffffffffffffffff;\n    maxExpArray[42] = 0x1288c4161ce1dfffffffffffffffffffff;\n    maxExpArray[43] = 0x11c592761c666fffffffffffffffffffff;\n    maxExpArray[44] = 0x110a688680a757ffffffffffffffffffff;\n    maxExpArray[45] = 0x1056f1b5bedf77ffffffffffffffffffff;\n    maxExpArray[46] = 0x0faadceceeff8bffffffffffffffffffff;\n    maxExpArray[47] = 0x0f05dc6b27edadffffffffffffffffffff;\n    maxExpArray[48] = 0x0e67a5a25da4107fffffffffffffffffff;\n    maxExpArray[49] = 0x0dcff115b14eedffffffffffffffffffff;\n    maxExpArray[50] = 0x0d3e7a392431239fffffffffffffffffff;\n    maxExpArray[51] = 0x0cb2ff529eb71e4fffffffffffffffffff;\n    maxExpArray[52] = 0x0c2d415c3db974afffffffffffffffffff;\n    maxExpArray[53] = 0x0bad03e7d883f69bffffffffffffffffff;\n    maxExpArray[54] = 0x0b320d03b2c343d5ffffffffffffffffff;\n    maxExpArray[55] = 0x0abc25204e02828dffffffffffffffffff;\n    maxExpArray[56] = 0x0a4b16f74ee4bb207fffffffffffffffff;\n    maxExpArray[57] = 0x09deaf736ac1f569ffffffffffffffffff;\n    maxExpArray[58] = 0x0976bd9952c7aa957fffffffffffffffff;\n    maxExpArray[59] = 0x09131271922eaa606fffffffffffffffff;\n    maxExpArray[60] = 0x08b380f3558668c46fffffffffffffffff;\n    maxExpArray[61] = 0x0857ddf0117efa215bffffffffffffffff;\n    maxExpArray[62] = 0x07ffffffffffffffffffffffffffffffff;\n    maxExpArray[63] = 0x07abbf6f6abb9d087fffffffffffffffff;\n    maxExpArray[64] = 0x075af62cbac95f7dfa7fffffffffffffff;\n    maxExpArray[65] = 0x070d7fb7452e187ac13fffffffffffffff;\n    maxExpArray[66] = 0x06c3390ecc8af379295fffffffffffffff;\n    maxExpArray[67] = 0x067c00a3b07ffc01fd6fffffffffffffff;\n    maxExpArray[68] = 0x0637b647c39cbb9d3d27ffffffffffffff;\n    maxExpArray[69] = 0x05f63b1fc104dbd39587ffffffffffffff;\n    maxExpArray[70] = 0x05b771955b36e12f7235ffffffffffffff;\n    maxExpArray[71] = 0x057b3d49dda84556d6f6ffffffffffffff;\n    maxExpArray[72] = 0x054183095b2c8ececf30ffffffffffffff;\n    maxExpArray[73] = 0x050a28be635ca2b888f77fffffffffffff;\n    maxExpArray[74] = 0x04d5156639708c9db33c3fffffffffffff;\n    maxExpArray[75] = 0x04a23105873875bd52dfdfffffffffffff;\n    maxExpArray[76] = 0x0471649d87199aa990756fffffffffffff;\n    maxExpArray[77] = 0x04429a21a029d4c1457cfbffffffffffff;\n    maxExpArray[78] = 0x0415bc6d6fb7dd71af2cb3ffffffffffff;\n    maxExpArray[79] = 0x03eab73b3bbfe282243ce1ffffffffffff;\n    maxExpArray[80] = 0x03c1771ac9fb6b4c18e229ffffffffffff;\n    maxExpArray[81] = 0x0399e96897690418f785257fffffffffff;\n    maxExpArray[82] = 0x0373fc456c53bb779bf0ea9fffffffffff;\n    maxExpArray[83] = 0x034f9e8e490c48e67e6ab8bfffffffffff;\n    maxExpArray[84] = 0x032cbfd4a7adc790560b3337ffffffffff;\n    maxExpArray[85] = 0x030b50570f6e5d2acca94613ffffffffff;\n    maxExpArray[86] = 0x02eb40f9f620fda6b56c2861ffffffffff;\n    maxExpArray[87] = 0x02cc8340ecb0d0f520a6af58ffffffffff;\n    maxExpArray[88] = 0x02af09481380a0a35cf1ba02ffffffffff;\n    maxExpArray[89] = 0x0292c5bdd3b92ec810287b1b3fffffffff;\n    maxExpArray[90] = 0x0277abdcdab07d5a77ac6d6b9fffffffff;\n    maxExpArray[91] = 0x025daf6654b1eaa55fd64df5efffffffff;\n    maxExpArray[92] = 0x0244c49c648baa98192dce88b7ffffffff;\n    maxExpArray[93] = 0x022ce03cd5619a311b2471268bffffffff;\n    maxExpArray[94] = 0x0215f77c045fbe885654a44a0fffffffff;\n    maxExpArray[95] = 0x01ffffffffffffffffffffffffffffffff;\n    maxExpArray[96] = 0x01eaefdbdaaee7421fc4d3ede5ffffffff;\n    maxExpArray[97] = 0x01d6bd8b2eb257df7e8ca57b09bfffffff;\n    maxExpArray[98] = 0x01c35fedd14b861eb0443f7f133fffffff;\n    maxExpArray[99] = 0x01b0ce43b322bcde4a56e8ada5afffffff;\n    maxExpArray[100] = 0x019f0028ec1fff007f5a195a39dfffffff;\n    maxExpArray[101] = 0x018ded91f0e72ee74f49b15ba527ffffff;\n    maxExpArray[102] = 0x017d8ec7f04136f4e5615fd41a63ffffff;\n    maxExpArray[103] = 0x016ddc6556cdb84bdc8d12d22e6fffffff;\n    maxExpArray[104] = 0x015ecf52776a1155b5bd8395814f7fffff;\n    maxExpArray[105] = 0x015060c256cb23b3b3cc3754cf40ffffff;\n    maxExpArray[106] = 0x01428a2f98d728ae223ddab715be3fffff;\n    maxExpArray[107] = 0x013545598e5c23276ccf0ede68034fffff;\n    maxExpArray[108] = 0x01288c4161ce1d6f54b7f61081194fffff;\n    maxExpArray[109] = 0x011c592761c666aa641d5a01a40f17ffff;\n    maxExpArray[110] = 0x0110a688680a7530515f3e6e6cfdcdffff;\n    maxExpArray[111] = 0x01056f1b5bedf75c6bcb2ce8aed428ffff;\n    maxExpArray[112] = 0x00faadceceeff8a0890f3875f008277fff;\n    maxExpArray[113] = 0x00f05dc6b27edad306388a600f6ba0bfff;\n    maxExpArray[114] = 0x00e67a5a25da41063de1495d5b18cdbfff;\n    maxExpArray[115] = 0x00dcff115b14eedde6fc3aa5353f2e4fff;\n    maxExpArray[116] = 0x00d3e7a3924312399f9aae2e0f868f8fff;\n    maxExpArray[117] = 0x00cb2ff529eb71e41582cccd5a1ee26fff;\n    maxExpArray[118] = 0x00c2d415c3db974ab32a51840c0b67edff;\n    maxExpArray[119] = 0x00bad03e7d883f69ad5b0a186184e06bff;\n    maxExpArray[120] = 0x00b320d03b2c343d4829abd6075f0cc5ff;\n    maxExpArray[121] = 0x00abc25204e02828d73c6e80bcdb1a95bf;\n    maxExpArray[122] = 0x00a4b16f74ee4bb2040a1ec6c15fbbf2df;\n    maxExpArray[123] = 0x009deaf736ac1f569deb1b5ae3f36c130f;\n    maxExpArray[124] = 0x00976bd9952c7aa957f5937d790ef65037;\n    maxExpArray[125] = 0x009131271922eaa6064b73a22d0bd4f2bf;\n    maxExpArray[126] = 0x008b380f3558668c46c91c49a2f8e967b9;\n    maxExpArray[127] = 0x00857ddf0117efa215952912839f6473e6;\n  }\n\n  /**\n   * @dev should be executed after construction (too large for the constructor)\n   */\n  function init() public {\n    initMaxExpArray();\n  }\n\n  /**\n   * @dev given a token supply, reserve balance, weight and a deposit amount (in the reserve token),\n   * calculates the target amount for a given conversion (in the main token)\n   *\n   * Formula:\n   * return = _supply * ((1 + _amount / _reserveBalance) ^ (_reserveWeight / 1000000) - 1)\n   *\n   * @param _supply          liquid token supply\n   * @param _reserveBalance  reserve balance\n   * @param _reserveWeight   reserve weight, represented in ppm (1-1000000)\n   * @param _amount          amount of reserve tokens to get the target amount for\n   *\n   * @return target\n   */\n  function purchaseTargetAmount(\n    uint256 _supply,\n    uint256 _reserveBalance,\n    uint32 _reserveWeight,\n    uint256 _amount\n  ) public view override returns (uint256) {\n    // validate input\n    require(_supply > 0, \"ERR_INVALID_SUPPLY\");\n    require(_reserveBalance > 0, \"ERR_INVALID_RESERVE_BALANCE\");\n    require(_reserveWeight > 0 && _reserveWeight <= MAX_WEIGHT, \"ERR_INVALID_RESERVE_WEIGHT\");\n\n    // special case for 0 deposit amount\n    if (_amount == 0) return 0;\n\n    // special case if the weight = 100%\n    if (_reserveWeight == MAX_WEIGHT) return _supply.mul(_amount) / _reserveBalance;\n\n    uint256 result;\n    uint8 precision;\n    uint256 baseN = _amount.add(_reserveBalance);\n    (result, precision) = power(baseN, _reserveBalance, _reserveWeight, MAX_WEIGHT);\n    uint256 temp = _supply.mul(result) >> precision;\n    return temp - _supply;\n  }\n\n  /**\n   * @dev given a token supply, reserve balance, weight and a sell amount (in the main token),\n   * calculates the target amount for a given conversion (in the reserve token)\n   *\n   * Formula:\n   * return = _reserveBalance * (1 - (1 - _amount / _supply) ^ (1000000 / _reserveWeight))\n   *\n   * @param _supply          liquid token supply\n   * @param _reserveBalance  reserve balance\n   * @param _reserveWeight   reserve weight, represented in ppm (1-1000000)\n   * @param _amount          amount of liquid tokens to get the target amount for\n   *\n   * @return reserve token amount\n   */\n  function saleTargetAmount(\n    uint256 _supply,\n    uint256 _reserveBalance,\n    uint32 _reserveWeight,\n    uint256 _amount\n  ) public view override returns (uint256) {\n    // validate input\n    require(_supply > 0, \"ERR_INVALID_SUPPLY\");\n    require(_reserveBalance > 0, \"ERR_INVALID_RESERVE_BALANCE\");\n    require(_reserveWeight > 0 && _reserveWeight <= MAX_WEIGHT, \"ERR_INVALID_RESERVE_WEIGHT\");\n    require(_amount <= _supply, \"ERR_INVALID_AMOUNT\");\n\n    // special case for 0 sell amount\n    if (_amount == 0) return 0;\n\n    // special case for selling the entire supply\n    if (_amount == _supply) return _reserveBalance;\n\n    // special case if the weight = 100%\n    if (_reserveWeight == MAX_WEIGHT) return _reserveBalance.mul(_amount) / _supply;\n\n    uint256 result;\n    uint8 precision;\n    uint256 baseD = _supply - _amount;\n    (result, precision) = power(_supply, baseD, MAX_WEIGHT, _reserveWeight);\n    uint256 temp1 = _reserveBalance.mul(result);\n    uint256 temp2 = _reserveBalance << precision;\n    return (temp1 - temp2) / result;\n  }\n\n\n\n  /**\n   * @dev General Description:\n   *     Determine a value of precision.\n   *     Calculate an integer approximation of (_baseN / _baseD) ^ (_expN / _expD) * 2 ^ precision.\n   *     Return the result along with the precision used.\n   *\n   * Detailed Description:\n   *     Instead of calculating \"base ^ exp\", we calculate \"e ^ (log(base) * exp)\".\n   *     The value of \"log(base)\" is represented with an integer slightly smaller than \"log(base) * 2 ^ precision\".\n   *     The larger \"precision\" is, the more accurately this value represents the real value.\n   *     However, the larger \"precision\" is, the more bits are required in order to store this value.\n   *     And the exponentiation function, which takes \"x\" and calculates \"e ^ x\", is limited to a maximum exponent (maximum value of \"x\").\n   *     This maximum exponent depends on the \"precision\" used, and it is given by \"maxExpArray[precision] >> (MAX_PRECISION - precision)\".\n   *     Hence we need to determine the highest precision which can be used for the given input, before calling the exponentiation function.\n   *     This allows us to compute \"base ^ exp\" with maximum accuracy and without exceeding 256 bits in any of the intermediate computations.\n   *     This functions assumes that \"_expN < 2 ^ 256 / log(MAX_NUM - 1)\", otherwise the multiplication should be replaced with a \"safeMul\".\n   *     Since we rely on unsigned-integer arithmetic and \"base < 1\" ==> \"log(base) < 0\", this function does not support \"_baseN < _baseD\".\n   */\n  function power(\n    uint256 _baseN,\n    uint256 _baseD,\n    uint32 _expN,\n    uint32 _expD\n  ) internal view returns (uint256, uint8) {\n    require(_baseN < MAX_NUM);\n\n    uint256 baseLog;\n    uint256 base = (_baseN * FIXED_1) / _baseD;\n    if (base < OPT_LOG_MAX_VAL) {\n      baseLog = optimalLog(base);\n    } else {\n      baseLog = generalLog(base);\n    }\n\n    uint256 baseLogTimesExp = (baseLog * _expN) / _expD;\n    if (baseLogTimesExp < OPT_EXP_MAX_VAL) {\n      return (optimalExp(baseLogTimesExp), MAX_PRECISION);\n    } else {\n      uint8 precision = findPositionInMaxExpArray(baseLogTimesExp);\n      return (generalExp(baseLogTimesExp >> (MAX_PRECISION - precision), precision), precision);\n    }\n  }\n\n  /**\n   * @dev computes log(x / FIXED_1) * FIXED_1.\n   * This functions assumes that \"x >= FIXED_1\", because the output would be negative otherwise.\n   */\n  function generalLog(uint256 x) internal pure returns (uint256) {\n    uint256 res = 0;\n\n    // If x >= 2, then we compute the integer part of log2(x), which is larger than 0.\n    if (x >= FIXED_2) {\n      uint8 count = floorLog2(x / FIXED_1);\n      x >>= count; // now x < 2\n      res = count * FIXED_1;\n    }\n\n    // If x > 1, then we compute the fraction part of log2(x), which is larger than 0.\n    if (x > FIXED_1) {\n      for (uint8 i = MAX_PRECISION; i > 0; --i) {\n        x = (x * x) / FIXED_1; // now 1 < x < 4\n        if (x >= FIXED_2) {\n          x >>= 1; // now 1 < x < 2\n          res += ONE << (i - 1);\n        }\n      }\n    }\n\n    return (res * LN2_NUMERATOR) / LN2_DENOMINATOR;\n  }\n\n  /**\n   * @dev computes the largest integer smaller than or equal to the binary logarithm of the input.\n   */\n  function floorLog2(uint256 _n) internal pure returns (uint8) {\n    uint8 res = 0;\n\n    if (_n < 256) {\n      // At most 8 iterations\n      while (_n > 1) {\n        _n >>= 1;\n        res += 1;\n      }\n    } else {\n      // Exactly 8 iterations\n      for (uint8 s = 128; s > 0; s >>= 1) {\n        if (_n >= (ONE << s)) {\n          _n >>= s;\n          res |= s;\n        }\n      }\n    }\n\n    return res;\n  }\n\n  /**\n   * @dev the global \"maxExpArray\" is sorted in descending order, and therefore the following statements are equivalent:\n   * - This function finds the position of [the smallest value in \"maxExpArray\" larger than or equal to \"x\"]\n   * - This function finds the highest position of [a value in \"maxExpArray\" larger than or equal to \"x\"]\n   */\n  function findPositionInMaxExpArray(uint256 _x) internal view returns (uint8) {\n    uint8 lo = MIN_PRECISION;\n    uint8 hi = MAX_PRECISION;\n\n    while (lo + 1 < hi) {\n      uint8 mid = (lo + hi) / 2;\n      if (maxExpArray[mid] >= _x) lo = mid;\n      else hi = mid;\n    }\n\n    if (maxExpArray[hi] >= _x) return hi;\n    if (maxExpArray[lo] >= _x) return lo;\n\n    require(false);\n    return(0);\n  }\n\n  /**\n   * @dev this function can be auto-generated by the script 'PrintFunctionGeneralExp.py'.\n   * it approximates \"e ^ x\" via maclaurin summation: \"(x^0)/0! + (x^1)/1! + ... + (x^n)/n!\".\n   * it returns \"e ^ (x / 2 ^ precision) * 2 ^ precision\", that is, the result is upshifted for accuracy.\n   * the global \"maxExpArray\" maps each \"precision\" to \"((maximumExponent + 1) << (MAX_PRECISION - precision)) - 1\".\n   * the maximum permitted value for \"x\" is therefore given by \"maxExpArray[precision] >> (MAX_PRECISION - precision)\".\n   */\n  function generalExp(uint256 _x, uint8 _precision) internal pure returns (uint256) {\n    uint256 xi = _x;\n    uint256 res = 0;\n\n    xi = (xi * _x) >> _precision;\n    res += xi * 0x3442c4e6074a82f1797f72ac0000000; // add x^02 * (33! / 02!)\n    xi = (xi * _x) >> _precision;\n    res += xi * 0x116b96f757c380fb287fd0e40000000; // add x^03 * (33! / 03!)\n    xi = (xi * _x) >> _precision;\n    res += xi * 0x045ae5bdd5f0e03eca1ff4390000000; // add x^04 * (33! / 04!)\n    xi = (xi * _x) >> _precision;\n    res += xi * 0x00defabf91302cd95b9ffda50000000; // add x^05 * (33! / 05!)\n    xi = (xi * _x) >> _precision;\n    res += xi * 0x002529ca9832b22439efff9b8000000; // add x^06 * (33! / 06!)\n    xi = (xi * _x) >> _precision;\n    res += xi * 0x00054f1cf12bd04e516b6da88000000; // add x^07 * (33! / 07!)\n    xi = (xi * _x) >> _precision;\n    res += xi * 0x0000a9e39e257a09ca2d6db51000000; // add x^08 * (33! / 08!)\n    xi = (xi * _x) >> _precision;\n    res += xi * 0x000012e066e7b839fa050c309000000; // add x^09 * (33! / 09!)\n    xi = (xi * _x) >> _precision;\n    res += xi * 0x000001e33d7d926c329a1ad1a800000; // add x^10 * (33! / 10!)\n    xi = (xi * _x) >> _precision;\n    res += xi * 0x0000002bee513bdb4a6b19b5f800000; // add x^11 * (33! / 11!)\n    xi = (xi * _x) >> _precision;\n    res += xi * 0x00000003a9316fa79b88eccf2a00000; // add x^12 * (33! / 12!)\n    xi = (xi * _x) >> _precision;\n    res += xi * 0x0000000048177ebe1fa812375200000; // add x^13 * (33! / 13!)\n    xi = (xi * _x) >> _precision;\n    res += xi * 0x0000000005263fe90242dcbacf00000; // add x^14 * (33! / 14!)\n    xi = (xi * _x) >> _precision;\n    res += xi * 0x000000000057e22099c030d94100000; // add x^15 * (33! / 15!)\n    xi = (xi * _x) >> _precision;\n    res += xi * 0x0000000000057e22099c030d9410000; // add x^16 * (33! / 16!)\n    xi = (xi * _x) >> _precision;\n    res += xi * 0x00000000000052b6b54569976310000; // add x^17 * (33! / 17!)\n    xi = (xi * _x) >> _precision;\n    res += xi * 0x00000000000004985f67696bf748000; // add x^18 * (33! / 18!)\n    xi = (xi * _x) >> _precision;\n    res += xi * 0x000000000000003dea12ea99e498000; // add x^19 * (33! / 19!)\n    xi = (xi * _x) >> _precision;\n    res += xi * 0x00000000000000031880f2214b6e000; // add x^20 * (33! / 20!)\n    xi = (xi * _x) >> _precision;\n    res += xi * 0x000000000000000025bcff56eb36000; // add x^21 * (33! / 21!)\n    xi = (xi * _x) >> _precision;\n    res += xi * 0x000000000000000001b722e10ab1000; // add x^22 * (33! / 22!)\n    xi = (xi * _x) >> _precision;\n    res += xi * 0x0000000000000000001317c70077000; // add x^23 * (33! / 23!)\n    xi = (xi * _x) >> _precision;\n    res += xi * 0x00000000000000000000cba84aafa00; // add x^24 * (33! / 24!)\n    xi = (xi * _x) >> _precision;\n    res += xi * 0x00000000000000000000082573a0a00; // add x^25 * (33! / 25!)\n    xi = (xi * _x) >> _precision;\n    res += xi * 0x00000000000000000000005035ad900; // add x^26 * (33! / 26!)\n    xi = (xi * _x) >> _precision;\n    res += xi * 0x000000000000000000000002f881b00; // add x^27 * (33! / 27!)\n    xi = (xi * _x) >> _precision;\n    res += xi * 0x0000000000000000000000001b29340; // add x^28 * (33! / 28!)\n    xi = (xi * _x) >> _precision;\n    res += xi * 0x00000000000000000000000000efc40; // add x^29 * (33! / 29!)\n    xi = (xi * _x) >> _precision;\n    res += xi * 0x0000000000000000000000000007fe0; // add x^30 * (33! / 30!)\n    xi = (xi * _x) >> _precision;\n    res += xi * 0x0000000000000000000000000000420; // add x^31 * (33! / 31!)\n    xi = (xi * _x) >> _precision;\n    res += xi * 0x0000000000000000000000000000021; // add x^32 * (33! / 32!)\n    xi = (xi * _x) >> _precision;\n    res += xi * 0x0000000000000000000000000000001; // add x^33 * (33! / 33!)\n\n    return res / 0x688589cc0e9505e2f2fee5580000000 + _x + (ONE << _precision); // divide by 33! and then add x^1 / 1! + x^0 / 0!\n  }\n\n  /**\n   * @dev computes log(x / FIXED_1) * FIXED_1\n   * Input range: FIXED_1 <= x <= OPT_LOG_MAX_VAL - 1\n   * Auto-generated via 'PrintFunctionOptimalLog.py'\n   * Detailed description:\n   * - Rewrite the input as a product of natural exponents and a single residual r, such that 1 < r < 2\n   * - The natural logarithm of each (pre-calculated) exponent is the degree of the exponent\n   * - The natural logarithm of r is calculated via Taylor series for log(1 + x), where x = r - 1\n   * - The natural logarithm of the input is calculated by summing up the intermediate results above\n   * - For example: log(250) = log(e^4 * e^1 * e^0.5 * 1.021692859) = 4 + 1 + 0.5 + log(1 + 0.021692859)\n   */\n  function optimalLog(uint256 x) internal pure returns (uint256) {\n    uint256 res = 0;\n\n    uint256 y;\n    uint256 z;\n    uint256 w;\n\n    if (x >= 0xd3094c70f034de4b96ff7d5b6f99fcd8) {\n      res += 0x40000000000000000000000000000000;\n      x = (x * FIXED_1) / 0xd3094c70f034de4b96ff7d5b6f99fcd8;\n    } // add 1 / 2^1\n    if (x >= 0xa45af1e1f40c333b3de1db4dd55f29a7) {\n      res += 0x20000000000000000000000000000000;\n      x = (x * FIXED_1) / 0xa45af1e1f40c333b3de1db4dd55f29a7;\n    } // add 1 / 2^2\n    if (x >= 0x910b022db7ae67ce76b441c27035c6a1) {\n      res += 0x10000000000000000000000000000000;\n      x = (x * FIXED_1) / 0x910b022db7ae67ce76b441c27035c6a1;\n    } // add 1 / 2^3\n    if (x >= 0x88415abbe9a76bead8d00cf112e4d4a8) {\n      res += 0x08000000000000000000000000000000;\n      x = (x * FIXED_1) / 0x88415abbe9a76bead8d00cf112e4d4a8;\n    } // add 1 / 2^4\n    if (x >= 0x84102b00893f64c705e841d5d4064bd3) {\n      res += 0x04000000000000000000000000000000;\n      x = (x * FIXED_1) / 0x84102b00893f64c705e841d5d4064bd3;\n    } // add 1 / 2^5\n    if (x >= 0x8204055aaef1c8bd5c3259f4822735a2) {\n      res += 0x02000000000000000000000000000000;\n      x = (x * FIXED_1) / 0x8204055aaef1c8bd5c3259f4822735a2;\n    } // add 1 / 2^6\n    if (x >= 0x810100ab00222d861931c15e39b44e99) {\n      res += 0x01000000000000000000000000000000;\n      x = (x * FIXED_1) / 0x810100ab00222d861931c15e39b44e99;\n    } // add 1 / 2^7\n    if (x >= 0x808040155aabbbe9451521693554f733) {\n      res += 0x00800000000000000000000000000000;\n      x = (x * FIXED_1) / 0x808040155aabbbe9451521693554f733;\n    } // add 1 / 2^8\n\n    z = y = x - FIXED_1;\n    w = (y * y) / FIXED_1;\n    res += (z * (0x100000000000000000000000000000000 - y)) / 0x100000000000000000000000000000000;\n    z = (z * w) / FIXED_1; // add y^01 / 01 - y^02 / 02\n    res += (z * (0x0aaaaaaaaaaaaaaaaaaaaaaaaaaaaaaaa - y)) / 0x200000000000000000000000000000000;\n    z = (z * w) / FIXED_1; // add y^03 / 03 - y^04 / 04\n    res += (z * (0x099999999999999999999999999999999 - y)) / 0x300000000000000000000000000000000;\n    z = (z * w) / FIXED_1; // add y^05 / 05 - y^06 / 06\n    res += (z * (0x092492492492492492492492492492492 - y)) / 0x400000000000000000000000000000000;\n    z = (z * w) / FIXED_1; // add y^07 / 07 - y^08 / 08\n    res += (z * (0x08e38e38e38e38e38e38e38e38e38e38e - y)) / 0x500000000000000000000000000000000;\n    z = (z * w) / FIXED_1; // add y^09 / 09 - y^10 / 10\n    res += (z * (0x08ba2e8ba2e8ba2e8ba2e8ba2e8ba2e8b - y)) / 0x600000000000000000000000000000000;\n    z = (z * w) / FIXED_1; // add y^11 / 11 - y^12 / 12\n    res += (z * (0x089d89d89d89d89d89d89d89d89d89d89 - y)) / 0x700000000000000000000000000000000;\n    z = (z * w) / FIXED_1; // add y^13 / 13 - y^14 / 14\n    res += (z * (0x088888888888888888888888888888888 - y)) / 0x800000000000000000000000000000000; // add y^15 / 15 - y^16 / 16\n\n    return res;\n  }\n\n  /**\n   * @dev computes e ^ (x / FIXED_1) * FIXED_1\n   * input range: 0 <= x <= OPT_EXP_MAX_VAL - 1\n   * auto-generated via 'PrintFunctionOptimalExp.py'\n   * Detailed description:\n   * - Rewrite the input as a sum of binary exponents and a single residual r, as small as possible\n   * - The exponentiation of each binary exponent is given (pre-calculated)\n   * - The exponentiation of r is calculated via Taylor series for e^x, where x = r\n   * - The exponentiation of the input is calculated by multiplying the intermediate results above\n   * - For example: e^5.521692859 = e^(4 + 1 + 0.5 + 0.021692859) = e^4 * e^1 * e^0.5 * e^0.021692859\n   */\n  function optimalExp(uint256 x) internal pure returns (uint256) {\n    uint256 res = 0;\n\n    uint256 y;\n    uint256 z;\n\n    z = y = x % 0x10000000000000000000000000000000; // get the input modulo 2^(-3)\n    z = (z * y) / FIXED_1;\n    res += z * 0x10e1b3be415a0000; // add y^02 * (20! / 02!)\n    z = (z * y) / FIXED_1;\n    res += z * 0x05a0913f6b1e0000; // add y^03 * (20! / 03!)\n    z = (z * y) / FIXED_1;\n    res += z * 0x0168244fdac78000; // add y^04 * (20! / 04!)\n    z = (z * y) / FIXED_1;\n    res += z * 0x004807432bc18000; // add y^05 * (20! / 05!)\n    z = (z * y) / FIXED_1;\n    res += z * 0x000c0135dca04000; // add y^06 * (20! / 06!)\n    z = (z * y) / FIXED_1;\n    res += z * 0x0001b707b1cdc000; // add y^07 * (20! / 07!)\n    z = (z * y) / FIXED_1;\n    res += z * 0x000036e0f639b800; // add y^08 * (20! / 08!)\n    z = (z * y) / FIXED_1;\n    res += z * 0x00000618fee9f800; // add y^09 * (20! / 09!)\n    z = (z * y) / FIXED_1;\n    res += z * 0x0000009c197dcc00; // add y^10 * (20! / 10!)\n    z = (z * y) / FIXED_1;\n    res += z * 0x0000000e30dce400; // add y^11 * (20! / 11!)\n    z = (z * y) / FIXED_1;\n    res += z * 0x000000012ebd1300; // add y^12 * (20! / 12!)\n    z = (z * y) / FIXED_1;\n    res += z * 0x0000000017499f00; // add y^13 * (20! / 13!)\n    z = (z * y) / FIXED_1;\n    res += z * 0x0000000001a9d480; // add y^14 * (20! / 14!)\n    z = (z * y) / FIXED_1;\n    res += z * 0x00000000001c6380; // add y^15 * (20! / 15!)\n    z = (z * y) / FIXED_1;\n    res += z * 0x000000000001c638; // add y^16 * (20! / 16!)\n    z = (z * y) / FIXED_1;\n    res += z * 0x0000000000001ab8; // add y^17 * (20! / 17!)\n    z = (z * y) / FIXED_1;\n    res += z * 0x000000000000017c; // add y^18 * (20! / 18!)\n    z = (z * y) / FIXED_1;\n    res += z * 0x0000000000000014; // add y^19 * (20! / 19!)\n    z = (z * y) / FIXED_1;\n    res += z * 0x0000000000000001; // add y^20 * (20! / 20!)\n    res = res / 0x21c3677c82b40000 + y + FIXED_1; // divide by 20! and then add y^1 / 1! + y^0 / 0!\n\n    if ((x & 0x010000000000000000000000000000000) != 0)\n      res = (res * 0x1c3d6a24ed82218787d624d3e5eba95f9) / 0x18ebef9eac820ae8682b9793ac6d1e776; // multiply by e^2^(-3)\n    if ((x & 0x020000000000000000000000000000000) != 0)\n      res = (res * 0x18ebef9eac820ae8682b9793ac6d1e778) / 0x1368b2fc6f9609fe7aceb46aa619baed4; // multiply by e^2^(-2)\n    if ((x & 0x040000000000000000000000000000000) != 0)\n      res = (res * 0x1368b2fc6f9609fe7aceb46aa619baed5) / 0x0bc5ab1b16779be3575bd8f0520a9f21f; // multiply by e^2^(-1)\n    if ((x & 0x080000000000000000000000000000000) != 0)\n      res = (res * 0x0bc5ab1b16779be3575bd8f0520a9f21e) / 0x0454aaa8efe072e7f6ddbab84b40a55c9; // multiply by e^2^(+0)\n    if ((x & 0x100000000000000000000000000000000) != 0)\n      res = (res * 0x0454aaa8efe072e7f6ddbab84b40a55c5) / 0x00960aadc109e7a3bf4578099615711ea; // multiply by e^2^(+1)\n    if ((x & 0x200000000000000000000000000000000) != 0)\n      res = (res * 0x00960aadc109e7a3bf4578099615711d7) / 0x0002bf84208204f5977f9a8cf01fdce3d; // multiply by e^2^(+2)\n    if ((x & 0x400000000000000000000000000000000) != 0)\n      res = (res * 0x0002bf84208204f5977f9a8cf01fdc307) / 0x0000003c6ab775dd0b95b4cbee7e65d11; // multiply by e^2^(+3)\n\n    return res;\n  }\n}\n",
  "sourcePath": "/Users/roberto/Proyectos/CopyrightLY/copyrightly/contracts/bondingcurve/BancorFormula.sol",
  "compiler": {
    "name": "solc",
    "version": "0.8.6+commit.11564f7e.Emscripten.clang"
  },
  "schemaVersion": "3.4.1",
  "updatedAt": "2021-08-29T10:19:14.178Z",
  "devdoc": {
    "kind": "dev",
    "methods": {
      "init()": {
        "details": "should be executed after construction (too large for the constructor)"
      },
      "purchaseTargetAmount(uint256,uint256,uint32,uint256)": {
        "details": "given a token supply, reserve balance, weight and a deposit amount (in the reserve token), calculates the target amount for a given conversion (in the main token) Formula: return = _supply * ((1 + _amount / _reserveBalance) ^ (_reserveWeight / 1000000) - 1)",
        "params": {
          "_amount": "amount of reserve tokens to get the target amount for",
          "_reserveBalance": "reserve balance",
          "_reserveWeight": "reserve weight, represented in ppm (1-1000000)",
          "_supply": "liquid token supply"
        },
        "returns": {
          "_0": "target"
        }
      },
      "saleTargetAmount(uint256,uint256,uint32,uint256)": {
        "details": "given a token supply, reserve balance, weight and a sell amount (in the main token), calculates the target amount for a given conversion (in the reserve token) Formula: return = _reserveBalance * (1 - (1 - _amount / _supply) ^ (1000000 / _reserveWeight))",
        "params": {
          "_amount": "amount of liquid tokens to get the target amount for",
          "_reserveBalance": "reserve balance",
          "_reserveWeight": "reserve weight, represented in ppm (1-1000000)",
          "_supply": "liquid token supply"
        },
        "returns": {
          "_0": "reserve token amount"
        }
      }
    },
    "version": 1
  },
  "userdoc": {
    "kind": "user",
    "methods": {},
    "version": 1
  }
}