{
  "contractName": "CLYToken",
  "abi": [
    {
      "inputs": [
        {
          "internalType": "uint32",
          "name": "_reserveRatio",
          "type": "uint32"
        },
        {
          "internalType": "uint32",
          "name": "_initialSlope",
          "type": "uint32"
        },
        {
          "internalType": "uint256",
          "name": "_gasPrice",
          "type": "uint256"
        }
      ],
      "stateMutability": "payable",
      "type": "constructor",
      "payable": true
    },
    {
      "anonymous": false,
      "inputs": [
        {
          "indexed": true,
          "internalType": "address",
          "name": "owner",
          "type": "address"
        },
        {
          "indexed": true,
          "internalType": "address",
          "name": "spender",
          "type": "address"
        },
        {
          "indexed": false,
          "internalType": "uint256",
          "name": "value",
          "type": "uint256"
        }
      ],
      "name": "Approval",
      "type": "event"
    },
    {
      "anonymous": false,
      "inputs": [
        {
          "indexed": false,
          "internalType": "address",
          "name": "seller",
          "type": "address"
        },
        {
          "indexed": false,
          "internalType": "uint256",
          "name": "amount",
          "type": "uint256"
        },
        {
          "indexed": false,
          "internalType": "uint256",
          "name": "earned",
          "type": "uint256"
        },
        {
          "indexed": false,
          "internalType": "address",
          "name": "stakable",
          "type": "address"
        },
        {
          "indexed": false,
          "internalType": "string",
          "name": "item",
          "type": "string"
        }
      ],
      "name": "Burned",
      "type": "event"
    },
    {
      "anonymous": false,
      "inputs": [
        {
          "indexed": false,
          "internalType": "uint256",
          "name": "supply",
          "type": "uint256"
        },
        {
          "indexed": false,
          "internalType": "uint256",
          "name": "balance",
          "type": "uint256"
        },
        {
          "indexed": false,
          "internalType": "uint256",
          "name": "amount",
          "type": "uint256"
        },
        {
          "indexed": false,
          "internalType": "uint256",
          "name": "price",
          "type": "uint256"
        }
      ],
      "name": "CurvePurchase",
      "type": "event"
    },
    {
      "anonymous": false,
      "inputs": [
        {
          "indexed": false,
          "internalType": "uint256",
          "name": "supply",
          "type": "uint256"
        },
        {
          "indexed": false,
          "internalType": "uint256",
          "name": "balance",
          "type": "uint256"
        },
        {
          "indexed": false,
          "internalType": "uint256",
          "name": "amount",
          "type": "uint256"
        },
        {
          "indexed": false,
          "internalType": "uint256",
          "name": "price",
          "type": "uint256"
        }
      ],
      "name": "CurveSale",
      "type": "event"
    },
    {
      "anonymous": false,
      "inputs": [
        {
          "indexed": false,
          "internalType": "address",
          "name": "buyer",
          "type": "address"
        },
        {
          "indexed": false,
          "internalType": "uint256",
          "name": "amount",
          "type": "uint256"
        },
        {
          "indexed": false,
          "internalType": "uint256",
          "name": "payed",
          "type": "uint256"
        },
        {
          "indexed": false,
          "internalType": "address",
          "name": "stakable",
          "type": "address"
        },
        {
          "indexed": false,
          "internalType": "string",
          "name": "item",
          "type": "string"
        }
      ],
      "name": "Minted",
      "type": "event"
    },
    {
      "anonymous": false,
      "inputs": [
        {
          "indexed": true,
          "internalType": "address",
          "name": "previousOwner",
          "type": "address"
        },
        {
          "indexed": true,
          "internalType": "address",
          "name": "newOwner",
          "type": "address"
        }
      ],
      "name": "OwnershipTransferred",
      "type": "event"
    },
    {
      "anonymous": false,
      "inputs": [
        {
          "indexed": false,
          "internalType": "address",
          "name": "account",
          "type": "address"
        }
      ],
      "name": "Paused",
      "type": "event"
    },
    {
      "anonymous": false,
      "inputs": [
        {
          "indexed": true,
          "internalType": "address",
          "name": "from",
          "type": "address"
        },
        {
          "indexed": true,
          "internalType": "address",
          "name": "to",
          "type": "address"
        },
        {
          "indexed": false,
          "internalType": "uint256",
          "name": "value",
          "type": "uint256"
        }
      ],
      "name": "Transfer",
      "type": "event"
    },
    {
      "anonymous": false,
      "inputs": [
        {
          "indexed": false,
          "internalType": "address",
          "name": "account",
          "type": "address"
        }
      ],
      "name": "Unpaused",
      "type": "event"
    },
    {
      "inputs": [
        {
          "internalType": "address",
          "name": "owner",
          "type": "address"
        },
        {
          "internalType": "address",
          "name": "spender",
          "type": "address"
        }
      ],
      "name": "allowance",
      "outputs": [
        {
          "internalType": "uint256",
          "name": "",
          "type": "uint256"
        }
      ],
      "stateMutability": "view",
      "type": "function",
      "constant": true
    },
    {
      "inputs": [
        {
          "internalType": "address",
          "name": "spender",
          "type": "address"
        },
        {
          "internalType": "uint256",
          "name": "amount",
          "type": "uint256"
        }
      ],
      "name": "approve",
      "outputs": [
        {
          "internalType": "bool",
          "name": "",
          "type": "bool"
        }
      ],
      "stateMutability": "nonpayable",
      "type": "function"
    },
    {
      "inputs": [
        {
          "internalType": "address",
          "name": "account",
          "type": "address"
        }
      ],
      "name": "balanceOf",
      "outputs": [
        {
          "internalType": "uint256",
          "name": "",
          "type": "uint256"
        }
      ],
      "stateMutability": "view",
      "type": "function",
      "constant": true
    },
    {
      "inputs": [
        {
          "internalType": "address",
          "name": "spender",
          "type": "address"
        },
        {
          "internalType": "uint256",
          "name": "subtractedValue",
          "type": "uint256"
        }
      ],
      "name": "decreaseAllowance",
      "outputs": [
        {
          "internalType": "bool",
          "name": "",
          "type": "bool"
        }
      ],
      "stateMutability": "nonpayable",
      "type": "function"
    },
    {
      "inputs": [],
      "name": "gasPrice",
      "outputs": [
        {
          "internalType": "uint256",
          "name": "",
          "type": "uint256"
        }
      ],
      "stateMutability": "view",
      "type": "function",
      "constant": true
    },
    {
      "inputs": [
        {
          "internalType": "address",
          "name": "spender",
          "type": "address"
        },
        {
          "internalType": "uint256",
          "name": "addedValue",
          "type": "uint256"
        }
      ],
      "name": "increaseAllowance",
      "outputs": [
        {
          "internalType": "bool",
          "name": "",
          "type": "bool"
        }
      ],
      "stateMutability": "nonpayable",
      "type": "function"
    },
    {
      "inputs": [
        {
          "internalType": "string",
          "name": "",
          "type": "string"
        },
        {
          "internalType": "address",
          "name": "",
          "type": "address"
        }
      ],
      "name": "individualStakes",
      "outputs": [
        {
          "internalType": "uint256",
          "name": "",
          "type": "uint256"
        }
      ],
      "stateMutability": "view",
      "type": "function",
      "constant": true
    },
    {
      "inputs": [],
      "name": "init",
      "outputs": [],
      "stateMutability": "nonpayable",
      "type": "function"
    },
    {
      "inputs": [],
      "name": "initialSlope",
      "outputs": [
        {
          "internalType": "uint32",
          "name": "",
          "type": "uint32"
        }
      ],
      "stateMutability": "view",
      "type": "function",
      "constant": true
    },
    {
      "inputs": [],
      "name": "name",
      "outputs": [
        {
          "internalType": "string",
          "name": "",
          "type": "string"
        }
      ],
      "stateMutability": "view",
      "type": "function",
      "constant": true
    },
    {
      "inputs": [],
      "name": "owner",
      "outputs": [
        {
          "internalType": "address",
          "name": "",
          "type": "address"
        }
      ],
      "stateMutability": "view",
      "type": "function",
      "constant": true
    },
    {
      "inputs": [],
      "name": "paused",
      "outputs": [
        {
          "internalType": "bool",
          "name": "",
          "type": "bool"
        }
      ],
      "stateMutability": "view",
      "type": "function",
      "constant": true
    },
    {
      "inputs": [],
      "name": "poolBalance",
      "outputs": [
        {
          "internalType": "uint256",
          "name": "",
          "type": "uint256"
        }
      ],
      "stateMutability": "view",
      "type": "function",
      "constant": true
    },
    {
      "inputs": [
        {
          "internalType": "uint256",
          "name": "_supply",
          "type": "uint256"
        },
        {
          "internalType": "uint256",
          "name": "_reserveBalance",
          "type": "uint256"
        },
        {
          "internalType": "uint32",
          "name": "_reserveWeight",
          "type": "uint32"
        },
        {
          "internalType": "uint256",
          "name": "_amount",
          "type": "uint256"
        }
      ],
      "name": "purchaseTargetAmount",
      "outputs": [
        {
          "internalType": "uint256",
          "name": "",
          "type": "uint256"
        }
      ],
      "stateMutability": "view",
      "type": "function",
      "constant": true
    },
    {
      "inputs": [],
      "name": "renounceOwnership",
      "outputs": [],
      "stateMutability": "nonpayable",
      "type": "function"
    },
    {
      "inputs": [],
      "name": "reserveRatio",
      "outputs": [
        {
          "internalType": "uint32",
          "name": "",
          "type": "uint32"
        }
      ],
      "stateMutability": "view",
      "type": "function",
      "constant": true
    },
    {
      "inputs": [
        {
          "internalType": "uint256",
          "name": "_supply",
          "type": "uint256"
        },
        {
          "internalType": "uint256",
          "name": "_reserveBalance",
          "type": "uint256"
        },
        {
          "internalType": "uint32",
          "name": "_reserveWeight",
          "type": "uint32"
        },
        {
          "internalType": "uint256",
          "name": "_amount",
          "type": "uint256"
        }
      ],
      "name": "saleTargetAmount",
      "outputs": [
        {
          "internalType": "uint256",
          "name": "",
          "type": "uint256"
        }
      ],
      "stateMutability": "view",
      "type": "function",
      "constant": true
    },
    {
      "inputs": [],
      "name": "symbol",
      "outputs": [
        {
          "internalType": "string",
          "name": "",
          "type": "string"
        }
      ],
      "stateMutability": "view",
      "type": "function",
      "constant": true
    },
    {
      "inputs": [],
      "name": "totalSupply",
      "outputs": [
        {
          "internalType": "uint256",
          "name": "",
          "type": "uint256"
        }
      ],
      "stateMutability": "view",
      "type": "function",
      "constant": true
    },
    {
      "inputs": [
        {
          "internalType": "address",
          "name": "newOwner",
          "type": "address"
        }
      ],
      "name": "transferOwnership",
      "outputs": [],
      "stateMutability": "nonpayable",
      "type": "function"
    },
    {
      "inputs": [],
      "name": "decimals",
      "outputs": [
        {
          "internalType": "uint8",
          "name": "",
          "type": "uint8"
        }
      ],
      "stateMutability": "view",
      "type": "function",
      "constant": true
    },
    {
      "inputs": [
        {
          "internalType": "uint256",
          "name": "amount",
          "type": "uint256"
        }
      ],
      "name": "getMintPrice",
      "outputs": [
        {
          "internalType": "uint256",
          "name": "",
          "type": "uint256"
        }
      ],
      "stateMutability": "view",
      "type": "function",
      "constant": true
    },
    {
      "inputs": [
        {
          "internalType": "uint256",
          "name": "amount",
          "type": "uint256"
        },
        {
          "internalType": "uint256",
          "name": "maxPrice",
          "type": "uint256"
        },
        {
          "internalType": "address",
          "name": "stakable",
          "type": "address"
        },
        {
          "internalType": "string",
          "name": "item",
          "type": "string"
        }
      ],
      "name": "mint",
      "outputs": [
        {
          "internalType": "uint256",
          "name": "",
          "type": "uint256"
        }
      ],
      "stateMutability": "payable",
      "type": "function",
      "payable": true
    },
    {
      "inputs": [
        {
          "internalType": "uint256",
          "name": "amount",
          "type": "uint256"
        }
      ],
      "name": "getBurnPrice",
      "outputs": [
        {
          "internalType": "uint256",
          "name": "",
          "type": "uint256"
        }
      ],
      "stateMutability": "view",
      "type": "function",
      "constant": true
    },
    {
      "inputs": [
        {
          "internalType": "uint256",
          "name": "amount",
          "type": "uint256"
        },
        {
          "internalType": "address",
          "name": "stakable",
          "type": "address"
        },
        {
          "internalType": "string",
          "name": "item",
          "type": "string"
        }
      ],
      "name": "burn",
      "outputs": [
        {
          "internalType": "uint256",
          "name": "",
          "type": "uint256"
        }
      ],
      "stateMutability": "nonpayable",
      "type": "function"
    },
    {
      "inputs": [
        {
          "internalType": "address",
          "name": "",
          "type": "address"
        },
        {
          "internalType": "uint256",
          "name": "",
          "type": "uint256"
        }
      ],
      "name": "transfer",
      "outputs": [
        {
          "internalType": "bool",
          "name": "",
          "type": "bool"
        }
      ],
      "stateMutability": "pure",
      "type": "function",
      "constant": true
    },
    {
      "inputs": [
        {
          "internalType": "address",
          "name": "",
          "type": "address"
        },
        {
          "internalType": "address",
          "name": "",
          "type": "address"
        },
        {
          "internalType": "uint256",
          "name": "",
          "type": "uint256"
        }
      ],
      "name": "transferFrom",
      "outputs": [
        {
          "internalType": "bool",
          "name": "",
          "type": "bool"
        }
      ],
      "stateMutability": "pure",
      "type": "function",
      "constant": true
    },
    {
      "inputs": [
        {
          "internalType": "string",
          "name": "item",
          "type": "string"
        },
        {
          "internalType": "address",
          "name": "staker",
          "type": "address"
        }
      ],
      "name": "getIndividualStake",
      "outputs": [
        {
          "internalType": "uint256",
          "name": "",
          "type": "uint256"
        }
      ],
      "stateMutability": "view",
      "type": "function",
      "constant": true
    },
    {
      "inputs": [
        {
          "internalType": "uint256",
          "name": "_gasPrice",
          "type": "uint256"
        }
      ],
      "name": "setGasPrice",
      "outputs": [],
      "stateMutability": "nonpayable",
      "type": "function"
    },
    {
      "inputs": [
        {
          "internalType": "uint32",
          "name": "_reserveRatio",
          "type": "uint32"
        }
      ],
      "name": "setReserveRatio",
      "outputs": [],
      "stateMutability": "nonpayable",
      "type": "function"
    },
    {
      "inputs": [],
      "name": "pause",
      "outputs": [],
      "stateMutability": "nonpayable",
      "type": "function"
    },
    {
      "inputs": [],
      "name": "unpause",
      "outputs": [],
      "stateMutability": "nonpayable",
      "type": "function"
    }
  ],
  "bytecode": "0x608060405260405162003f8438038062003f8483398101604081905262000026916200023e565b6040518060400160405280601181526020017021b7b83cb934b3b43a262c902a37b5b2b760791b81525060405180604001604052806003815260200162434c5960e81b8152508160039080519060200190620000849291906200017e565b5080516200009a9060049060208401906200017e565b5050608580546001600160a81b0319163361010081029190911790915560405190915081906000907f8be0079c531659141344cd1fd0a4f28419497f9722a3daafe3b4186f6b6457e0908290a3508263ffffffff16620f4240811115620001475760405162461bcd60e51b815260206004820152601460248201527f56616c7565206d75737420626520696e2050504d000000000000000000000000604482015260640160405180910390fd5b506087805463ffffffff938416640100000000026001600160401b03199091169390941692909217929092179055608855620002bc565b8280546200018c906200027f565b90600052602060002090601f016020900481019282620001b05760008555620001fb565b82601f10620001cb57805160ff1916838001178555620001fb565b82800160010185558215620001fb579182015b82811115620001fb578251825591602001919060010190620001de565b50620002099291506200020d565b5090565b5b808211156200020957600081556001016200020e565b805163ffffffff811681146200023957600080fd5b919050565b6000806000606084860312156200025457600080fd5b6200025f8462000224565b92506200026f6020850162000224565b9150604084015190509250925092565b600181811c908216806200029457607f821691505b60208210811415620002b657634e487b7160e01b600052602260045260246000fd5b50919050565b613cb880620002cc6000396000f3fe6080604052600436106101e35760003560e01c806376cf0b5611610102578063be91f33911610095578063e1c7392a11610064578063e1c7392a146105c1578063f2fde38b146105d6578063f3250fe2146105f6578063fe173b971461061657600080fd5b8063be91f3391461051b578063bf1fe4201461053b578063c307ecad1461055b578063dd62ed3e1461057b57600080fd5b806396365d44116100d157806396365d44146104b7578063a382a4d9146104cd578063a457c2d7146104e0578063a9059cbb1461050057600080fd5b806376cf0b56146104375780638456cb59146104575780638da5cb5b1461046c57806395d89b41146104a257600080fd5b80633f4ba83a1161017a578063622fe9c311610149578063622fe9c3146103a757806370a08231146103c7578063715018a6146103fd578063747f7d1b1461041257600080fd5b80633f4ba83a146103105780634902bfd914610327578063559e775b1461036f5780635c975abb1461038f57600080fd5b806323b872dd116101b657806323b872dd14610294578063313ce567146102b4578063346fd5dd146102d057806339509351146102f057600080fd5b806306fdde03146101e8578063095ea7b3146102135780630c7d5cd81461024357806318160ddd14610275575b600080fd5b3480156101f457600080fd5b506101fd61062c565b60405161020a91906139dc565b60405180910390f35b34801561021f57600080fd5b5061023361022e3660046137b7565b6106be565b604051901515815260200161020a565b34801561024f57600080fd5b506087546102609063ffffffff1681565b60405163ffffffff909116815260200161020a565b34801561028157600080fd5b506002545b60405190815260200161020a565b3480156102a057600080fd5b506102336102af36600461377b565b6106d4565b3480156102c057600080fd5b506040516010815260200161020a565b3480156102dc57600080fd5b506102866102eb366004613826565b610724565b3480156102fc57600080fd5b5061023361030b3660046137b7565b610769565b34801561031c57600080fd5b506103256107a5565b005b34801561033357600080fd5b506102866103423660046137e1565b81516020818401810180516089825292820194820194909420919093529091526000908152604090205481565b34801561037b57600080fd5b5061028661038a366004613826565b6107df565b34801561039b57600080fd5b5060855460ff16610233565b3480156103b357600080fd5b506102866103c236600461383f565b610853565b3480156103d357600080fd5b506102866103e236600461372d565b6001600160a01b031660009081526020819052604090205490565b34801561040957600080fd5b50610325610b05565b34801561041e57600080fd5b5060875461026090640100000000900463ffffffff1681565b34801561044357600080fd5b506102866104523660046138f7565b610b85565b34801561046357600080fd5b50610325610d72565b34801561047857600080fd5b5060855461010090046001600160a01b03166040516001600160a01b03909116815260200161020a565b3480156104ae57600080fd5b506101fd610daa565b3480156104c357600080fd5b5061028660865481565b6102866104db366004613896565b610db9565b3480156104ec57600080fd5b506102336104fb3660046137b7565b6110ae565b34801561050c57600080fd5b506102336102af3660046137b7565b34801561052757600080fd5b506102866105363660046137e1565b611149565b34801561054757600080fd5b50610325610556366004613826565b61118a565b34801561056757600080fd5b50610325610576366004613934565b611221565b34801561058757600080fd5b50610286610596366004613748565b6001600160a01b03918216600090815260016020908152604080832093909416825291909152205490565b3480156105cd57600080fd5b506103256112bf565b3480156105e257600080fd5b506103256105f136600461372d565b611a94565b34801561060257600080fd5b506102866106113660046138f7565b611b90565b34801561062257600080fd5b5061028660885481565b60606003805461063b90613bc5565b80601f016020809104026020016040519081016040528092919081815260200182805461066790613bc5565b80156106b45780601f10610689576101008083540402835291602001916106b4565b820191906000526020600020905b81548152906001019060200180831161069757829003601f168201915b5050505050905090565b60006106cb338484611d09565b50600192915050565b60405162461bcd60e51b815260206004820152601d60248201527f434c5920546f6b656e206973206e6f74207472616e7366657261626c6500000060448201526000906064015b60405180910390fd5b60008082116107455760405162461bcd60e51b815260040161071b90613a19565b61076361075160025490565b60865460875463ffffffff1685610b85565b92915050565b3360008181526001602090815260408083206001600160a01b038716845290915281205490916106cb9185906107a0908690613aac565b611d09565b6085546001600160a01b036101009091041633146107d55760405162461bcd60e51b815260040161071b90613a5e565b6107dd611e2e565b565b60008082116108005760405162461bcd60e51b815260040161071b90613a19565b60875460009061082390849063ffffffff640100000000909104811690611ec116565b608654909150156107635761084c61083a60025490565b60865460875463ffffffff1686611b90565b9392505050565b60006088543a111561086757610867613c14565b60855460ff161561088a5760405162461bcd60e51b815260040161071b906139ef565b828285826001600160a01b03166329cf9629836040518263ffffffff1660e01b81526004016108b991906139dc565b600060405180830381600087803b1580156108d357600080fd5b505af11580156108e7573d6000803e3d6000fd5b50505050806089836040516108fc919061397b565b9081526040805160209281900383019020336000908152925290205410156109725760405162461bcd60e51b815260206004820152602360248201527f486f6c646572206861736e277420656e6f75676820434c5920746f20756e7374604482015262616b6560e81b606482015260840161071b565b600061097d88610724565b90507f231e60a983fba14dd96306945b700db49fcedb6958328bfbe8e73ff32129561a6109a960025490565b60865460408051928352602083019190915281018a90526060810183905260800160405180910390a1604051339082156108fc029083906000818181858888f193505050501580156109ff573d6000803e3d6000fd5b50608654610a0d9082611ecd565b608655610a1a3389611ed9565b87608987604051610a2b919061397b565b9081526040805160209281900383019020336000908152925281208054909190610a56908490613b3e565b90915550506040516303f923ab60e31b81526001600160a01b03881690631fc91d5890610a89908b908a90600401613a93565b600060405180830381600087803b158015610aa357600080fd5b505af1158015610ab7573d6000803e3d6000fd5b505050507f764221d19cfb3ed3423e901d01e4c4d5e04cddd40bdc5c640fa0bd1c9267627e3389838a8a604051610af2959493929190613997565b60405180910390a1979650505050505050565b6085546001600160a01b03610100909104163314610b355760405162461bcd60e51b815260040161071b90613a5e565b60855460405160009161010090046001600160a01b0316907f8be0079c531659141344cd1fd0a4f28419497f9722a3daafe3b4186f6b6457e0908390a360858054610100600160a81b0319169055565b6000808511610bcb5760405162461bcd60e51b81526020600482015260126024820152714552525f494e56414c49445f535550504c5960701b604482015260640161071b565b60008411610c1b5760405162461bcd60e51b815260206004820152601b60248201527f4552525f494e56414c49445f524553455256455f42414c414e43450000000000604482015260640161071b565b60008363ffffffff16118015610c3a5750620f424063ffffffff841611155b610c865760405162461bcd60e51b815260206004820152601a60248201527f4552525f494e56414c49445f524553455256455f574549474854000000000000604482015260640161071b565b84821115610ccb5760405162461bcd60e51b815260206004820152601260248201527111549497d253959053125117d05353d5539560721b604482015260640161071b565b81610cd857506000610d6a565b84821415610ce7575082610d6a565b63ffffffff8316620f42401415610d145784610d038584611ec1565b610d0d9190613ae9565b9050610d6a565b60008080610d228589613b3e565b9050610d338882620f424089612028565b90935091506000610d448885611ec1565b905060ff831688901b84610d588284613b3e565b610d629190613ae9565b955050505050505b949350505050565b6085546001600160a01b03610100909104163314610da25760405162461bcd60e51b815260040161071b90613a5e565b6107dd612115565b60606004805461063b90613bc5565b60006088543a1115610dcd57610dcd613c14565b60855460ff1615610df05760405162461bcd60e51b815260040161071b906139ef565b8315801590610dfe57508334145b610e4a5760405162461bcd60e51b815260206004820152601a60248201527f496e636f72726563742045746865722076616c75652073656e74000000000000604482015260640161071b565b6040516329cf962960e01b81526001600160a01b038416906329cf962990610e769085906004016139dc565b600060405180830381600087803b158015610e9057600080fd5b505af1158015610ea4573d6000803e3d6000fd5b505050506000610eb3866107df565b905084811115610f145760405162461bcd60e51b815260206004820152602660248201527f43757272656e742070726963652065786365656473206d6178696d756d2070726044820152651bdd9a59195960d21b606482015260840161071b565b7ff40778c4bfab4d74c48d6fde99fc0d3197ef65c2a88f7f4b63fb30c76577d77e610f3e60025490565b60865460408051928352602083019190915281018890526060810183905260800160405180910390a16000610f738683611ecd565b90508015610faa57604051339082156108fc029083906000818181858888f19350505050158015610fa8573d6000803e3d6000fd5b505b608654610fb7908361216d565b608655610fc43388612179565b86608985604051610fd5919061397b565b9081526040805160209281900383019020336000908152925281208054909190611000908490613aac565b909155505060405163b288b06760e01b81526001600160a01b0386169063b288b06790611033908a908890600401613a93565b600060405180830381600087803b15801561104d57600080fd5b505af1158015611061573d6000803e3d6000fd5b505050507f89cf7752d6e071e39de98da14f42c62aa3fff2a7811ccf5cd6d055162fb8989f338884888860405161109c959493929190613997565b60405180910390a15095945050505050565b3360009081526001602090815260408083206001600160a01b0386168452909152812054828110156111305760405162461bcd60e51b815260206004820152602560248201527f45524332303a2064656372656173656420616c6c6f77616e63652062656c6f77604482015264207a65726f60d81b606482015260840161071b565b61113f33856107a08685613b3e565b5060019392505050565b600060898360405161115b919061397b565b908152604080519182900360209081019092206001600160a01b03851660009081529252902054905092915050565b6085546001600160a01b036101009091041633146111ba5760405162461bcd60e51b815260040161071b90613a5e565b6000811161121c5760405162461bcd60e51b815260206004820152602960248201527f4d6178696d756d206761732070726963652073686f756c64206265206269676760448201526806572207468616e20360bc1b606482015260840161071b565b608855565b6085546001600160a01b036101009091041633146112515760405162461bcd60e51b815260040161071b90613a5e565b8063ffffffff16620f42408111156112a25760405162461bcd60e51b815260206004820152601460248201527356616c7565206d75737420626520696e2050504d60601b604482015260640161071b565b506087805463ffffffff191663ffffffff92909216919091179055565b6107dd701c35fedd14ffffffffffffffffffffffff602555701b0ce43b323fffffffffffffffffffffff6026557019f0028ec1ffffffffffffffffffffffff6027557018ded91f0e7fffffffffffffffffffffff6028557017d8ec7f0417ffffffffffffffffffffff6029557016ddc6556cdbffffffffffffffffffffff602a557015ecf52776a1ffffffffffffffffffffff602b557015060c256cb2ffffffffffffffffffffff602c55701428a2f98d72ffffffffffffffffffffff602d557013545598e5c23fffffffffffffffffffff602e55701288c4161ce1dfffffffffffffffffffff602f557011c592761c666fffffffffffffffffffff60305570110a688680a757ffffffffffffffffffff603155701056f1b5bedf77ffffffffffffffffffff603255700faadceceeff8bffffffffffffffffffff603355700f05dc6b27edadffffffffffffffffffff603455700e67a5a25da4107fffffffffffffffffff603555700dcff115b14eedffffffffffffffffffff603655700d3e7a392431239fffffffffffffffffff603755700cb2ff529eb71e4fffffffffffffffffff603855700c2d415c3db974afffffffffffffffffff603955700bad03e7d883f69bffffffffffffffffff603a55700b320d03b2c343d5ffffffffffffffffff603b55700abc25204e02828dffffffffffffffffff603c55700a4b16f74ee4bb207fffffffffffffffff603d557009deaf736ac1f569ffffffffffffffffff603e55700976bd9952c7aa957fffffffffffffffff603f557009131271922eaa606fffffffffffffffff6040557008b380f3558668c46fffffffffffffffff604155700857ddf0117efa215bffffffffffffffff6042557007ffffffffffffffffffffffffffffffff6043557007abbf6f6abb9d087fffffffffffffffff60445570075af62cbac95f7dfa7fffffffffffffff60455570070d7fb7452e187ac13fffffffffffffff6046557006c3390ecc8af379295fffffffffffffff60475570067c00a3b07ffc01fd6fffffffffffffff604855700637b647c39cbb9d3d27ffffffffffffff6049557005f63b1fc104dbd39587ffffffffffffff604a557005b771955b36e12f7235ffffffffffffff604b5570057b3d49dda84556d6f6ffffffffffffff604c5570054183095b2c8ececf30ffffffffffffff604d5570050a28be635ca2b888f77fffffffffffff604e557004d5156639708c9db33c3fffffffffffff604f557004a23105873875bd52dfdfffffffffffff605055700471649d87199aa990756fffffffffffff6051557004429a21a029d4c1457cfbffffffffffff605255700415bc6d6fb7dd71af2cb3ffffffffffff6053557003eab73b3bbfe282243ce1ffffffffffff6054557003c1771ac9fb6b4c18e229ffffffffffff605555700399e96897690418f785257fffffffffff605655700373fc456c53bb779bf0ea9fffffffffff60575570034f9e8e490c48e67e6ab8bfffffffffff60585570032cbfd4a7adc790560b3337ffffffffff60595570030b50570f6e5d2acca94613ffffffffff605a557002eb40f9f620fda6b56c2861ffffffffff605b557002cc8340ecb0d0f520a6af58ffffffffff605c557002af09481380a0a35cf1ba02ffffffffff605d55700292c5bdd3b92ec810287b1b3fffffffff605e55700277abdcdab07d5a77ac6d6b9fffffffff605f5570025daf6654b1eaa55fd64df5efffffffff606055700244c49c648baa98192dce88b7ffffffff60615570022ce03cd5619a311b2471268bffffffff606255700215f77c045fbe885654a44a0fffffffff6063557001ffffffffffffffffffffffffffffffff6064557001eaefdbdaaee7421fc4d3ede5ffffffff6065557001d6bd8b2eb257df7e8ca57b09bfffffff6066557001c35fedd14b861eb0443f7f133fffffff6067557001b0ce43b322bcde4a56e8ada5afffffff60685570019f0028ec1fff007f5a195a39dfffffff60695570018ded91f0e72ee74f49b15ba527ffffff606a5570017d8ec7f04136f4e5615fd41a63ffffff606b5570016ddc6556cdb84bdc8d12d22e6fffffff606c5570015ecf52776a1155b5bd8395814f7fffff606d5570015060c256cb23b3b3cc3754cf40ffffff606e557001428a2f98d728ae223ddab715be3fffff606f5570013545598e5c23276ccf0ede68034fffff6070557001288c4161ce1d6f54b7f61081194fffff60715570011c592761c666aa641d5a01a40f17ffff607255700110a688680a7530515f3e6e6cfdcdffff6073557001056f1b5bedf75c6bcb2ce8aed428ffff6074556ffaadceceeff8a0890f3875f008277fff6075556ff05dc6b27edad306388a600f6ba0bfff6076556fe67a5a25da41063de1495d5b18cdbfff6077556fdcff115b14eedde6fc3aa5353f2e4fff6078556fd3e7a3924312399f9aae2e0f868f8fff6079556fcb2ff529eb71e41582cccd5a1ee26fff607a556fc2d415c3db974ab32a51840c0b67edff607b556fbad03e7d883f69ad5b0a186184e06bff607c556fb320d03b2c343d4829abd6075f0cc5ff607d556fabc25204e02828d73c6e80bcdb1a95bf607e556fa4b16f74ee4bb2040a1ec6c15fbbf2df607f556f9deaf736ac1f569deb1b5ae3f36c130f6080556f976bd9952c7aa957f5937d790ef650376081556f9131271922eaa6064b73a22d0bd4f2bf6082556f8b380f3558668c46c91c49a2f8e967b96083556f857ddf0117efa215952912839f6473e6608455565b6085546001600160a01b03610100909104163314611ac45760405162461bcd60e51b815260040161071b90613a5e565b6001600160a01b038116611b295760405162461bcd60e51b815260206004820152602660248201527f4f776e61626c653a206e6577206f776e657220697320746865207a65726f206160448201526564647265737360d01b606482015260840161071b565b6085546040516001600160a01b0380841692610100900416907f8be0079c531659141344cd1fd0a4f28419497f9722a3daafe3b4186f6b6457e090600090a3608580546001600160a01b0390921661010002610100600160a81b0319909216919091179055565b6000808511611bd65760405162461bcd60e51b81526020600482015260126024820152714552525f494e56414c49445f535550504c5960701b604482015260640161071b565b60008411611c265760405162461bcd60e51b815260206004820152601b60248201527f4552525f494e56414c49445f524553455256455f42414c414e43450000000000604482015260640161071b565b60008363ffffffff16118015611c455750620f424063ffffffff841611155b611c915760405162461bcd60e51b815260206004820152601a60248201527f4552525f494e56414c49445f524553455256455f574549474854000000000000604482015260640161071b565b81611c9e57506000610d6a565b63ffffffff8316620f42401415611cba5783610d038684611ec1565b60008080611cc8858861216d565b9050611cd9818888620f4240612028565b9093509150600060ff8316611cee8a86611ec1565b901c9050611cfc8982613b3e565b9998505050505050505050565b6001600160a01b038316611d6b5760405162461bcd60e51b8152602060048201526024808201527f45524332303a20617070726f76652066726f6d20746865207a65726f206164646044820152637265737360e01b606482015260840161071b565b6001600160a01b038216611dcc5760405162461bcd60e51b815260206004820152602260248201527f45524332303a20617070726f766520746f20746865207a65726f206164647265604482015261737360f01b606482015260840161071b565b6001600160a01b0383811660008181526001602090815260408083209487168084529482529182902085905590518481527f8c5be1e5ebec7d5bd14f71427d1e84f3dd0314c0f7b2291e5b200ac8c7c3b92591015b60405180910390a3505050565b60855460ff16611e775760405162461bcd60e51b815260206004820152601460248201527314185d5cd8589b194e881b9bdd081c185d5cd95960621b604482015260640161071b565b6085805460ff191690557f5db9ee0a495bf2e6ff9c91a7834c1ba4fdd244a5e8aa4e537bd38aeae4b073aa335b6040516001600160a01b03909116815260200160405180910390a1565b600061084c8284613b1f565b600061084c8284613b3e565b6001600160a01b038216611f395760405162461bcd60e51b815260206004820152602160248201527f45524332303a206275726e2066726f6d20746865207a65726f206164647265736044820152607360f81b606482015260840161071b565b6001600160a01b03821660009081526020819052604090205481811015611fad5760405162461bcd60e51b815260206004820152602260248201527f45524332303a206275726e20616d6f756e7420657863656564732062616c616e604482015261636560f01b606482015260840161071b565b611fb78282613b3e565b6001600160a01b03841660009081526020819052604081209190915560028054849290611fe5908490613b3e565b90915550506040518281526000906001600160a01b038516907fddf252ad1be2c89b69c2b068fc378daa952ba7f163c4a11628f55a4df523b3ef90602001611e21565b600080600160811b861061203b57600080fd5b6000808661204d6001607f1b8a613b1f565b6120579190613ae9565b905070015bf0a8b1457695355fb8ac404e7a79e38110156120825761207b81612258565b915061208e565b61208b816127d1565b91505b60008563ffffffff168763ffffffff16846120a99190613b1f565b6120b39190613ae9565b9050600160831b8110156120d8576120ca816128bf565b607f9450945050505061210c565b60006120e382612eea565b90506120ff6120f382607f613b55565b60ff1683901c82612f9d565b9550935061210c92505050565b94509492505050565b60855460ff16156121385760405162461bcd60e51b815260040161071b906139ef565b6085805460ff191660011790557f62e78cea01bee320cd4e420270b5ea74000d11b0c9f74754ebdbfc544b05a258611ea43390565b600061084c8284613aac565b6001600160a01b0382166121cf5760405162461bcd60e51b815260206004820152601f60248201527f45524332303a206d696e7420746f20746865207a65726f206164647265737300604482015260640161071b565b80600260008282546121e19190613aac565b90915550506001600160a01b0382166000908152602081905260408120805483929061220e908490613aac565b90915550506040518181526001600160a01b038316906000907fddf252ad1be2c89b69c2b068fc378daa952ba7f163c4a11628f55a4df523b3ef9060200160405180910390a35050565b6000808080806fd3094c70f034de4b96ff7d5b6f99fcd886106122b1576122836001607e1b85613aac565b93506fd3094c70f034de4b96ff7d5b6f99fcd86122a46001607f1b88613b1f565b6122ae9190613ae9565b95505b6fa45af1e1f40c333b3de1db4dd55f29a78610612304576122d66001607d1b85613aac565b93506fa45af1e1f40c333b3de1db4dd55f29a76122f76001607f1b88613b1f565b6123019190613ae9565b95505b6f910b022db7ae67ce76b441c27035c6a18610612357576123296001607c1b85613aac565b93506f910b022db7ae67ce76b441c27035c6a161234a6001607f1b88613b1f565b6123549190613ae9565b95505b6f88415abbe9a76bead8d00cf112e4d4a886106123aa5761237c6001607b1b85613aac565b93506f88415abbe9a76bead8d00cf112e4d4a861239d6001607f1b88613b1f565b6123a79190613ae9565b95505b6f84102b00893f64c705e841d5d4064bd386106123fd576123cf6001607a1b85613aac565b93506f84102b00893f64c705e841d5d4064bd36123f06001607f1b88613b1f565b6123fa9190613ae9565b95505b6f8204055aaef1c8bd5c3259f4822735a2861061245057612422600160791b85613aac565b93506f8204055aaef1c8bd5c3259f4822735a26124436001607f1b88613b1f565b61244d9190613ae9565b95505b6f810100ab00222d861931c15e39b44e9986106124a357612475600160781b85613aac565b93506f810100ab00222d861931c15e39b44e996124966001607f1b88613b1f565b6124a09190613ae9565b95505b6f808040155aabbbe9451521693554f73386106124f6576124c8600160771b85613aac565b93506f808040155aabbbe9451521693554f7336124e96001607f1b88613b1f565b6124f39190613ae9565b95505b6125046001607f1b87613b3e565b92508291506001607f1b6125188380613b1f565b6125229190613ae9565b9050600160801b6125338482613b3e565b61253d9084613b1f565b6125479190613ae9565b6125519085613aac565b93506001607f1b6125628284613b1f565b61256c9190613ae9565b9150600160811b61258d846faaaaaaaaaaaaaaaaaaaaaaaaaaaaaaaa613b3e565b6125979084613b1f565b6125a19190613ae9565b6125ab9085613aac565b93506001607f1b6125bc8284613b1f565b6125c69190613ae9565b9150600360801b6125e7846f99999999999999999999999999999999613b3e565b6125f19084613b1f565b6125fb9190613ae9565b6126059085613aac565b93506001607f1b6126168284613b1f565b6126209190613ae9565b9150600160821b612641846f92492492492492492492492492492492613b3e565b61264b9084613b1f565b6126559190613ae9565b61265f9085613aac565b93506001607f1b6126708284613b1f565b61267a9190613ae9565b9150600560801b61269b846f8e38e38e38e38e38e38e38e38e38e38e613b3e565b6126a59084613b1f565b6126af9190613ae9565b6126b99085613aac565b93506001607f1b6126ca8284613b1f565b6126d49190613ae9565b9150600360811b6126f5846f8ba2e8ba2e8ba2e8ba2e8ba2e8ba2e8b613b3e565b6126ff9084613b1f565b6127099190613ae9565b6127139085613aac565b93506001607f1b6127248284613b1f565b61272e9190613ae9565b9150600760801b61274f846f89d89d89d89d89d89d89d89d89d89d89613b3e565b6127599084613b1f565b6127639190613ae9565b61276d9085613aac565b93506001607f1b61277e8284613b1f565b6127889190613ae9565b9150600160831b6127a9846f88888888888888888888888888888888613b3e565b6127b39084613b1f565b6127bd9190613ae9565b6127c79085613aac565b9695505050505050565b600080600160801b83106128155760006127f76127f26001607f1b86613ae9565b613604565b60ff811694851c94909150612811906001607f1b90613b1f565b9150505b6001607f1b83111561288a57607f5b60ff811615612888576001607f1b61283c8580613b1f565b6128469190613ae9565b9350600160801b841061287857600193841c936128639082613b55565b60ff166001901b826128759190613aac565b91505b61288181613ba8565b9050612824565b505b6f05b9de1d10bf4103d647b0955897ba806128b56f03f80fe03f80fe03f80fe03f80fe03f883613b1f565b61084c9190613ae9565b60008080806128d26001607c1b86613c00565b91508190506001607f1b6128e68280613b1f565b6128f09190613ae9565b9050612904816710e1b3be415a0000613b1f565b61290e9084613aac565b92506001607f1b61291f8383613b1f565b6129299190613ae9565b905061293d816705a0913f6b1e0000613b1f565b6129479084613aac565b92506001607f1b6129588383613b1f565b6129629190613ae9565b905061297681670168244fdac78000613b1f565b6129809084613aac565b92506001607f1b6129918383613b1f565b61299b9190613ae9565b90506129ae81664807432bc18000613b1f565b6129b89084613aac565b92506001607f1b6129c98383613b1f565b6129d39190613ae9565b90506129e681660c0135dca04000613b1f565b6129f09084613aac565b92506001607f1b612a018383613b1f565b612a0b9190613ae9565b9050612a1e816601b707b1cdc000613b1f565b612a289084613aac565b92506001607f1b612a398383613b1f565b612a439190613ae9565b9050612a55816536e0f639b800613b1f565b612a5f9084613aac565b92506001607f1b612a708383613b1f565b612a7a9190613ae9565b9050612a8c81650618fee9f800613b1f565b612a969084613aac565b92506001607f1b612aa78383613b1f565b612ab19190613ae9565b9050612ac281649c197dcc00613b1f565b612acc9084613aac565b92506001607f1b612add8383613b1f565b612ae79190613ae9565b9050612af881640e30dce400613b1f565b612b029084613aac565b92506001607f1b612b138383613b1f565b612b1d9190613ae9565b9050612b2e8164012ebd1300613b1f565b612b389084613aac565b92506001607f1b612b498383613b1f565b612b539190613ae9565b9050612b63816317499f00613b1f565b612b6d9084613aac565b92506001607f1b612b7e8383613b1f565b612b889190613ae9565b9050612b98816301a9d480613b1f565b612ba29084613aac565b92506001607f1b612bb38383613b1f565b612bbd9190613ae9565b9050612bcc81621c6380613b1f565b612bd69084613aac565b92506001607f1b612be78383613b1f565b612bf19190613ae9565b9050612c00816201c638613b1f565b612c0a9084613aac565b92506001607f1b612c1b8383613b1f565b612c259190613ae9565b9050612c3381611ab8613b1f565b612c3d9084613aac565b92506001607f1b612c4e8383613b1f565b612c589190613ae9565b9050612c668161017c613b1f565b612c709084613aac565b92506001607f1b612c818383613b1f565b612c8b9190613ae9565b9050612c98816014613b1f565b612ca29084613aac565b92506001607f1b612cb38383613b1f565b612cbd9190613ae9565b9050612cca816001613b1f565b612cd49084613aac565b92506001607f1b82612cee6721c3677c82b4000086613ae9565b612cf89190613aac565b612d029190613aac565b92506001607c1b851615612d4a5770018ebef9eac820ae8682b9793ac6d1e776612d3d847001c3d6a24ed82218787d624d3e5eba95f9613b1f565b612d479190613ae9565b92505b6001607d1b851615612d90577001368b2fc6f9609fe7aceb46aa619baed4612d838470018ebef9eac820ae8682b9793ac6d1e778613b1f565b612d8d9190613ae9565b92505b6001607e1b851615612dd5576fbc5ab1b16779be3575bd8f0520a9f21f612dc8847001368b2fc6f9609fe7aceb46aa619baed5613b1f565b612dd29190613ae9565b92505b6001607f1b851615612e19576f454aaa8efe072e7f6ddbab84b40a55c9612e0c846fbc5ab1b16779be3575bd8f0520a9f21e613b1f565b612e169190613ae9565b92505b600160801b851615612e5d576f0960aadc109e7a3bf4578099615711ea612e50846f454aaa8efe072e7f6ddbab84b40a55c5613b1f565b612e5a9190613ae9565b92505b600160811b851615612ea0576e2bf84208204f5977f9a8cf01fdce3d612e93846f0960aadc109e7a3bf4578099615711d7613b1f565b612e9d9190613ae9565b92505b600160821b851615612ee1576d03c6ab775dd0b95b4cbee7e65d11612ed4846e2bf84208204f5977f9a8cf01fdc307613b1f565b612ede9190613ae9565b92505b50909392505050565b60006020607f5b60ff8116612f00836001613ac4565b60ff161015612f535760006002612f178385613ac4565b612f219190613afd565b90508460058260ff1660808110612f3a57612f3a613c56565b015410612f4957809250612f4d565b8091505b50612ef1565b8360058260ff1660808110612f6a57612f6a613c56565b015410612f78579392505050565b8360058360ff1660808110612f8f57612f8f613c56565b0154106101e3575092915050565b6000828160ff8416612faf8380613b1f565b901c9150612fcd826f03442c4e6074a82f1797f72ac0000000613b1f565b612fd79082613aac565b905060ff8416612fe78684613b1f565b901c9150613005826f0116b96f757c380fb287fd0e40000000613b1f565b61300f9082613aac565b905060ff841661301f8684613b1f565b901c915061303c826e45ae5bdd5f0e03eca1ff4390000000613b1f565b6130469082613aac565b905060ff84166130568684613b1f565b901c9150613073826e0defabf91302cd95b9ffda50000000613b1f565b61307d9082613aac565b905060ff841661308d8684613b1f565b901c91506130aa826e02529ca9832b22439efff9b8000000613b1f565b6130b49082613aac565b905060ff84166130c48684613b1f565b901c91506130e0826d54f1cf12bd04e516b6da88000000613b1f565b6130ea9082613aac565b905060ff84166130fa8684613b1f565b901c9150613116826d0a9e39e257a09ca2d6db51000000613b1f565b6131209082613aac565b905060ff84166131308684613b1f565b901c915061314c826d012e066e7b839fa050c309000000613b1f565b6131569082613aac565b905060ff84166131668684613b1f565b901c9150613181826c1e33d7d926c329a1ad1a800000613b1f565b61318b9082613aac565b905060ff841661319b8684613b1f565b901c91506131b6826c02bee513bdb4a6b19b5f800000613b1f565b6131c09082613aac565b905060ff84166131d08684613b1f565b901c91506131ea826b3a9316fa79b88eccf2a00000613b1f565b6131f49082613aac565b905060ff84166132048684613b1f565b901c915061321e826b048177ebe1fa812375200000613b1f565b6132289082613aac565b905060ff84166132388684613b1f565b901c9150613251826a5263fe90242dcbacf00000613b1f565b61325b9082613aac565b905060ff841661326b8684613b1f565b901c9150613284826a057e22099c030d94100000613b1f565b61328e9082613aac565b905060ff841661329e8684613b1f565b901c91506132b6826957e22099c030d9410000613b1f565b6132c09082613aac565b905060ff84166132d08684613b1f565b901c91506132e88269052b6b54569976310000613b1f565b6132f29082613aac565b905060ff84166133028684613b1f565b901c915061331982684985f67696bf748000613b1f565b6133239082613aac565b905060ff84166133338684613b1f565b901c915061334a826803dea12ea99e498000613b1f565b6133549082613aac565b905060ff84166133648684613b1f565b901c915061337a826731880f2214b6e000613b1f565b6133849082613aac565b905060ff84166133948684613b1f565b901c91506133aa8267025bcff56eb36000613b1f565b6133b49082613aac565b905060ff84166133c48684613b1f565b901c91506133d982661b722e10ab1000613b1f565b6133e39082613aac565b905060ff84166133f38684613b1f565b901c9150613408826601317c70077000613b1f565b6134129082613aac565b905060ff84166134228684613b1f565b901c915061343682650cba84aafa00613b1f565b6134409082613aac565b905060ff84166134508684613b1f565b901c9150613463826482573a0a00613b1f565b61346d9082613aac565b905060ff841661347d8684613b1f565b901c9150613490826405035ad900613b1f565b61349a9082613aac565b905060ff84166134aa8684613b1f565b901c91506134bc82632f881b00613b1f565b6134c69082613aac565b905060ff84166134d68684613b1f565b901c91506134e8826301b29340613b1f565b6134f29082613aac565b905060ff84166135028684613b1f565b901c915061351382620efc40613b1f565b61351d9082613aac565b905060ff841661352d8684613b1f565b901c915061353d82617fe0613b1f565b6135479082613aac565b905060ff84166135578684613b1f565b901c915061356782610420613b1f565b6135719082613aac565b905060ff84166135818684613b1f565b901c9150613590826021613b1f565b61359a9082613aac565b905060ff84166135aa8684613b1f565b901c91506135b9826001613b1f565b6135c39082613aac565b9050600160ff85161b856135e76f0688589cc0e9505e2f2fee558000000084613ae9565b6135f19190613aac565b6135fb9190613aac565b95945050505050565b600080610100831015613637575b600183111561363257600192831c9261362b9082613ac4565b9050613612565b610763565b60805b60ff81161561366957600160ff82161b841061365e5760ff81169390931c92908117905b60011c607f1661363a565b5092915050565b80356001600160a01b038116811461368757600080fd5b919050565b600082601f83011261369d57600080fd5b813567ffffffffffffffff808211156136b8576136b8613c6c565b604051601f8301601f19908116603f011681019082821181831017156136e0576136e0613c6c565b816040528381528660208588010111156136f957600080fd5b836020870160208301376000602085830101528094505050505092915050565b803563ffffffff8116811461368757600080fd5b60006020828403121561373f57600080fd5b61084c82613670565b6000806040838503121561375b57600080fd5b61376483613670565b915061377260208401613670565b90509250929050565b60008060006060848603121561379057600080fd5b61379984613670565b92506137a760208501613670565b9150604084013590509250925092565b600080604083850312156137ca57600080fd5b6137d383613670565b946020939093013593505050565b600080604083850312156137f457600080fd5b823567ffffffffffffffff81111561380b57600080fd5b6138178582860161368c565b92505061377260208401613670565b60006020828403121561383857600080fd5b5035919050565b60008060006060848603121561385457600080fd5b8335925061386460208501613670565b9150604084013567ffffffffffffffff81111561388057600080fd5b61388c8682870161368c565b9150509250925092565b600080600080608085870312156138ac57600080fd5b84359350602085013592506138c360408601613670565b9150606085013567ffffffffffffffff8111156138df57600080fd5b6138eb8782880161368c565b91505092959194509250565b6000806000806080858703121561390d57600080fd5b843593506020850135925061392460408601613719565b9396929550929360600135925050565b60006020828403121561394657600080fd5b61084c82613719565b60008151808452613967816020860160208601613b78565b601f01601f19169290920160200192915050565b6000825161398d818460208701613b78565b9190910192915050565b6001600160a01b03868116825260208201869052604082018590528316606082015260a0608082018190526000906139d19083018461394f565b979650505050505050565b60208152600061084c602083018461394f565b60208082526010908201526f14185d5cd8589b194e881c185d5cd95960821b604082015260600190565b60208082526025908201527f4d75737420737065636966792061206e6f6e2d7a65726f20616d6f756e74206f6040820152646620434c5960d81b606082015260800190565b6020808252818101527f4f776e61626c653a2063616c6c6572206973206e6f7420746865206f776e6572604082015260600190565b828152604060208201526000610d6a604083018461394f565b60008219821115613abf57613abf613c2a565b500190565b600060ff821660ff84168060ff03821115613ae157613ae1613c2a565b019392505050565b600082613af857613af8613c40565b500490565b600060ff831680613b1057613b10613c40565b8060ff84160491505092915050565b6000816000190483118215151615613b3957613b39613c2a565b500290565b600082821015613b5057613b50613c2a565b500390565b600060ff821660ff841680821015613b6f57613b6f613c2a565b90039392505050565b60005b83811015613b93578181015183820152602001613b7b565b83811115613ba2576000848401525b50505050565b600060ff821680613bbb57613bbb613c2a565b6000190192915050565b600181811c90821680613bd957607f821691505b60208210811415613bfa57634e487b7160e01b600052602260045260246000fd5b50919050565b600082613c0f57613c0f613c40565b500690565b634e487b7160e01b600052600160045260246000fd5b634e487b7160e01b600052601160045260246000fd5b634e487b7160e01b600052601260045260246000fd5b634e487b7160e01b600052603260045260246000fd5b634e487b7160e01b600052604160045260246000fdfea2646970667358221220b4457162741275dff89096713b426af7c5722c17ce134d7db524b741d7534eae64736f6c63430008060033",
  "immutableReferences": {},
  "source": "// SPDX-License-Identifier: GPL-3.0-or-later\n\npragma solidity ^0.8.6;\n\nimport \"openzeppelin-solidity/contracts/token/ERC20/ERC20.sol\";\nimport \"openzeppelin-solidity/contracts/utils/math/SafeMath.sol\";\nimport \"openzeppelin-solidity/contracts/access/Ownable.sol\";\nimport \"openzeppelin-solidity/contracts/security/Pausable.sol\";\nimport \"./bondingcurve/BancorFormula.sol\";\nimport \"./Stakable.sol\";\n\n/**\n * @title CopyrightLY Token (CLY)\n * @dev Token with bonding curve contract based on Bancor formula\n * inspired by Commons Stack:\n * https://github.com/commons-stack/genesis-contracts/tree/master/contracts/bondingcurve\n */\ncontract CLYToken is ERC20, BancorFormula, Pausable, Ownable {\n  using SafeMath for uint256;\n\n  // Helper to represent fractions => 100% = 1000000, 1% = 10000\n  uint256 constant DENOMINATOR_PPM = 1000000;\n  uint256 public poolBalance;\n\n  /*\n    reserve ratio, represented in ppm, 1-1000000\n    1/3 corresponds to y= multiple * x^2\n    1/2 corresponds to y= multiple * x\n    2/3 corresponds to y= multiple * x^1/2\n    multiple will depends on contract initialization,\n    specifically totalAmount and poolBalance parameters\n    we might want to add an 'initialize' function that will allow\n    the owner to send ether to the contract and mint a given amount of tokens\n  */\n  uint32 public reserveRatio;\n  uint32 public initialSlope;\n\n  /*\n    Front-running attacks are currently mitigated by defining a maximum\n    gas price limit which tries to prevent users from having control over the order of execution\n  */\n  uint256 public gasPrice; // maximum gas price for Bancor transactions\n\n  mapping(string => mapping(address => uint256)) public individualStakes;\n\n  event Minted(address buyer, uint256 amount, uint256 payed, address stakable, string item);\n  event Burned(address seller, uint256 amount, uint256 earned, address stakable, string item);\n  event CurvePurchase(uint256 supply, uint256 balance, uint256 amount, uint256 price);\n  event CurveSale(uint256 supply, uint256 balance, uint256 amount, uint256 price);\n\n  constructor(uint32 _reserveRatio, uint32 _initialSlope, uint256 _gasPrice) mustBeInPPM(_reserveRatio)\n  ERC20(\"CopyrightLY Token\", \"CLY\") payable {\n    reserveRatio = _reserveRatio;\n    initialSlope = _initialSlope;\n    gasPrice = _gasPrice;\n  }\n\n  function decimals() public view virtual override returns (uint8) {\n    return 16;\n  }\n\n  function getMintPrice(uint256 amount) public view\n  returns (uint256) {\n    require(amount > 0, \"Must specify a non-zero amount of CLY\");\n\n    uint256 price = amount.mul(initialSlope); // Use default curve slope when poolBalance = 0\n    if (poolBalance > 0) {\n      price = purchaseTargetAmount(totalSupply(), poolBalance, reserveRatio, amount);\n    }\n    return price;\n  }\n\n  function mint(uint256 amount, uint256 maxPrice, address stakable, string memory item) public payable\n  validGasPrice() whenNotPaused() returns (uint256) {\n    require(maxPrice != 0 && msg.value == maxPrice, \"Incorrect Ether value sent\");\n    Stakable(stakable).isStakable(item);\n\n    uint256 price = getMintPrice(amount);\n\n    require(price <= maxPrice, \"Current price exceeds maximum provided\");\n\n    emit CurvePurchase(totalSupply(), poolBalance, amount, price);\n\n    uint256 refund = maxPrice.sub(price);\n    if (refund > 0) {\n      payable(msg.sender).transfer(refund);\n    }\n\n    poolBalance = poolBalance.add(price);\n    _mint(msg.sender, amount);\n\n    individualStakes[item][msg.sender] += amount;\n    Stakable(stakable).addStake(amount, item);\n\n    emit Minted(msg.sender, amount, price, stakable, item);\n\n    return price;\n  }\n\n  function getBurnPrice(uint256 amount) public view\n  returns (uint256) {\n    require(amount > 0, \"Must specify a non-zero amount of CLY\");\n\n    return saleTargetAmount(totalSupply(), poolBalance, reserveRatio, amount);\n  }\n\n  function burn(uint256 amount, address stakable, string memory item) public\n  validGasPrice() whenNotPaused() validBurn(stakable, item, amount) returns (uint256) {\n\n    uint256 price = getBurnPrice(amount);\n\n    emit CurveSale(totalSupply(), poolBalance, amount, price);\n\n    payable(msg.sender).transfer(price);\n\n    poolBalance = poolBalance.sub(price);\n    _burn(msg.sender, amount);\n    individualStakes[item][msg.sender] -= amount;\n    Stakable(stakable).removeStake(amount, item);\n\n    emit Burned(msg.sender, amount, price, stakable, item);\n\n    return price;\n  }\n\n  function transfer(address, uint256) public pure override returns (bool) {\n    require(false, \"CLY Token is not transferable\");\n    return false;\n  }\n\n  function transferFrom(address, address, uint256) public pure override returns (bool) {\n    require(false, \"CLY Token is not transferable\");\n    return false;\n  }\n\n  function getIndividualStake(string memory item, address staker) public view returns (uint256) {\n    return individualStakes[item][staker];\n  }\n\n  function setGasPrice(uint256 _gasPrice) public onlyOwner {\n    require(_gasPrice > 0, \"Maximum gas price should be bigger than 0\");\n    gasPrice = _gasPrice;\n  }\n\n  function setReserveRatio(uint32 _reserveRatio) public onlyOwner mustBeInPPM(_reserveRatio) {\n    reserveRatio = _reserveRatio;\n  }\n\n  function pause() public onlyOwner {\n    super._pause();\n  }\n\n  function unpause() public onlyOwner {\n    super._unpause();\n  }\n\n  modifier mustBeInPPM(uint256 _val) {\n    require(_val <= DENOMINATOR_PPM, \"Value must be in PPM\");\n    _;\n  }\n\n  modifier validGasPrice() {\n    assert(tx.gasprice <= gasPrice);\n    _;\n  }\n\n  modifier validBurn(address stakable, string memory item, uint256 amount) {\n    Stakable(stakable).isStakable(item);\n    require(individualStakes[item][msg.sender] >= amount, \"Holder hasn't enough CLY to unstake\");\n    _;\n  }\n}\n",
  "sourcePath": "/Users/roberto/Proyectos/CopyrightLY/copyrightly/contracts/CLYToken.sol",
  "compiler": {
    "name": "solc",
    "version": "0.8.6+commit.11564f7e.Emscripten.clang"
  },
  "schemaVersion": "3.4.1",
  "updatedAt": "2021-09-20T11:52:05.587Z",
  "networkType": "ethereum",
  "devdoc": {
    "details": "Token with bonding curve contract based on Bancor formula inspired by Commons Stack: https://github.com/commons-stack/genesis-contracts/tree/master/contracts/bondingcurve",
    "kind": "dev",
    "methods": {
      "allowance(address,address)": {
        "details": "See {IERC20-allowance}."
      },
      "approve(address,uint256)": {
        "details": "See {IERC20-approve}. Requirements: - `spender` cannot be the zero address."
      },
      "balanceOf(address)": {
        "details": "See {IERC20-balanceOf}."
      },
      "decimals()": {
        "details": "Returns the number of decimals used to get its user representation. For example, if `decimals` equals `2`, a balance of `505` tokens should be displayed to a user as `5,05` (`505 / 10 ** 2`). Tokens usually opt for a value of 18, imitating the relationship between Ether and Wei. This is the value {ERC20} uses, unless this function is overridden; NOTE: This information is only used for _display_ purposes: it in no way affects any of the arithmetic of the contract, including {IERC20-balanceOf} and {IERC20-transfer}."
      },
      "decreaseAllowance(address,uint256)": {
        "details": "Atomically decreases the allowance granted to `spender` by the caller. This is an alternative to {approve} that can be used as a mitigation for problems described in {IERC20-approve}. Emits an {Approval} event indicating the updated allowance. Requirements: - `spender` cannot be the zero address. - `spender` must have allowance for the caller of at least `subtractedValue`."
      },
      "increaseAllowance(address,uint256)": {
        "details": "Atomically increases the allowance granted to `spender` by the caller. This is an alternative to {approve} that can be used as a mitigation for problems described in {IERC20-approve}. Emits an {Approval} event indicating the updated allowance. Requirements: - `spender` cannot be the zero address."
      },
      "init()": {
        "details": "should be executed after construction (too large for the constructor)"
      },
      "name()": {
        "details": "Returns the name of the token."
      },
      "owner()": {
        "details": "Returns the address of the current owner."
      },
      "paused()": {
        "details": "Returns true if the contract is paused, and false otherwise."
      },
      "purchaseTargetAmount(uint256,uint256,uint32,uint256)": {
        "details": "given a token supply, reserve balance, weight and a deposit amount (in the reserve token), calculates the target amount for a given conversion (in the main token) Formula: return = _supply * ((1 + _amount / _reserveBalance) ^ (_reserveWeight / 1000000) - 1)",
        "params": {
          "_amount": "amount of reserve tokens to get the target amount for",
          "_reserveBalance": "reserve balance",
          "_reserveWeight": "reserve weight, represented in ppm (1-1000000)",
          "_supply": "liquid token supply"
        },
        "returns": {
          "_0": "target"
        }
      },
      "renounceOwnership()": {
        "details": "Leaves the contract without owner. It will not be possible to call `onlyOwner` functions anymore. Can only be called by the current owner. NOTE: Renouncing ownership will leave the contract without an owner, thereby removing any functionality that is only available to the owner."
      },
      "saleTargetAmount(uint256,uint256,uint32,uint256)": {
        "details": "given a token supply, reserve balance, weight and a sell amount (in the main token), calculates the target amount for a given conversion (in the reserve token) Formula: return = _reserveBalance * (1 - (1 - _amount / _supply) ^ (1000000 / _reserveWeight))",
        "params": {
          "_amount": "amount of liquid tokens to get the target amount for",
          "_reserveBalance": "reserve balance",
          "_reserveWeight": "reserve weight, represented in ppm (1-1000000)",
          "_supply": "liquid token supply"
        },
        "returns": {
          "_0": "reserve token amount"
        }
      },
      "symbol()": {
        "details": "Returns the symbol of the token, usually a shorter version of the name."
      },
      "totalSupply()": {
        "details": "See {IERC20-totalSupply}."
      },
      "transferOwnership(address)": {
        "details": "Transfers ownership of the contract to a new account (`newOwner`). Can only be called by the current owner."
      }
    },
    "title": "CopyrightLY Token (CLY)",
    "version": 1
  },
  "userdoc": {
    "kind": "user",
    "methods": {},
    "version": 1
  }
}