{
  "contractName": "Complaints",
  "abi": [
    {
      "inputs": [
        {
          "name": "_manifestations",
          "type": "address"
        }
      ],
      "payable": false,
      "stateMutability": "nonpayable",
      "type": "constructor"
    },
    {
      "anonymous": false,
      "inputs": [
        {
          "indexed": true,
          "name": "complainer",
          "type": "address"
        },
        {
          "indexed": false,
          "name": "complaintHash",
          "type": "string"
        },
        {
          "indexed": true,
          "name": "manifestationHashed",
          "type": "string"
        }
      ],
      "name": "ComplaintEvent",
      "type": "event"
    },
    {
      "anonymous": false,
      "inputs": [
        {
          "indexed": true,
          "name": "complainer",
          "type": "address"
        },
        {
          "indexed": false,
          "name": "complaintHash",
          "type": "string"
        },
        {
          "indexed": true,
          "name": "manifestationHashed",
          "type": "string"
        }
      ],
      "name": "RevokeComplaintEvent",
      "type": "event"
    },
    {
      "constant": true,
      "inputs": [
        {
          "name": "manifestationHash",
          "type": "string"
        }
      ],
      "name": "getComplaintHash",
      "outputs": [
        {
          "name": "",
          "type": "string"
        }
      ],
      "payable": false,
      "stateMutability": "view",
      "type": "function"
    },
    {
      "constant": true,
      "inputs": [
        {
          "name": "manifestationHash",
          "type": "string"
        }
      ],
      "name": "getComplainer",
      "outputs": [
        {
          "name": "",
          "type": "address"
        }
      ],
      "payable": false,
      "stateMutability": "view",
      "type": "function"
    },
    {
      "constant": false,
      "inputs": [
        {
          "name": "complaintHash",
          "type": "string"
        },
        {
          "name": "manifestationHash",
          "type": "string"
        }
      ],
      "name": "makeComplaint",
      "outputs": [],
      "payable": false,
      "stateMutability": "nonpayable",
      "type": "function"
    },
    {
      "constant": false,
      "inputs": [
        {
          "name": "manifestationHash",
          "type": "string"
        }
      ],
      "name": "revokeComplaint",
      "outputs": [],
      "payable": false,
      "stateMutability": "nonpayable",
      "type": "function"
    }
  ],
  "bytecode": "0x608060405234801561001057600080fd5b50604051602080610e908339810180604052602081101561003057600080fd5b505160008054600160a060020a0319908116331790915560018054600160a060020a0390931692909116919091179055610e218061006f6000396000f3fe608060405234801561001057600080fd5b5060043610610068577c01000000000000000000000000000000000000000000000000000000006000350463043d09ab811461006d57806353098c411461013c57806359ce327e146101e4578063fb12d88414610311575b600080fd5b6101136004803603602081101561008357600080fd5b81019060208101813564010000000081111561009e57600080fd5b8201836020820111156100b057600080fd5b803590602001918460018302840111640100000000831117156100d257600080fd5b91908080601f01602080910402602001604051908101604052809392919081815260200183838082843760009201919091525092955061042c945050505050565b6040805173ffffffffffffffffffffffffffffffffffffffff9092168252519081900360200190f35b6101e26004803603602081101561015257600080fd5b81019060208101813564010000000081111561016d57600080fd5b82018360208201111561017f57600080fd5b803590602001918460018302840111640100000000831117156101a157600080fd5b91908080601f016020809104026020016040519081016040528093929190818152602001838380828437600092019190915250929550610552945050505050565b005b6101e2600480360360408110156101fa57600080fd5b81019060208101813564010000000081111561021557600080fd5b82018360208201111561022757600080fd5b8035906020019184600183028401116401000000008311171561024957600080fd5b91908080601f016020809104026020016040519081016040528093929190818152602001838380828437600092019190915250929594936020810193503591505064010000000081111561029c57600080fd5b8201836020820111156102ae57600080fd5b803590602001918460018302840111640100000000831117156102d057600080fd5b91908080601f016020809104026020016040519081016040528093929190818152602001838380828437600092019190915250929550610812945050505050565b6103b76004803603602081101561032757600080fd5b81019060208101813564010000000081111561034257600080fd5b82018360208201111561035457600080fd5b8035906020019184600183028401116401000000008311171561037657600080fd5b91908080601f016020809104026020016040519081016040528093929190818152602001838380828437600092019190915250929550610b34945050505050565b6040805160208082528351818301528351919283929083019185019080838360005b838110156103f15781810151838201526020016103d9565b50505050905090810190601f16801561041e5780820380516001836020036101000a031916815260200191505b509250505060405180910390f35b60006002826040518082805190602001908083835b602083106104605780518252601f199092019160209182019101610441565b51815160209384036101000a600019018019909216911617905292019485525060405193849003019092206002015460ff16151591506104d690505760405160e560020a62461bcd02815260040180806020018281038252602a815260200180610dcc602a913960400191505060405180910390fd5b6002826040518082805190602001908083835b602083106105085780518252601f1990920191602091820191016104e9565b51815160209384036101000a600019018019909216911617905292019485525060405193849003019092205473ffffffffffffffffffffffffffffffffffffffff16949350505050565b60005473ffffffffffffffffffffffffffffffffffffffff1633146105ab5760405160e560020a62461bcd028152600401808060200182810382526029815260200180610da36029913960400191505060405180910390fd5b60006002826040518082805190602001908083835b602083106105df5780518252601f1990920191602091820191016105c0565b51815160209384036101000a60001901801990921691161790529201948552506040519384900381018420600201805460ff1916951515959095179094555050825183928291908401908083835b6020831061064c5780518252601f19909201916020918201910161062d565b51815160209384036101000a6000190180199092169116179052604051919093018190038120865190955060029450869391925082918401908083835b602083106106a85780518252601f199092019160209182019101610689565b51815160209384036101000a6000190180199092169116179052920194855250604051938490038101842054865173ffffffffffffffffffffffffffffffffffffffff909116947fa77d0403a69ec4466a1ec7cfb6fcc888933f2f4a2ad135bd8c8702aa90bd5f879450600293508792909182918401908083835b602083106107425780518252601f199092019160209182019101610723565b6001836020036101000a038019825116818451168082178552505050505050905001915050908152602001604051809103902060010160405180806020018281038252838181546001816001161561010002031660029004815260200191508054600181600116156101000203166002900480156108015780601f106107d657610100808354040283529160200191610801565b820191906000526020600020905b8154815290600101906020018083116107e457829003601f168201915b50509250505060405180910390a350565b6002816040518082805190602001908083835b602083106108445780518252601f199092019160209182019101610825565b51815160209384036101000a600019018019909216911617905292019485525060405193849003019092206002015460ff161591506108b990505760405160e560020a62461bcd028152600401808060200182810382526033815260200180610d706033913960400191505060405180910390fd5b336002826040518082805190602001908083835b602083106108ec5780518252601f1990920191602091820191016108cd565b51815160209384036101000a60001901801990921691161790529201948552506040519384900381018420805473ffffffffffffffffffffffffffffffffffffffff191673ffffffffffffffffffffffffffffffffffffffff9690961695909517909455505082518492600292859290918291908401908083835b602083106109865780518252601f199092019160209182019101610967565b6001836020036101000a038019825116818451168082178552505050505050905001915050908152602001604051809103902060010190805190602001906109cf929190610cd4565b5060016002826040518082805190602001908083835b60208310610a045780518252601f1990920191602091820191016109e5565b51815160209384036101000a60001901801990921691161790529201948552506040519384900381018420600201805460ff1916951515959095179094555050825183928291908401908083835b60208310610a715780518252601f199092019160209182019101610a52565b51815160209384036101000a60001901801990921691161790526040805192909401829003822081835288518383015288519096503395507f6fbba0d46e8ec0e841188cc100c3d3a923e0a4bb58d4868763e0be38206fae35948994508392908301919085019080838360005b83811015610af6578181015183820152602001610ade565b50505050905090810190601f168015610b235780820380516001836020036101000a031916815260200191505b509250505060405180910390a35050565b60606002826040518082805190602001908083835b60208310610b685780518252601f199092019160209182019101610b49565b51815160209384036101000a600019018019909216911617905292019485525060405193849003019092206002015460ff1615159150610bde90505760405160e560020a62461bcd02815260040180806020018281038252602a815260200180610dcc602a913960400191505060405180910390fd5b6002826040518082805190602001908083835b60208310610c105780518252601f199092019160209182019101610bf1565b518151600019602094850361010090810a8201928316921993909316919091179092529490920196875260408051978890038201882060019081018054601f60029382161590980290950190941604948501829004820288018201905283875290945091925050830182828015610cc85780601f10610c9d57610100808354040283529160200191610cc8565b820191906000526020600020905b815481529060010190602001808311610cab57829003601f168201915b50505050509050919050565b828054600181600116156101000203166002900490600052602060002090601f016020900481019282601f10610d1557805160ff1916838001178555610d42565b82800160010185558215610d42579182015b82811115610d42578251825591602001919060010190610d27565b50610d4e929150610d52565b5090565b610d6c91905b80821115610d4e5760008155600101610d58565b9056fe436f6d706c61696e7420666f72206d616e69666573746174696f6e206861736820616c726561647920726567697374657265644a75737420636f6e7472616374206f776e65722063616e207265766f6b6520636f6d706c61696e74734e6f2061637469766520636f6d706c61696e7420666f72206d616e69666573746174696f6e2068617368a165627a7a72305820530b4a081950b9dc303f2eeb5efb9035e38b2ba57c86f1425fb5268c865bc7110029",
  "source": "pragma solidity >=0.4.21 <0.6.0;\n\n/// @title Contract for copyright authorship complaints registration\n/// @author Roberto García (http://rhizomik.net/~roberto/)\ncontract Complaints {\n\n    struct Complaint {\n        address complainer;\n        string complaintHash;\n        bool active;\n    }\n\n    address private owner;\n    address private manifestations;\n    mapping(string => Complaint) private complaints;\n\n    event ComplaintEvent(address indexed complainer, string complaintHash, string indexed manifestationHashed);\n    event RevokeComplaintEvent(address indexed complainer, string complaintHash, string indexed manifestationHashed);\n\n    constructor(address _manifestations) public {\n        owner = msg.sender;\n        manifestations = _manifestations;\n    }\n\n    /// @notice Retrieve the IPFS hash of the complaint content for the input manifestation\n    function getComplaintHash(string memory manifestationHash) public view returns (string memory) {\n        require(complaints[manifestationHash].active, \"No active complaint for manifestation hash\");\n        return (complaints[manifestationHash].complaintHash);\n    }\n\n    /// @notice Retrieve the account that made the complaint for the input manifestation hash\n    function getComplainer(string memory manifestationHash) public view returns (address) {\n        require(complaints[manifestationHash].active, \"No active complaint for manifestation hash\");\n        return (complaints[manifestationHash].complainer);\n    }\n\n    /// @notice Register a complaint using the IPFS hash of the complaint content and the hash\n    /// identifying the manifestation complainted. Just one unexpired complaint for the same\n    /// manifestation hash allowed\n    function makeComplaint(string memory complaintHash, string memory manifestationHash) public {\n        require(!complaints[manifestationHash].active, \"Complaint for manifestation hash already registered\");\n        complaints[manifestationHash].complainer = msg.sender;\n        complaints[manifestationHash].complaintHash = complaintHash;\n        complaints[manifestationHash].active = true;\n        emit ComplaintEvent(msg.sender, complaintHash, manifestationHash);\n    }\n\n    /// @notice Remove the complaint for the input manifestation\n    /// @dev Just the contract owner can remove complaints\n    function revokeComplaint(string memory manifestationHash) public {\n        require(owner == msg.sender, \"Just contract owner can revoke complaints\");\n        complaints[manifestationHash].active = false;\n        emit RevokeComplaintEvent(complaints[manifestationHash].complainer,\n            complaints[manifestationHash].complaintHash, manifestationHash);\n    }\n}\n",
  "sourcePath": "/Users/roberto/Proyectos/CopyrightLY/copyrightly/contracts/Complaints.sol",
  "compiler": {
    "name": "solc",
    "version": "0.5.2+commit.1df8f40c.Emscripten.clang"
  },
  "schemaVersion": "3.4.0",
  "updatedAt": "2021-05-06T23:10:00.583Z",
  "networkType": "ethereum",
  "devdoc": {
    "author": "Roberto García (http://rhizomik.net/~roberto/)",
    "methods": {
      "revokeComplaint(string)": {
        "details": "Just the contract owner can remove complaints"
      }
    },
    "title": "Contract for copyright authorship complaints registration"
  },
  "userdoc": {
    "methods": {
      "getComplainer(string)": {
        "notice": "Retrieve the account that made the complaint for the input manifestation hash"
      },
      "getComplaintHash(string)": {
        "notice": "Retrieve the IPFS hash of the complaint content for the input manifestation"
      },
      "makeComplaint(string,string)": {
        "notice": "Register a complaint using the IPFS hash of the complaint content and the hash identifying the manifestation complainted. Just one unexpired complaint for the same manifestation hash allowed"
      },
      "revokeComplaint(string)": {
        "notice": "Remove the complaint for the input manifestation"
      }
    }
  }
}