{
  "contractName": "Complaints",
  "abi": [
    {
      "inputs": [
        {
          "internalType": "address",
          "name": "_manifestations",
          "type": "address"
        }
      ],
      "stateMutability": "nonpayable",
      "type": "constructor"
    },
    {
      "anonymous": false,
      "inputs": [
        {
          "indexed": true,
          "internalType": "address",
          "name": "complainer",
          "type": "address"
        },
        {
          "indexed": false,
          "internalType": "string",
          "name": "complaintHash",
          "type": "string"
        },
        {
          "indexed": true,
          "internalType": "string",
          "name": "manifestationHashed",
          "type": "string"
        }
      ],
      "name": "ComplaintEvent",
      "type": "event"
    },
    {
      "anonymous": false,
      "inputs": [
        {
          "indexed": true,
          "internalType": "address",
          "name": "complainer",
          "type": "address"
        },
        {
          "indexed": false,
          "internalType": "string",
          "name": "complaintHash",
          "type": "string"
        },
        {
          "indexed": true,
          "internalType": "string",
          "name": "manifestationHashed",
          "type": "string"
        }
      ],
      "name": "RevokeComplaintEvent",
      "type": "event"
    },
    {
      "inputs": [
        {
          "internalType": "string",
          "name": "manifestationHash",
          "type": "string"
        }
      ],
      "name": "getComplaintHash",
      "outputs": [
        {
          "internalType": "string",
          "name": "",
          "type": "string"
        }
      ],
      "stateMutability": "view",
      "type": "function",
      "constant": true
    },
    {
      "inputs": [
        {
          "internalType": "string",
          "name": "manifestationHash",
          "type": "string"
        }
      ],
      "name": "getComplainer",
      "outputs": [
        {
          "internalType": "address",
          "name": "",
          "type": "address"
        }
      ],
      "stateMutability": "view",
      "type": "function",
      "constant": true
    },
    {
      "inputs": [
        {
          "internalType": "string",
          "name": "complaintHash",
          "type": "string"
        },
        {
          "internalType": "string",
          "name": "manifestationHash",
          "type": "string"
        }
      ],
      "name": "makeComplaint",
      "outputs": [],
      "stateMutability": "nonpayable",
      "type": "function"
    },
    {
      "inputs": [
        {
          "internalType": "string",
          "name": "manifestationHash",
          "type": "string"
        }
      ],
      "name": "revokeComplaint",
      "outputs": [],
      "stateMutability": "nonpayable",
      "type": "function"
    }
  ],
  "bytecode": "0x608060405234801561001057600080fd5b5060405161096538038061096583398101604081905261002f91610062565b60008054336001600160a01b031991821617909155600180549091166001600160a01b0392909216919091179055610092565b60006020828403121561007457600080fd5b81516001600160a01b038116811461008b57600080fd5b9392505050565b6108c4806100a16000396000f3fe608060405234801561001057600080fd5b506004361061004c5760003560e01c8063043d09ab1461005157806353098c411461008157806359ce327e14610096578063fb12d884146100a9575b600080fd5b61006461005f36600461062b565b6100c9565b6040516001600160a01b0390911681526020015b60405180910390f35b61009461008f36600461062b565b610145565b005b6100946100a4366004610668565b61027d565b6100bc6100b736600461062b565b610410565b60405161007891906106e8565b60006002826040516100db91906106cc565b9081526040519081900360200190206002015460ff166101165760405162461bcd60e51b815260040161010d906107c3565b60405180910390fd5b60028260405161012691906106cc565b908152604051908190036020019020546001600160a01b031692915050565b6000546001600160a01b031633146101b15760405162461bcd60e51b815260206004820152602960248201527f4a75737420636f6e7472616374206f776e65722063616e207265766f6b6520636044820152686f6d706c61696e747360b81b606482015260840161010d565b60006002826040516101c391906106cc565b908152604051908190036020018120600201805492151560ff19909316929092179091556101f29082906106cc565b604051809103902060028260405161020a91906106cc565b908152604051908190036020018120546001600160a01b0316907fa77d0403a69ec4466a1ec7cfb6fcc888933f2f4a2ad135bd8c8702aa90bd5f87906002906102549086906106cc565b9081526020016040518091039020600101604051610272919061071b565b60405180910390a350565b60028160405161028d91906106cc565b9081526040519081900360200190206002015460ff161561030c5760405162461bcd60e51b815260206004820152603360248201527f436f6d706c61696e7420666f72206d616e69666573746174696f6e206861736860448201527208185b1c9958591e481c9959da5cdd195c9959606a1b606482015260840161010d565b3360028260405161031d91906106cc565b90815260405190819003602001812080546001600160a01b03939093166001600160a01b031990931692909217909155829060029061035d9084906106cc565b90815260200160405180910390206001019080519060200190610381929190610505565b50600160028260405161039491906106cc565b908152604051908190036020018120600201805492151560ff19909316929092179091556103c39082906106cc565b6040518091039020336001600160a01b03167f6fbba0d46e8ec0e841188cc100c3d3a923e0a4bb58d4868763e0be38206fae358460405161040491906106e8565b60405180910390a35050565b606060028260405161042291906106cc565b9081526040519081900360200190206002015460ff166104545760405162461bcd60e51b815260040161010d906107c3565b60028260405161046491906106cc565b908152602001604051809103902060010180546104809061083d565b80601f01602080910402602001604051908101604052809291908181526020018280546104ac9061083d565b80156104f95780601f106104ce576101008083540402835291602001916104f9565b820191906000526020600020905b8154815290600101906020018083116104dc57829003601f168201915b50505050509050919050565b8280546105119061083d565b90600052602060002090601f0160209004810192826105335760008555610579565b82601f1061054c57805160ff1916838001178555610579565b82800160010185558215610579579182015b8281111561057957825182559160200191906001019061055e565b50610585929150610589565b5090565b5b80821115610585576000815560010161058a565b600082601f8301126105af57600080fd5b813567ffffffffffffffff808211156105ca576105ca610878565b604051601f8301601f19908116603f011681019082821181831017156105f2576105f2610878565b8160405283815286602085880101111561060b57600080fd5b836020870160208301376000602085830101528094505050505092915050565b60006020828403121561063d57600080fd5b813567ffffffffffffffff81111561065457600080fd5b6106608482850161059e565b949350505050565b6000806040838503121561067b57600080fd5b823567ffffffffffffffff8082111561069357600080fd5b61069f8683870161059e565b935060208501359150808211156106b557600080fd5b506106c28582860161059e565b9150509250929050565b600082516106de81846020870161080d565b9190910192915050565b602081526000825180602084015261070781604085016020870161080d565b601f01601f19169190910160400192915050565b600060208083526000845481600182811c91508083168061073d57607f831692505b85831081141561075b57634e487b7160e01b85526022600452602485fd5b8786018381526020018180156107785760018114610789576107b4565b60ff198616825287820196506107b4565b60008b81526020902060005b868110156107ae57815484820152908501908901610795565b83019750505b50949998505050505050505050565b6020808252602a908201527f4e6f2061637469766520636f6d706c61696e7420666f72206d616e69666573746040820152690c2e8d2dedc40d0c2e6d60b31b606082015260800190565b60005b83811015610828578181015183820152602001610810565b83811115610837576000848401525b50505050565b600181811c9082168061085157607f821691505b6020821081141561087257634e487b7160e01b600052602260045260246000fd5b50919050565b634e487b7160e01b600052604160045260246000fdfea264697066735822122066c0eb7b182a4fbd1ec06a093dcaa133ecb8058aa589088c5dd057a40eacf7bd64736f6c63430008060033",
  "immutableReferences": {},
  "source": "// SPDX-License-Identifier: GPL-3.0-or-later\n\npragma solidity ^0.8.6;\n\n/// @title Contract for copyright authorship complaints registration\n/// @author Roberto Garca (http://rhizomik.net/~roberto/)\ncontract Complaints {\n\n    struct Complaint {\n        address complainer;\n        string complaintHash;\n        bool active;\n    }\n\n    address private owner;\n    address private manifestations;\n    mapping(string => Complaint) private complaints;\n\n    event ComplaintEvent(address indexed complainer, string complaintHash, string indexed manifestationHashed);\n    event RevokeComplaintEvent(address indexed complainer, string complaintHash, string indexed manifestationHashed);\n\n    constructor(address _manifestations) {\n        owner = msg.sender;\n        manifestations = _manifestations;\n    }\n\n    /// @notice Retrieve the IPFS hash of the complaint content for the input manifestation\n    function getComplaintHash(string memory manifestationHash) public view returns (string memory) {\n        require(complaints[manifestationHash].active, \"No active complaint for manifestation hash\");\n        return (complaints[manifestationHash].complaintHash);\n    }\n\n    /// @notice Retrieve the account that made the complaint for the input manifestation hash\n    function getComplainer(string memory manifestationHash) public view returns (address) {\n        require(complaints[manifestationHash].active, \"No active complaint for manifestation hash\");\n        return (complaints[manifestationHash].complainer);\n    }\n\n    /// @notice Register a complaint using the IPFS hash of the complaint content and the hash\n    /// identifying the manifestation complainted. Just one unexpired complaint for the same\n    /// manifestation hash allowed\n    function makeComplaint(string memory complaintHash, string memory manifestationHash) public {\n        require(!complaints[manifestationHash].active, \"Complaint for manifestation hash already registered\");\n        complaints[manifestationHash].complainer = msg.sender;\n        complaints[manifestationHash].complaintHash = complaintHash;\n        complaints[manifestationHash].active = true;\n        emit ComplaintEvent(msg.sender, complaintHash, manifestationHash);\n    }\n\n    /// @notice Remove the complaint for the input manifestation\n    /// @dev Just the contract owner can remove complaints\n    function revokeComplaint(string memory manifestationHash) public {\n        require(owner == msg.sender, \"Just contract owner can revoke complaints\");\n        complaints[manifestationHash].active = false;\n        emit RevokeComplaintEvent(complaints[manifestationHash].complainer,\n            complaints[manifestationHash].complaintHash, manifestationHash);\n    }\n}\n",
  "sourcePath": "/Users/roberto/Proyectos/CopyrightLY/copyrightly/contracts/Complaints.sol",
  "compiler": {
    "name": "solc",
    "version": "0.8.6+commit.11564f7e.Emscripten.clang"
  },
  "schemaVersion": "3.4.1",
  "updatedAt": "2021-06-30T19:44:43.663Z",
  "networkType": "ethereum",
  "devdoc": {
    "author": "Roberto Garca (http://rhizomik.net/~roberto/)",
    "kind": "dev",
    "methods": {
      "revokeComplaint(string)": {
        "details": "Just the contract owner can remove complaints"
      }
    },
    "title": "Contract for copyright authorship complaints registration",
    "version": 1
  },
  "userdoc": {
    "kind": "user",
    "methods": {
      "getComplainer(string)": {
        "notice": "Retrieve the account that made the complaint for the input manifestation hash"
      },
      "getComplaintHash(string)": {
        "notice": "Retrieve the IPFS hash of the complaint content for the input manifestation"
      },
      "makeComplaint(string,string)": {
        "notice": "Register a complaint using the IPFS hash of the complaint content and the hash identifying the manifestation complainted. Just one unexpired complaint for the same manifestation hash allowed"
      },
      "revokeComplaint(string)": {
        "notice": "Remove the complaint for the input manifestation"
      }
    },
    "version": 1
  }
}