{
  "contractName": "CopyrightLYNFT",
  "abi": [
    {
      "inputs": [
        {
          "internalType": "address",
          "name": "_manifestations",
          "type": "address"
        }
      ],
      "stateMutability": "nonpayable",
      "type": "constructor"
    },
    {
      "anonymous": false,
      "inputs": [
        {
          "indexed": true,
          "internalType": "address",
          "name": "owner",
          "type": "address"
        },
        {
          "indexed": true,
          "internalType": "address",
          "name": "approved",
          "type": "address"
        },
        {
          "indexed": true,
          "internalType": "uint256",
          "name": "tokenId",
          "type": "uint256"
        }
      ],
      "name": "Approval",
      "type": "event"
    },
    {
      "anonymous": false,
      "inputs": [
        {
          "indexed": true,
          "internalType": "address",
          "name": "owner",
          "type": "address"
        },
        {
          "indexed": true,
          "internalType": "address",
          "name": "operator",
          "type": "address"
        },
        {
          "indexed": false,
          "internalType": "bool",
          "name": "approved",
          "type": "bool"
        }
      ],
      "name": "ApprovalForAll",
      "type": "event"
    },
    {
      "anonymous": false,
      "inputs": [
        {
          "indexed": true,
          "internalType": "address",
          "name": "minter",
          "type": "address"
        },
        {
          "indexed": false,
          "internalType": "uint256",
          "name": "tokenId",
          "type": "uint256"
        },
        {
          "indexed": false,
          "internalType": "string",
          "name": "tokenUri",
          "type": "string"
        },
        {
          "indexed": false,
          "internalType": "address",
          "name": "manifestations",
          "type": "address"
        },
        {
          "indexed": false,
          "internalType": "string",
          "name": "manifestationHash",
          "type": "string"
        }
      ],
      "name": "NFTMinted",
      "type": "event"
    },
    {
      "anonymous": false,
      "inputs": [
        {
          "indexed": true,
          "internalType": "address",
          "name": "previousOwner",
          "type": "address"
        },
        {
          "indexed": true,
          "internalType": "address",
          "name": "newOwner",
          "type": "address"
        }
      ],
      "name": "OwnershipTransferred",
      "type": "event"
    },
    {
      "anonymous": false,
      "inputs": [
        {
          "indexed": false,
          "internalType": "address",
          "name": "account",
          "type": "address"
        }
      ],
      "name": "Paused",
      "type": "event"
    },
    {
      "anonymous": false,
      "inputs": [
        {
          "indexed": true,
          "internalType": "address",
          "name": "from",
          "type": "address"
        },
        {
          "indexed": true,
          "internalType": "address",
          "name": "to",
          "type": "address"
        },
        {
          "indexed": true,
          "internalType": "uint256",
          "name": "tokenId",
          "type": "uint256"
        }
      ],
      "name": "Transfer",
      "type": "event"
    },
    {
      "anonymous": false,
      "inputs": [
        {
          "indexed": false,
          "internalType": "address",
          "name": "account",
          "type": "address"
        }
      ],
      "name": "Unpaused",
      "type": "event"
    },
    {
      "inputs": [
        {
          "internalType": "address",
          "name": "",
          "type": "address"
        }
      ],
      "name": "amountMinted",
      "outputs": [
        {
          "internalType": "uint256",
          "name": "",
          "type": "uint256"
        }
      ],
      "stateMutability": "view",
      "type": "function",
      "constant": true
    },
    {
      "inputs": [
        {
          "internalType": "address",
          "name": "to",
          "type": "address"
        },
        {
          "internalType": "uint256",
          "name": "tokenId",
          "type": "uint256"
        }
      ],
      "name": "approve",
      "outputs": [],
      "stateMutability": "nonpayable",
      "type": "function"
    },
    {
      "inputs": [
        {
          "internalType": "address",
          "name": "owner",
          "type": "address"
        }
      ],
      "name": "balanceOf",
      "outputs": [
        {
          "internalType": "uint256",
          "name": "",
          "type": "uint256"
        }
      ],
      "stateMutability": "view",
      "type": "function",
      "constant": true
    },
    {
      "inputs": [
        {
          "internalType": "uint256",
          "name": "tokenId",
          "type": "uint256"
        }
      ],
      "name": "getApproved",
      "outputs": [
        {
          "internalType": "address",
          "name": "",
          "type": "address"
        }
      ],
      "stateMutability": "view",
      "type": "function",
      "constant": true
    },
    {
      "inputs": [
        {
          "internalType": "address",
          "name": "owner",
          "type": "address"
        },
        {
          "internalType": "address",
          "name": "operator",
          "type": "address"
        }
      ],
      "name": "isApprovedForAll",
      "outputs": [
        {
          "internalType": "bool",
          "name": "",
          "type": "bool"
        }
      ],
      "stateMutability": "view",
      "type": "function",
      "constant": true
    },
    {
      "inputs": [],
      "name": "manifestations",
      "outputs": [
        {
          "internalType": "address",
          "name": "",
          "type": "address"
        }
      ],
      "stateMutability": "view",
      "type": "function",
      "constant": true
    },
    {
      "inputs": [],
      "name": "name",
      "outputs": [
        {
          "internalType": "string",
          "name": "",
          "type": "string"
        }
      ],
      "stateMutability": "view",
      "type": "function",
      "constant": true
    },
    {
      "inputs": [],
      "name": "owner",
      "outputs": [
        {
          "internalType": "address",
          "name": "",
          "type": "address"
        }
      ],
      "stateMutability": "view",
      "type": "function",
      "constant": true
    },
    {
      "inputs": [
        {
          "internalType": "uint256",
          "name": "tokenId",
          "type": "uint256"
        }
      ],
      "name": "ownerOf",
      "outputs": [
        {
          "internalType": "address",
          "name": "",
          "type": "address"
        }
      ],
      "stateMutability": "view",
      "type": "function",
      "constant": true
    },
    {
      "inputs": [],
      "name": "paused",
      "outputs": [
        {
          "internalType": "bool",
          "name": "",
          "type": "bool"
        }
      ],
      "stateMutability": "view",
      "type": "function",
      "constant": true
    },
    {
      "inputs": [],
      "name": "renounceOwnership",
      "outputs": [],
      "stateMutability": "nonpayable",
      "type": "function"
    },
    {
      "inputs": [
        {
          "internalType": "address",
          "name": "from",
          "type": "address"
        },
        {
          "internalType": "address",
          "name": "to",
          "type": "address"
        },
        {
          "internalType": "uint256",
          "name": "tokenId",
          "type": "uint256"
        }
      ],
      "name": "safeTransferFrom",
      "outputs": [],
      "stateMutability": "nonpayable",
      "type": "function"
    },
    {
      "inputs": [
        {
          "internalType": "address",
          "name": "from",
          "type": "address"
        },
        {
          "internalType": "address",
          "name": "to",
          "type": "address"
        },
        {
          "internalType": "uint256",
          "name": "tokenId",
          "type": "uint256"
        },
        {
          "internalType": "bytes",
          "name": "_data",
          "type": "bytes"
        }
      ],
      "name": "safeTransferFrom",
      "outputs": [],
      "stateMutability": "nonpayable",
      "type": "function"
    },
    {
      "inputs": [
        {
          "internalType": "address",
          "name": "operator",
          "type": "address"
        },
        {
          "internalType": "bool",
          "name": "approved",
          "type": "bool"
        }
      ],
      "name": "setApprovalForAll",
      "outputs": [],
      "stateMutability": "nonpayable",
      "type": "function"
    },
    {
      "inputs": [
        {
          "internalType": "bytes4",
          "name": "interfaceId",
          "type": "bytes4"
        }
      ],
      "name": "supportsInterface",
      "outputs": [
        {
          "internalType": "bool",
          "name": "",
          "type": "bool"
        }
      ],
      "stateMutability": "view",
      "type": "function",
      "constant": true
    },
    {
      "inputs": [],
      "name": "symbol",
      "outputs": [
        {
          "internalType": "string",
          "name": "",
          "type": "string"
        }
      ],
      "stateMutability": "view",
      "type": "function",
      "constant": true
    },
    {
      "inputs": [
        {
          "internalType": "uint256",
          "name": "tokenId",
          "type": "uint256"
        }
      ],
      "name": "tokenURI",
      "outputs": [
        {
          "internalType": "string",
          "name": "",
          "type": "string"
        }
      ],
      "stateMutability": "view",
      "type": "function",
      "constant": true
    },
    {
      "inputs": [
        {
          "internalType": "address",
          "name": "from",
          "type": "address"
        },
        {
          "internalType": "address",
          "name": "to",
          "type": "address"
        },
        {
          "internalType": "uint256",
          "name": "tokenId",
          "type": "uint256"
        }
      ],
      "name": "transferFrom",
      "outputs": [],
      "stateMutability": "nonpayable",
      "type": "function"
    },
    {
      "inputs": [
        {
          "internalType": "address",
          "name": "newOwner",
          "type": "address"
        }
      ],
      "name": "transferOwnership",
      "outputs": [],
      "stateMutability": "nonpayable",
      "type": "function"
    },
    {
      "inputs": [
        {
          "internalType": "string",
          "name": "manifestationHash",
          "type": "string"
        },
        {
          "internalType": "string",
          "name": "metadataHash",
          "type": "string"
        }
      ],
      "name": "mint",
      "outputs": [
        {
          "internalType": "uint256",
          "name": "",
          "type": "uint256"
        }
      ],
      "stateMutability": "nonpayable",
      "type": "function"
    }
  ],
  "bytecode": "0x60806040523480156200001157600080fd5b50604051620021db380380620021db8339810160408190526200003491620001e3565b6040518060400160405280600f81526020016e10dbdc1e5c9a59da1d131648139195608a1b8152506040518060400160405280600681526020016510d31653919560d21b81525060006200008d6200013960201b60201c565b600080546001600160a01b0319166001600160a01b0383169081178255604051929350917f8be0079c531659141344cd1fd0a4f28419497f9722a3daafe3b4186f6b6457e0908290a3506000805460ff60a01b191690558151620000f99060019060208501906200013d565b5080516200010f9060029060208401906200013d565b5050600880546001600160a01b0319166001600160a01b0393909316929092179091555062000252565b3390565b8280546200014b9062000215565b90600052602060002090601f0160209004810192826200016f5760008555620001ba565b82601f106200018a57805160ff1916838001178555620001ba565b82800160010185558215620001ba579182015b82811115620001ba5782518255916020019190600101906200019d565b50620001c8929150620001cc565b5090565b5b80821115620001c85760008155600101620001cd565b600060208284031215620001f657600080fd5b81516001600160a01b03811681146200020e57600080fd5b9392505050565b600181811c908216806200022a57607f821691505b602082108114156200024c57634e487b7160e01b600052602260045260246000fd5b50919050565b611f7980620002626000396000f3fe608060405234801561001057600080fd5b506004361061012c5760003560e01c8063715018a6116100ad578063b78274f011610071578063b78274f014610281578063b88d4fde14610294578063c87b56dd146102a7578063e985e9c5146102ba578063f2fde38b146102cd57600080fd5b8063715018a61461023a5780638aa0fdad146102425780638da5cb5b1461025557806395d89b4114610266578063a22cb4651461026e57600080fd5b806342842e0e116100f457806342842e0e146101c1578063438a67e7146101d45780635c975abb146102025780636352211e1461021457806370a082311461022757600080fd5b806301ffc9a71461013157806306fdde0314610159578063081812fc1461016e578063095ea7b31461019957806323b872dd146101ae575b600080fd5b61014461013f366004611a81565b6102e0565b60405190151581526020015b60405180910390f35b610161610332565b6040516101509190611c82565b61018161017c366004611bd1565b6103c4565b6040516001600160a01b039091168152602001610150565b6101ac6101a7366004611a38565b610451565b005b6101ac6101bc366004611949565b610567565b6101ac6101cf366004611949565b610598565b6101f46101e23660046118f3565b60096020526000908152604090205481565b604051908152602001610150565b600054600160a01b900460ff16610144565b610181610222366004611bd1565b6105b3565b6101f46102353660046118f3565b61062a565b6101ac6106b1565b6101f4610250366004611b6d565b610755565b6000546001600160a01b0316610181565b610161610b5d565b6101ac61027c366004611a0a565b610b6c565b600854610181906001600160a01b031681565b6101ac6102a236600461198a565b610c31565b6101616102b5366004611bd1565b610c69565b6101446102c8366004611910565b610def565b6101ac6102db3660046118f3565b610e1d565b60006001600160e01b031982166380ac58cd60e01b148061031157506001600160e01b03198216635b5e139f60e01b145b8061032c57506301ffc9a760e01b6001600160e01b03198316145b92915050565b60606001805461034190611e45565b80601f016020809104026020016040519081016040528092919081815260200182805461036d90611e45565b80156103ba5780601f1061038f576101008083540402835291602001916103ba565b820191906000526020600020905b81548152906001019060200180831161039d57829003601f168201915b5050505050905090565b60006103cf82610f37565b6104355760405162461bcd60e51b815260206004820152602c60248201527f4552433732313a20617070726f76656420717565727920666f72206e6f6e657860448201526b34b9ba32b73a103a37b5b2b760a11b60648201526084015b60405180910390fd5b506000908152600560205260409020546001600160a01b031690565b600061045c826105b3565b9050806001600160a01b0316836001600160a01b031614156104ca5760405162461bcd60e51b815260206004820152602160248201527f4552433732313a20617070726f76616c20746f2063757272656e74206f776e656044820152603960f91b606482015260840161042c565b336001600160a01b03821614806104e657506104e68133610def565b6105585760405162461bcd60e51b815260206004820152603860248201527f4552433732313a20617070726f76652063616c6c6572206973206e6f74206f7760448201527f6e6572206e6f7220617070726f76656420666f7220616c6c0000000000000000606482015260840161042c565b6105628383610f54565b505050565b6105713382610fc2565b61058d5760405162461bcd60e51b815260040161042c90611ce7565b610562838383611084565b61056283838360405180602001604052806000815250610c31565b6000818152600360205260408120546001600160a01b03168061032c5760405162461bcd60e51b815260206004820152602960248201527f4552433732313a206f776e657220717565727920666f72206e6f6e657869737460448201526832b73a103a37b5b2b760b91b606482015260840161042c565b60006001600160a01b0382166106955760405162461bcd60e51b815260206004820152602a60248201527f4552433732313a2062616c616e636520717565727920666f7220746865207a65604482015269726f206164647265737360b01b606482015260840161042c565b506001600160a01b031660009081526004602052604090205490565b6000546001600160a01b0316331461070b5760405162461bcd60e51b815260206004820181905260248201527f4f776e61626c653a2063616c6c6572206973206e6f7420746865206f776e6572604482015260640161042c565b600080546040516001600160a01b03909116907f8be0079c531659141344cd1fd0a4f28419497f9722a3daafe3b4186f6b6457e0908390a3600080546001600160a01b0319169055565b60008054600160a01b900460ff16156107a35760405162461bcd60e51b815260206004820152601060248201526f14185d5cd8589b194e881c185d5cd95960821b604482015260640161042c565b60085460405163b0594ad560e01b815284916000916001600160a01b039091169063b0594ad5906107d8908590600401611c82565b60006040518083038186803b1580156107f057600080fd5b505afa158015610804573d6000803e3d6000fd5b505050506040513d6000823e601f3d908101601f1916820160405261082c9190810190611abb565b505091505061083b8133611224565b61089e5760405162461bcd60e51b815260206004820152602e60248201527f4f6e6c7920617574686f72732063616e206d696e74204e46547320666f72206160448201526d1036b0b734b332b9ba30ba34b7b760911b606482015260840161042c565b60085460405163c3e53c1960e01b815286916001600160a01b03169063c3e53c19906108ce908490600401611c82565b60206040518083038186803b1580156108e657600080fd5b505afa1580156108fa573d6000803e3d6000fd5b505050506040513d601f19601f8201168201806040525081019061091e9190611a64565b6109865760405162461bcd60e51b815260206004820152603360248201527f4e46542063616e6e6f74206265206d696e746564206966206d616e69666573746044820152726174696f6e20776974686f7574207374616b6560681b606482015260840161042c565b600854604051632231cf8b60e11b81526001600160a01b03909116906344639f16906109b6908490600401611c82565b60206040518083038186803b1580156109ce57600080fd5b505afa1580156109e2573d6000803e3d6000fd5b505050506040513d601f19601f82011682018060405250810190610a069190611a64565b15610a725760405162461bcd60e51b815260206004820152603660248201527f4e46542063616e6e6f74206265206d696e746564206966206d616e69666573746044820152756174696f6e20776974686f75742065766964656e636560501b606482015260840161042c565b3360008181526009602090815260408083205490519293610ab29390920160609290921b6bffffffffffffffffffffffff19168252601482015260340190565b6040516020818303038152906040528051906020012060001c9050610ad7338261128a565b610ae181876113bd565b336000908152600960205260408120805491610afc83611e80565b909155503390507fa8242ff17950cdadf97c343100cb3b1d78c4fb1cd1b3bceefe2b82bb89bbb06082610b2e81610c69565b600854604051610b4b9392916001600160a01b0316908d90611d38565b60405180910390a29695505050505050565b60606002805461034190611e45565b6001600160a01b038216331415610bc55760405162461bcd60e51b815260206004820152601960248201527f4552433732313a20617070726f766520746f2063616c6c657200000000000000604482015260640161042c565b3360008181526006602090815260408083206001600160a01b03871680855290835292819020805460ff191686151590811790915590519081529192917f17307eab39ab6107e8899845ad3d59bd9653f200f220920489ca2b5937696c31910160405180910390a35050565b610c3b3383610fc2565b610c575760405162461bcd60e51b815260040161042c90611ce7565b610c6384848484611448565b50505050565b6060610c7482610f37565b610cda5760405162461bcd60e51b815260206004820152603160248201527f45524337323155524953746f726167653a2055524920717565727920666f72206044820152703737b732bc34b9ba32b73a103a37b5b2b760791b606482015260840161042c565b60008281526007602052604081208054610cf390611e45565b80601f0160208091040260200160405190810160405280929190818152602001828054610d1f90611e45565b8015610d6c5780601f10610d4157610100808354040283529160200191610d6c565b820191906000526020600020905b815481529060010190602001808311610d4f57829003601f168201915b505050505090506000610d99604080518082019091526007815266697066733a2f2f60c81b602082015290565b9050805160001415610dac575092915050565b815115610dde578082604051602001610dc6929190611c16565b60405160208183030381529060405292505050919050565b610de78461147b565b949350505050565b6001600160a01b03918216600090815260066020908152604080832093909416825291909152205460ff1690565b6000546001600160a01b03163314610e775760405162461bcd60e51b815260206004820181905260248201527f4f776e61626c653a2063616c6c6572206973206e6f7420746865206f776e6572604482015260640161042c565b6001600160a01b038116610edc5760405162461bcd60e51b815260206004820152602660248201527f4f776e61626c653a206e6577206f776e657220697320746865207a65726f206160448201526564647265737360d01b606482015260840161042c565b600080546040516001600160a01b03808516939216917f8be0079c531659141344cd1fd0a4f28419497f9722a3daafe3b4186f6b6457e091a3600080546001600160a01b0319166001600160a01b0392909216919091179055565b6000908152600360205260409020546001600160a01b0316151590565b600081815260056020526040902080546001600160a01b0319166001600160a01b0384169081179091558190610f89826105b3565b6001600160a01b03167f8c5be1e5ebec7d5bd14f71427d1e84f3dd0314c0f7b2291e5b200ac8c7c3b92560405160405180910390a45050565b6000610fcd82610f37565b61102e5760405162461bcd60e51b815260206004820152602c60248201527f4552433732313a206f70657261746f7220717565727920666f72206e6f6e657860448201526b34b9ba32b73a103a37b5b2b760a11b606482015260840161042c565b6000611039836105b3565b9050806001600160a01b0316846001600160a01b031614806110745750836001600160a01b0316611069846103c4565b6001600160a01b0316145b80610de75750610de78185610def565b826001600160a01b0316611097826105b3565b6001600160a01b0316146110ff5760405162461bcd60e51b815260206004820152602960248201527f4552433732313a207472616e73666572206f6620746f6b656e2074686174206960448201526839903737ba1037bbb760b91b606482015260840161042c565b6001600160a01b0382166111615760405162461bcd60e51b8152602060048201526024808201527f4552433732313a207472616e7366657220746f20746865207a65726f206164646044820152637265737360e01b606482015260840161042c565b61116c600082610f54565b6001600160a01b0383166000908152600460205260408120805460019290611195908490611e02565b90915550506001600160a01b03821660009081526004602052604081208054600192906111c3908490611dd6565b909155505060008181526003602052604080822080546001600160a01b0319166001600160a01b0386811691821790925591518493918716917fddf252ad1be2c89b69c2b068fc378daa952ba7f163c4a11628f55a4df523b3ef91a4505050565b6000805b835181101561128057826001600160a01b031684828151811061124d5761124d611edb565b60200260200101516001600160a01b0316141561126e57600191505061032c565b8061127881611e80565b915050611228565b5060009392505050565b6001600160a01b0382166112e05760405162461bcd60e51b815260206004820181905260248201527f4552433732313a206d696e7420746f20746865207a65726f2061646472657373604482015260640161042c565b6112e981610f37565b156113365760405162461bcd60e51b815260206004820152601c60248201527f4552433732313a20746f6b656e20616c7265616479206d696e74656400000000604482015260640161042c565b6001600160a01b038216600090815260046020526040812080546001929061135f908490611dd6565b909155505060008181526003602052604080822080546001600160a01b0319166001600160a01b03861690811790915590518392907fddf252ad1be2c89b69c2b068fc378daa952ba7f163c4a11628f55a4df523b3ef908290a45050565b6113c682610f37565b6114295760405162461bcd60e51b815260206004820152602e60248201527f45524337323155524953746f726167653a2055524920736574206f66206e6f6e60448201526d32bc34b9ba32b73a103a37b5b2b760911b606482015260840161042c565b600082815260076020908152604090912082516105629284019061176d565b611453848484611084565b61145f84848484611562565b610c635760405162461bcd60e51b815260040161042c90611c95565b606061148682610f37565b6114ea5760405162461bcd60e51b815260206004820152602f60248201527f4552433732314d657461646174613a2055524920717565727920666f72206e6f60448201526e3732bc34b9ba32b73a103a37b5b2b760891b606482015260840161042c565b6000611510604080518082019091526007815266697066733a2f2f60c81b602082015290565b90506000815111611530576040518060200160405280600081525061155b565b8061153a8461166f565b60405160200161154b929190611c16565b6040516020818303038152906040525b9392505050565b60006001600160a01b0384163b1561166457604051630a85bd0160e11b81526001600160a01b0385169063150b7a02906115a6903390899088908890600401611c45565b602060405180830381600087803b1580156115c057600080fd5b505af19250505080156115f0575060408051601f3d908101601f191682019092526115ed91810190611a9e565b60015b61164a573d80801561161e576040519150601f19603f3d011682016040523d82523d6000602084013e611623565b606091505b5080516116425760405162461bcd60e51b815260040161042c90611c95565b805181602001fd5b6001600160e01b031916630a85bd0160e11b149050610de7565b506001949350505050565b6060816116935750506040805180820190915260018152600360fc1b602082015290565b8160005b81156116bd57806116a781611e80565b91506116b69050600a83611dee565b9150611697565b60008167ffffffffffffffff8111156116d8576116d8611ef1565b6040519080825280601f01601f191660200182016040528015611702576020820181803683370190505b5090505b8415610de757611717600183611e02565b9150611724600a86611e9b565b61172f906030611dd6565b60f81b81838151811061174457611744611edb565b60200101906001600160f81b031916908160001a905350611766600a86611dee565b9450611706565b82805461177990611e45565b90600052602060002090601f01602090048101928261179b57600085556117e1565b82601f106117b457805160ff19168380011785556117e1565b828001600101855582156117e1579182015b828111156117e15782518255916020019190600101906117c6565b506117ed9291506117f1565b5090565b5b808211156117ed57600081556001016117f2565b600061181961181484611dae565b611d7d565b905082815283838301111561182d57600080fd5b828260208301376000602084830101529392505050565b600082601f83011261185557600080fd5b8151602067ffffffffffffffff82111561187157611871611ef1565b8160051b611880828201611d7d565b83815282810190868401838801850189101561189b57600080fd5b600093505b858410156118c75780516118b381611f07565b8352600193909301929184019184016118a0565b50979650505050505050565b600082601f8301126118e457600080fd5b61155b83833560208501611806565b60006020828403121561190557600080fd5b813561155b81611f07565b6000806040838503121561192357600080fd5b823561192e81611f07565b9150602083013561193e81611f07565b809150509250929050565b60008060006060848603121561195e57600080fd5b833561196981611f07565b9250602084013561197981611f07565b929592945050506040919091013590565b600080600080608085870312156119a057600080fd5b84356119ab81611f07565b935060208501356119bb81611f07565b925060408501359150606085013567ffffffffffffffff8111156119de57600080fd5b8501601f810187136119ef57600080fd5b6119fe87823560208401611806565b91505092959194509250565b60008060408385031215611a1d57600080fd5b8235611a2881611f07565b9150602083013561193e81611f1f565b60008060408385031215611a4b57600080fd5b8235611a5681611f07565b946020939093013593505050565b600060208284031215611a7657600080fd5b815161155b81611f1f565b600060208284031215611a9357600080fd5b813561155b81611f2d565b600060208284031215611ab057600080fd5b815161155b81611f2d565b60008060008060808587031215611ad157600080fd5b845167ffffffffffffffff80821115611ae957600080fd5b818701915087601f830112611afd57600080fd5b8151611b0b61181482611dae565b818152896020838601011115611b2057600080fd5b611b31826020830160208701611e19565b602089015190975092505080821115611b4957600080fd5b50611b5687828801611844565b604087015160609097015195989097509350505050565b60008060408385031215611b8057600080fd5b823567ffffffffffffffff80821115611b9857600080fd5b611ba4868387016118d3565b93506020850135915080821115611bba57600080fd5b50611bc7858286016118d3565b9150509250929050565b600060208284031215611be357600080fd5b5035919050565b60008151808452611c02816020860160208601611e19565b601f01601f19169290920160200192915050565b60008351611c28818460208801611e19565b835190830190611c3c818360208801611e19565b01949350505050565b6001600160a01b0385811682528416602082015260408101839052608060608201819052600090611c7890830184611bea565b9695505050505050565b60208152600061155b6020830184611bea565b60208082526032908201527f4552433732313a207472616e7366657220746f206e6f6e20455243373231526560408201527131b2b4bb32b91034b6b83632b6b2b73a32b960711b606082015260800190565b60208082526031908201527f4552433732313a207472616e736665722063616c6c6572206973206e6f74206f6040820152701ddb995c881b9bdc88185c1c1c9bdd9959607a1b606082015260800190565b848152608060208201526000611d516080830186611bea565b6001600160a01b03851660408401528281036060840152611d728185611bea565b979650505050505050565b604051601f8201601f1916810167ffffffffffffffff81118282101715611da657611da6611ef1565b604052919050565b600067ffffffffffffffff821115611dc857611dc8611ef1565b50601f01601f191660200190565b60008219821115611de957611de9611eaf565b500190565b600082611dfd57611dfd611ec5565b500490565b600082821015611e1457611e14611eaf565b500390565b60005b83811015611e34578181015183820152602001611e1c565b83811115610c635750506000910152565b600181811c90821680611e5957607f821691505b60208210811415611e7a57634e487b7160e01b600052602260045260246000fd5b50919050565b6000600019821415611e9457611e94611eaf565b5060010190565b600082611eaa57611eaa611ec5565b500690565b634e487b7160e01b600052601160045260246000fd5b634e487b7160e01b600052601260045260246000fd5b634e487b7160e01b600052603260045260246000fd5b634e487b7160e01b600052604160045260246000fd5b6001600160a01b0381168114611f1c57600080fd5b50565b8015158114611f1c57600080fd5b6001600160e01b031981168114611f1c57600080fdfea264697066735822122095b37954325f266766cc00a73c86a7e49469392213429e27849137703ed56dcc64736f6c63430008060033",
  "immutableReferences": {},
  "source": "// SPDX-License-Identifier: GPL-3.0-or-later\n\npragma solidity ^0.8.6;\n\nimport \"openzeppelin-solidity/contracts/token/ERC721/extensions/ERC721URIStorage.sol\";\nimport \"openzeppelin-solidity/contracts/access/Ownable.sol\";\nimport \"openzeppelin-solidity/contracts/security/Pausable.sol\";\nimport \"./Manifestations.sol\";\nimport \"./Evidencable.sol\";\nimport \"./Stakable.sol\";\n\n/**\n * @title CopyrightLY NFTs for reuse licenses\n */\ncontract CopyrightLYNFT is Ownable, Pausable, ERC721URIStorage {\n\n  address public manifestations;\n  mapping(address => uint256) public amountMinted;\n\n  event NFTMinted(address indexed minter, uint256 tokenId, string tokenUri,\n    address manifestations, string manifestationHash);\n\n  constructor(address _manifestations) ERC721(\"CopyrightLY NFT\", \"CLYNFT\") {\n    manifestations = _manifestations;\n  }\n\n  function mint(string memory manifestationHash, string memory metadataHash) public\n  whenNotPaused() isAuthor(manifestationHash) isMintable(manifestationHash) returns (uint256)\n  {\n    uint256 tokenId = uint256(keccak256(abi.encodePacked(msg.sender, amountMinted[msg.sender])));\n    _mint(msg.sender, tokenId);\n    _setTokenURI(tokenId, metadataHash);\n    amountMinted[msg.sender]++;\n    emit NFTMinted(msg.sender, tokenId, ERC721URIStorage.tokenURI(tokenId), manifestations, manifestationHash);\n    return tokenId;\n  }\n\n  modifier isAuthor(string memory manifestationHash) {\n    ( , address[] memory authors, , )  = Manifestations(manifestations).getManifestation(manifestationHash);\n    require(_contains(authors, msg.sender),\n      \"Only authors can mint NFTs for a manifestation\");\n    _;\n  }\n\n  modifier isMintable(string memory manifestationHash) {\n    require(Stakable(manifestations).isStaked(manifestationHash),\n      \"NFT cannot be minted if manifestation without stake\");\n    require(!Evidencable(manifestations).isUnevidenced(manifestationHash),\n      \"NFT cannot be minted if manifestation without evidence\");\n    _;\n  }\n\n  /**\n   * @dev Base URI for computing {tokenURI}.\n   */\n  function _baseURI() override internal view virtual returns (string memory) {\n    return \"ipfs://\";\n  }\n\n  function _contains(address[] memory accounts, address account) private pure returns(bool) {\n    for (uint i = 0; i < accounts.length; i++) {\n      if (accounts[i] == account) {\n        return true;\n      }\n    }\n    return false;\n  }\n}\n",
  "sourcePath": "/Users/roberto/Proyectos/CopyrightLY/copyrightly/contracts/CopyrightLYNFT.sol",
  "compiler": {
    "name": "solc",
    "version": "0.8.6+commit.11564f7e.Emscripten.clang"
  },
  "schemaVersion": "3.4.1",
  "updatedAt": "2023-01-03T12:08:39.121Z",
  "networkType": "ethereum",
  "devdoc": {
    "kind": "dev",
    "methods": {
      "approve(address,uint256)": {
        "details": "See {IERC721-approve}."
      },
      "balanceOf(address)": {
        "details": "See {IERC721-balanceOf}."
      },
      "getApproved(uint256)": {
        "details": "See {IERC721-getApproved}."
      },
      "isApprovedForAll(address,address)": {
        "details": "See {IERC721-isApprovedForAll}."
      },
      "name()": {
        "details": "See {IERC721Metadata-name}."
      },
      "owner()": {
        "details": "Returns the address of the current owner."
      },
      "ownerOf(uint256)": {
        "details": "See {IERC721-ownerOf}."
      },
      "paused()": {
        "details": "Returns true if the contract is paused, and false otherwise."
      },
      "renounceOwnership()": {
        "details": "Leaves the contract without owner. It will not be possible to call `onlyOwner` functions anymore. Can only be called by the current owner. NOTE: Renouncing ownership will leave the contract without an owner, thereby removing any functionality that is only available to the owner."
      },
      "safeTransferFrom(address,address,uint256)": {
        "details": "See {IERC721-safeTransferFrom}."
      },
      "safeTransferFrom(address,address,uint256,bytes)": {
        "details": "See {IERC721-safeTransferFrom}."
      },
      "setApprovalForAll(address,bool)": {
        "details": "See {IERC721-setApprovalForAll}."
      },
      "supportsInterface(bytes4)": {
        "details": "See {IERC165-supportsInterface}."
      },
      "symbol()": {
        "details": "See {IERC721Metadata-symbol}."
      },
      "tokenURI(uint256)": {
        "details": "See {IERC721Metadata-tokenURI}."
      },
      "transferFrom(address,address,uint256)": {
        "details": "See {IERC721-transferFrom}."
      },
      "transferOwnership(address)": {
        "details": "Transfers ownership of the contract to a new account (`newOwner`). Can only be called by the current owner."
      }
    },
    "title": "CopyrightLY NFTs for reuse licenses",
    "version": 1
  },
  "userdoc": {
    "kind": "user",
    "methods": {},
    "version": 1
  }
}