{
  "contractName": "Evidencable",
  "abi": [
    {
      "constant": false,
      "inputs": [],
      "name": "renounceOwnership",
      "outputs": [],
      "payable": false,
      "stateMutability": "nonpayable",
      "type": "function"
    },
    {
      "constant": true,
      "inputs": [],
      "name": "owner",
      "outputs": [
        {
          "name": "",
          "type": "address"
        }
      ],
      "payable": false,
      "stateMutability": "view",
      "type": "function"
    },
    {
      "constant": true,
      "inputs": [],
      "name": "isOwner",
      "outputs": [
        {
          "name": "",
          "type": "bool"
        }
      ],
      "payable": false,
      "stateMutability": "view",
      "type": "function"
    },
    {
      "constant": false,
      "inputs": [
        {
          "name": "newOwner",
          "type": "address"
        }
      ],
      "name": "transferOwnership",
      "outputs": [],
      "payable": false,
      "stateMutability": "nonpayable",
      "type": "function"
    },
    {
      "anonymous": false,
      "inputs": [
        {
          "indexed": true,
          "name": "previousOwner",
          "type": "address"
        },
        {
          "indexed": true,
          "name": "newOwner",
          "type": "address"
        }
      ],
      "name": "OwnershipTransferred",
      "type": "event"
    },
    {
      "constant": true,
      "inputs": [
        {
          "name": "hash",
          "type": "string"
        }
      ],
      "name": "getEvidenceCount",
      "outputs": [
        {
          "name": "",
          "type": "uint8"
        }
      ],
      "payable": false,
      "stateMutability": "view",
      "type": "function"
    },
    {
      "constant": false,
      "inputs": [
        {
          "name": "hash",
          "type": "string"
        }
      ],
      "name": "addEvidence",
      "outputs": [],
      "payable": false,
      "stateMutability": "nonpayable",
      "type": "function"
    },
    {
      "constant": false,
      "inputs": [
        {
          "name": "provider",
          "type": "address"
        }
      ],
      "name": "addEvidenceProvider",
      "outputs": [],
      "payable": false,
      "stateMutability": "nonpayable",
      "type": "function"
    }
  ],
  "bytecode": "0x60806040526000610017640100000000610066810204565b60008054600160a060020a031916600160a060020a0383169081178255604051929350917f8be0079c531659141344cd1fd0a4f28419497f9722a3daafe3b4186f6b6457e0908290a35061006a565b3390565b6107a6806100796000396000f3fe608060405234801561001057600080fd5b506004361061009a576000357c010000000000000000000000000000000000000000000000000000000090048063715018a611610078578063715018a6146102295780638da5cb5b146102315780638f32d59b14610255578063f2fde38b146102715761009a565b8063144b763a1461009f57806351a94a5f146100c7578063646986fb1461016d575b600080fd5b6100c5600480360360208110156100b557600080fd5b5035600160a060020a0316610297565b005b6100c5600480360360208110156100dd57600080fd5b8101906020810181356401000000008111156100f857600080fd5b82018360208201111561010a57600080fd5b8035906020019184600183028401116401000000008311171561012c57600080fd5b91908080601f01602080910402602001604051908101604052809392919081815260200183838082843760009201919091525092955061031c945050505050565b6102136004803603602081101561018357600080fd5b81019060208101813564010000000081111561019e57600080fd5b8201836020820111156101b057600080fd5b803590602001918460018302840111640100000000831117156101d257600080fd5b91908080601f016020809104026020016040519081016040528093929190818152602001838380828437600092019190915250929550610453945050505050565b6040805160ff9092168252519081900360200190f35b6100c56104be565b610239610573565b60408051600160a060020a039092168252519081900360200190f35b61025d610582565b604080519115158252519081900360200190f35b6100c56004803603602081101561028757600080fd5b5035600160a060020a03166105a6565b61029f610582565b15156102f5576040805160e560020a62461bcd02815260206004820181905260248201527f4f776e61626c653a2063616c6c6572206973206e6f7420746865206f776e6572604482015290519081900360640190fd5b600160a060020a03166000908152600160208190526040909120805460ff19169091179055565b3360009081526001602052604090205460ff16151561036f5760405160e560020a62461bcd02815260040180806020018281038252602a815260200180610751602a913960400191505060405180910390fd5b6103de60016002836040518082805190602001908083835b602083106103a65780518252601f199092019160209182019101610387565b51815160209384036101000a600019018019909216911617905292019485525060405193849003019092205460ff1692915050610610565b6002826040518082805190602001908083835b602083106104105780518252601f1990920191602091820191016103f1565b51815160209384036101000a60001901801990921691161790529201948552506040519384900301909220805460ff191660ff9490941693909317909255505050565b60006002826040518082805190602001908083835b602083106104875780518252601f199092019160209182019101610468565b51815160209384036101000a600019018019909216911617905292019485525060405193849003019092205460ff16949350505050565b6104c6610582565b151561051c576040805160e560020a62461bcd02815260206004820181905260248201527f4f776e61626c653a2063616c6c6572206973206e6f7420746865206f776e6572604482015290519081900360640190fd5b60008054604051600160a060020a03909116907f8be0079c531659141344cd1fd0a4f28419497f9722a3daafe3b4186f6b6457e0908390a36000805473ffffffffffffffffffffffffffffffffffffffff19169055565b600054600160a060020a031690565b60008054600160a060020a0316610597610674565b600160a060020a031614905090565b6105ae610582565b1515610604576040805160e560020a62461bcd02815260206004820181905260248201527f4f776e61626c653a2063616c6c6572206973206e6f7420746865206f776e6572604482015290519081900360640190fd5b61060d81610678565b50565b60008282018381101561066d576040805160e560020a62461bcd02815260206004820152601b60248201527f536166654d6174683a206164646974696f6e206f766572666c6f770000000000604482015290519081900360640190fd5b9392505050565b3390565b600160a060020a03811615156106c25760405160e560020a62461bcd02815260040180806020018281038252602681526020018061072b6026913960400191505060405180910390fd5b60008054604051600160a060020a03808516939216917f8be0079c531659141344cd1fd0a4f28419497f9722a3daafe3b4186f6b6457e091a36000805473ffffffffffffffffffffffffffffffffffffffff1916600160a060020a039290921691909117905556fe4f776e61626c653a206e6577206f776e657220697320746865207a65726f20616464726573734f6e6c7920726567697374657265642065766964656e63652070726f76696465727320616c6c6f776564a165627a7a72305820af62ab6a6419f9ae2b6f651fdde945066bb447ac84d0b4d78c4910cd5199f4220029",
  "source": "pragma solidity >=0.4.21 <0.6.0;\n\nimport \"openzeppelin-solidity/contracts/math/SafeMath.sol\";\nimport \"openzeppelin-solidity/contracts/ownership/Ownable.sol\";\n\n\n/// @title Library to implement items that can accumulate evidence\n/// @author Roberto García (http://rhizomik.net/~roberto/)\ncontract Evidencable is Ownable {\n    using SafeMath for uint8;\n\n    mapping(address => bool) private evidenceProviders;\n    mapping(string => uint8) private evidenceCounts;\n\n    /// @dev Modifier controlling that only registered evidence providers are allowed\n    modifier onlyEvidenceProvider() {\n        require(evidenceProviders[msg.sender], \"Only registered evidence providers allowed\");\n        _;\n    }\n\n    /// @notice Get the evidence count for the manifestation with `hash`.\n    /// @param hash Hash of the manifestation content, for instance IPFS Base58 Hash\n    function getEvidenceCount(string memory hash) public view returns (uint8) {\n        return evidenceCounts[hash];\n    }\n\n    /// @notice Adds one to the evidence count for the manifestation with `hash`.\n    /// @param hash Hash of the manifestation content, for instance IPFS Base58 Hash\n    function addEvidence(string memory hash) public onlyEvidenceProvider {\n        evidenceCounts[hash] = uint8(evidenceCounts[hash].add(1));\n    }\n\n    /// @notice Adds an evidence provider `provider` contract that can then call addEvidence(...)\n    /// to add evidence.\n    /// @param provider The address of a contract providing evidence\n    function addEvidenceProvider(address provider) public onlyOwner {\n        evidenceProviders[provider] = true;\n    }\n\n    /// @notice Check if the evidencable `hash` has no evidence yet.\n    /// @dev Used to check if the corresponding item evidence count is 0.\n    /// @param hash Hash of the manifestation content, for instance IPFS Base58 Hash\n    function isUnevidenced(string memory hash) internal view returns(bool) {\n        return (evidenceCounts[hash] == 0);\n    }\n}\n",
  "sourcePath": "/Users/roberto/Proyectos/CopyrightLY/copyrightly/contracts/Evidencable.sol",
  "compiler": {
    "name": "solc",
    "version": "0.5.2+commit.1df8f40c.Emscripten.clang"
  },
  "schemaVersion": "3.4.0",
  "updatedAt": "2021-05-05T16:42:41.658Z",
  "devdoc": {
    "author": "Roberto García (http://rhizomik.net/~roberto/)",
    "methods": {
      "addEvidence(string)": {
        "params": {
          "hash": "Hash of the manifestation content, for instance IPFS Base58 Hash"
        }
      },
      "addEvidenceProvider(address)": {
        "params": {
          "provider": "The address of a contract providing evidence"
        }
      },
      "getEvidenceCount(string)": {
        "params": {
          "hash": "Hash of the manifestation content, for instance IPFS Base58 Hash"
        }
      },
      "isOwner()": {
        "details": "Returns true if the caller is the current owner."
      },
      "owner()": {
        "details": "Returns the address of the current owner."
      },
      "renounceOwnership()": {
        "details": "Leaves the contract without owner. It will not be possible to call `onlyOwner` functions anymore. Can only be called by the current owner.     * NOTE: Renouncing ownership will leave the contract without an owner, thereby removing any functionality that is only available to the owner."
      },
      "transferOwnership(address)": {
        "details": "Transfers ownership of the contract to a new account (`newOwner`). Can only be called by the current owner."
      }
    },
    "title": "Library to implement items that can accumulate evidence"
  },
  "userdoc": {
    "methods": {
      "addEvidence(string)": {
        "notice": "Adds one to the evidence count for the manifestation with `hash`."
      },
      "addEvidenceProvider(address)": {
        "notice": "Adds an evidence provider `provider` contract that can then call addEvidence(...) to add evidence."
      },
      "getEvidenceCount(string)": {
        "notice": "Get the evidence count for the manifestation with `hash`."
      }
    }
  }
}