{
  "contractName": "Evidencable",
  "abi": [
    {
      "anonymous": false,
      "inputs": [
        {
          "indexed": true,
          "internalType": "address",
          "name": "previousOwner",
          "type": "address"
        },
        {
          "indexed": true,
          "internalType": "address",
          "name": "newOwner",
          "type": "address"
        }
      ],
      "name": "OwnershipTransferred",
      "type": "event"
    },
    {
      "inputs": [],
      "name": "owner",
      "outputs": [
        {
          "internalType": "address",
          "name": "",
          "type": "address"
        }
      ],
      "stateMutability": "view",
      "type": "function"
    },
    {
      "inputs": [],
      "name": "renounceOwnership",
      "outputs": [],
      "stateMutability": "nonpayable",
      "type": "function"
    },
    {
      "inputs": [
        {
          "internalType": "address",
          "name": "newOwner",
          "type": "address"
        }
      ],
      "name": "transferOwnership",
      "outputs": [],
      "stateMutability": "nonpayable",
      "type": "function"
    },
    {
      "inputs": [
        {
          "internalType": "string",
          "name": "hash",
          "type": "string"
        }
      ],
      "name": "getEvidenceCount",
      "outputs": [
        {
          "internalType": "uint8",
          "name": "",
          "type": "uint8"
        }
      ],
      "stateMutability": "view",
      "type": "function"
    },
    {
      "inputs": [
        {
          "internalType": "string",
          "name": "hash",
          "type": "string"
        }
      ],
      "name": "addEvidence",
      "outputs": [],
      "stateMutability": "nonpayable",
      "type": "function"
    },
    {
      "inputs": [
        {
          "internalType": "address",
          "name": "provider",
          "type": "address"
        }
      ],
      "name": "addEvidenceProvider",
      "outputs": [],
      "stateMutability": "nonpayable",
      "type": "function"
    },
    {
      "inputs": [
        {
          "internalType": "string",
          "name": "hash",
          "type": "string"
        }
      ],
      "name": "isUnevidenced",
      "outputs": [
        {
          "internalType": "bool",
          "name": "",
          "type": "bool"
        }
      ],
      "stateMutability": "view",
      "type": "function"
    }
  ],
  "bytecode": "0x608060405234801561001057600080fd5b50600080546001600160a01b031916339081178255604051909182917f8be0079c531659141344cd1fd0a4f28419497f9722a3daafe3b4186f6b6457e0908290a3506105e1806100616000396000f3fe608060405234801561001057600080fd5b506004361061007d5760003560e01c8063646986fb1161005b578063646986fb146100d2578063715018a6146100f75780638da5cb5b146100ff578063f2fde38b1461011a57600080fd5b8063144b763a1461008257806344639f161461009757806351a94a5f146100bf575b600080fd5b610095610090366004610425565b61012d565b005b6100aa6100a536600461044e565b610187565b60405190151581526020015b60405180910390f35b6100956100cd36600461044e565b6101b3565b6100e56100e036600461044e565b610289565b60405160ff90911681526020016100b6565b6100956102b4565b6000546040516001600160a01b0390911681526020016100b6565b610095610128366004610425565b610328565b6000546001600160a01b031633146101605760405162461bcd60e51b81526004016101579061053a565b60405180910390fd5b6001600160a01b03166000908152600160208190526040909120805460ff19169091179055565b600060028260405161019991906104ff565b9081526040519081900360200190205460ff161592915050565b3360009081526001602052604090205460ff166102255760405162461bcd60e51b815260206004820152602a60248201527f4f6e6c7920726567697374657265642065766964656e63652070726f766964656044820152691c9cc8185b1b1bddd95960b21b6064820152608401610157565b610253600160028360405161023a91906104ff565b9081526040519081900360200190205460ff1690610412565b60028260405161026391906104ff565b908152604051908190036020019020805460ff9290921660ff1990921691909117905550565b600060028260405161029b91906104ff565b9081526040519081900360200190205460ff1692915050565b6000546001600160a01b031633146102de5760405162461bcd60e51b81526004016101579061053a565b600080546040516001600160a01b03909116907f8be0079c531659141344cd1fd0a4f28419497f9722a3daafe3b4186f6b6457e0908390a3600080546001600160a01b0319169055565b6000546001600160a01b031633146103525760405162461bcd60e51b81526004016101579061053a565b6001600160a01b0381166103b75760405162461bcd60e51b815260206004820152602660248201527f4f776e61626c653a206e6577206f776e657220697320746865207a65726f206160448201526564647265737360d01b6064820152608401610157565b600080546040516001600160a01b03808516939216917f8be0079c531659141344cd1fd0a4f28419497f9722a3daafe3b4186f6b6457e091a3600080546001600160a01b0319166001600160a01b0392909216919091179055565b600061041e828461056f565b9392505050565b60006020828403121561043757600080fd5b81356001600160a01b038116811461041e57600080fd5b60006020828403121561046057600080fd5b813567ffffffffffffffff8082111561047857600080fd5b818401915084601f83011261048c57600080fd5b81358181111561049e5761049e610595565b604051601f8201601f19908116603f011681019083821181831017156104c6576104c6610595565b816040528281528760208487010111156104df57600080fd5b826020860160208301376000928101602001929092525095945050505050565b6000825160005b818110156105205760208186018101518583015201610506565b8181111561052f576000828501525b509190910192915050565b6020808252818101527f4f776e61626c653a2063616c6c6572206973206e6f7420746865206f776e6572604082015260600190565b6000821982111561059057634e487b7160e01b600052601160045260246000fd5b500190565b634e487b7160e01b600052604160045260246000fdfea264697066735822122040baaca3bf764905879b495f99e8344effa55084c40564b370c43be19b84583564736f6c63430008060033",
  "immutableReferences": {},
  "source": "// SPDX-License-Identifier: GPL-3.0-or-later\n\npragma solidity ^0.8.6;\n\nimport \"openzeppelin-solidity/contracts/utils/math/SafeMath.sol\";\nimport \"openzeppelin-solidity/contracts/access/Ownable.sol\";\n\n\n/// @title Library to implement items that can accumulate evidence\n/// @author Roberto Garca (http://rhizomik.net/~roberto/)\ncontract Evidencable is Ownable {\n    using SafeMath for uint8;\n\n    mapping(address => bool) private evidenceProviders;\n    mapping(string => uint8) private evidenceCounts;\n\n    /// @dev Modifier controlling that only registered evidence providers are allowed\n    modifier onlyEvidenceProvider() {\n        require(evidenceProviders[msg.sender], \"Only registered evidence providers allowed\");\n        _;\n    }\n\n    /// @notice Get the evidence count for the manifestation with `hash`.\n    /// @param hash Hash of the manifestation content, for instance IPFS Base58 Hash\n    function getEvidenceCount(string memory hash) public view returns (uint8) {\n        return evidenceCounts[hash];\n    }\n\n    /// @notice Adds one to the evidence count for the manifestation with `hash`.\n    /// @param hash Hash of the manifestation content, for instance IPFS Base58 Hash\n    function addEvidence(string memory hash) virtual public onlyEvidenceProvider {\n        evidenceCounts[hash] = uint8(evidenceCounts[hash].add(1));\n    }\n\n    /// @notice Adds an evidence provider `provider` contract that can then call addEvidence(...)\n    /// to add evidence.\n    /// @param provider The address of a contract providing evidence\n    function addEvidenceProvider(address provider) public onlyOwner {\n        evidenceProviders[provider] = true;\n    }\n\n    /// @notice Check if the evidencable `hash` has no evidence yet.\n    /// @dev Used to check if the corresponding item evidence count is 0.\n    /// @param hash Hash of the manifestation content, for instance IPFS Base58 Hash\n    function isUnevidenced(string memory hash) public view returns(bool) {\n        return (evidenceCounts[hash] == 0);\n    }\n}\n",
  "sourcePath": "/Users/roberto/Proyectos/CopyrightLY/copyrightly/contracts/Evidencable.sol",
  "compiler": {
    "name": "solc",
    "version": "0.8.6+commit.11564f7e.Emscripten.clang"
  },
  "schemaVersion": "3.4.1",
  "updatedAt": "2021-08-29T10:19:14.165Z",
  "devdoc": {
    "author": "Roberto Garca (http://rhizomik.net/~roberto/)",
    "kind": "dev",
    "methods": {
      "addEvidence(string)": {
        "params": {
          "hash": "Hash of the manifestation content, for instance IPFS Base58 Hash"
        }
      },
      "addEvidenceProvider(address)": {
        "params": {
          "provider": "The address of a contract providing evidence"
        }
      },
      "getEvidenceCount(string)": {
        "params": {
          "hash": "Hash of the manifestation content, for instance IPFS Base58 Hash"
        }
      },
      "isUnevidenced(string)": {
        "details": "Used to check if the corresponding item evidence count is 0.",
        "params": {
          "hash": "Hash of the manifestation content, for instance IPFS Base58 Hash"
        }
      },
      "owner()": {
        "details": "Returns the address of the current owner."
      },
      "renounceOwnership()": {
        "details": "Leaves the contract without owner. It will not be possible to call `onlyOwner` functions anymore. Can only be called by the current owner. NOTE: Renouncing ownership will leave the contract without an owner, thereby removing any functionality that is only available to the owner."
      },
      "transferOwnership(address)": {
        "details": "Transfers ownership of the contract to a new account (`newOwner`). Can only be called by the current owner."
      }
    },
    "title": "Library to implement items that can accumulate evidence",
    "version": 1
  },
  "userdoc": {
    "kind": "user",
    "methods": {
      "addEvidence(string)": {
        "notice": "Adds one to the evidence count for the manifestation with `hash`."
      },
      "addEvidenceProvider(address)": {
        "notice": "Adds an evidence provider `provider` contract that can then call addEvidence(...) to add evidence."
      },
      "getEvidenceCount(string)": {
        "notice": "Get the evidence count for the manifestation with `hash`."
      },
      "isUnevidenced(string)": {
        "notice": "Check if the evidencable `hash` has no evidence yet."
      }
    },
    "version": 1
  }
}