{
  "contractName": "Evidencable",
  "abi": [
    {
      "anonymous": false,
      "inputs": [
        {
          "indexed": true,
          "internalType": "address",
          "name": "previousOwner",
          "type": "address"
        },
        {
          "indexed": true,
          "internalType": "address",
          "name": "newOwner",
          "type": "address"
        }
      ],
      "name": "OwnershipTransferred",
      "type": "event"
    },
    {
      "inputs": [],
      "name": "owner",
      "outputs": [
        {
          "internalType": "address",
          "name": "",
          "type": "address"
        }
      ],
      "stateMutability": "view",
      "type": "function"
    },
    {
      "inputs": [],
      "name": "renounceOwnership",
      "outputs": [],
      "stateMutability": "nonpayable",
      "type": "function"
    },
    {
      "inputs": [
        {
          "internalType": "address",
          "name": "newOwner",
          "type": "address"
        }
      ],
      "name": "transferOwnership",
      "outputs": [],
      "stateMutability": "nonpayable",
      "type": "function"
    },
    {
      "inputs": [
        {
          "internalType": "string",
          "name": "hash",
          "type": "string"
        }
      ],
      "name": "getEvidenceCount",
      "outputs": [
        {
          "internalType": "uint8",
          "name": "",
          "type": "uint8"
        }
      ],
      "stateMutability": "view",
      "type": "function"
    },
    {
      "inputs": [
        {
          "internalType": "string",
          "name": "hash",
          "type": "string"
        }
      ],
      "name": "addEvidence",
      "outputs": [],
      "stateMutability": "nonpayable",
      "type": "function"
    },
    {
      "inputs": [
        {
          "internalType": "address",
          "name": "provider",
          "type": "address"
        }
      ],
      "name": "addEvidenceProvider",
      "outputs": [],
      "stateMutability": "nonpayable",
      "type": "function"
    }
  ],
  "bytecode": "0x608060405234801561001057600080fd5b50600080546001600160a01b031916339081178255604051909182917f8be0079c531659141344cd1fd0a4f28419497f9722a3daafe3b4186f6b6457e0908290a350610577806100616000396000f3fe608060405234801561001057600080fd5b50600436106100625760003560e01c8063144b763a1461006757806351a94a5f1461007c578063646986fb1461008f578063715018a6146100b95780638da5cb5b146100c1578063f2fde38b146100dc575b600080fd5b61007a6100753660046103bb565b6100ef565b005b61007a61008a3660046103e4565b610149565b6100a261009d3660046103e4565b61021f565b60405160ff90911681526020015b60405180910390f35b61007a61024a565b6000546040516001600160a01b0390911681526020016100b0565b61007a6100ea3660046103bb565b6102be565b6000546001600160a01b031633146101225760405162461bcd60e51b8152600401610119906104d0565b60405180910390fd5b6001600160a01b03166000908152600160208190526040909120805460ff19169091179055565b3360009081526001602052604090205460ff166101bb5760405162461bcd60e51b815260206004820152602a60248201527f4f6e6c7920726567697374657265642065766964656e63652070726f766964656044820152691c9cc8185b1b1bddd95960b21b6064820152608401610119565b6101e960016002836040516101d09190610495565b9081526040519081900360200190205460ff16906103a8565b6002826040516101f99190610495565b908152604051908190036020019020805460ff9290921660ff1990921691909117905550565b60006002826040516102319190610495565b9081526040519081900360200190205460ff1692915050565b6000546001600160a01b031633146102745760405162461bcd60e51b8152600401610119906104d0565b600080546040516001600160a01b03909116907f8be0079c531659141344cd1fd0a4f28419497f9722a3daafe3b4186f6b6457e0908390a3600080546001600160a01b0319169055565b6000546001600160a01b031633146102e85760405162461bcd60e51b8152600401610119906104d0565b6001600160a01b03811661034d5760405162461bcd60e51b815260206004820152602660248201527f4f776e61626c653a206e6577206f776e657220697320746865207a65726f206160448201526564647265737360d01b6064820152608401610119565b600080546040516001600160a01b03808516939216917f8be0079c531659141344cd1fd0a4f28419497f9722a3daafe3b4186f6b6457e091a3600080546001600160a01b0319166001600160a01b0392909216919091179055565b60006103b48284610505565b9392505050565b6000602082840312156103cd57600080fd5b81356001600160a01b03811681146103b457600080fd5b6000602082840312156103f657600080fd5b813567ffffffffffffffff8082111561040e57600080fd5b818401915084601f83011261042257600080fd5b8135818111156104345761043461052b565b604051601f8201601f19908116603f0116810190838211818310171561045c5761045c61052b565b8160405282815287602084870101111561047557600080fd5b826020860160208301376000928101602001929092525095945050505050565b6000825160005b818110156104b6576020818601810151858301520161049c565b818111156104c5576000828501525b509190910192915050565b6020808252818101527f4f776e61626c653a2063616c6c6572206973206e6f7420746865206f776e6572604082015260600190565b6000821982111561052657634e487b7160e01b600052601160045260246000fd5b500190565b634e487b7160e01b600052604160045260246000fdfea2646970667358221220dc22d1138f11ec91cfe7fb7fea3e842bd390cf353fb089828d874d7a73be2a5364736f6c63430008060033",
  "immutableReferences": {},
  "source": "// SPDX-License-Identifier: GPL-3.0-or-later\n\npragma solidity ^0.8.6;\n\nimport \"openzeppelin-solidity/contracts/utils/math/SafeMath.sol\";\nimport \"openzeppelin-solidity/contracts/access/Ownable.sol\";\n\n\n/// @title Library to implement items that can accumulate evidence\n/// @author Roberto Garca (http://rhizomik.net/~roberto/)\ncontract Evidencable is Ownable {\n    using SafeMath for uint8;\n\n    mapping(address => bool) private evidenceProviders;\n    mapping(string => uint8) private evidenceCounts;\n\n    /// @dev Modifier controlling that only registered evidence providers are allowed\n    modifier onlyEvidenceProvider() {\n        require(evidenceProviders[msg.sender], \"Only registered evidence providers allowed\");\n        _;\n    }\n\n    /// @notice Get the evidence count for the manifestation with `hash`.\n    /// @param hash Hash of the manifestation content, for instance IPFS Base58 Hash\n    function getEvidenceCount(string memory hash) public view returns (uint8) {\n        return evidenceCounts[hash];\n    }\n\n    /// @notice Adds one to the evidence count for the manifestation with `hash`.\n    /// @param hash Hash of the manifestation content, for instance IPFS Base58 Hash\n    function addEvidence(string memory hash) virtual public onlyEvidenceProvider {\n        evidenceCounts[hash] = uint8(evidenceCounts[hash].add(1));\n    }\n\n    /// @notice Adds an evidence provider `provider` contract that can then call addEvidence(...)\n    /// to add evidence.\n    /// @param provider The address of a contract providing evidence\n    function addEvidenceProvider(address provider) public onlyOwner {\n        evidenceProviders[provider] = true;\n    }\n\n    /// @notice Check if the evidencable `hash` has no evidence yet.\n    /// @dev Used to check if the corresponding item evidence count is 0.\n    /// @param hash Hash of the manifestation content, for instance IPFS Base58 Hash\n    function isUnevidenced(string memory hash) internal view returns(bool) {\n        return (evidenceCounts[hash] == 0);\n    }\n}\n",
  "sourcePath": "/Users/roberto/Proyectos/CopyrightLY/copyrightly/contracts/Evidencable.sol",
  "compiler": {
    "name": "solc",
    "version": "0.8.6+commit.11564f7e.Emscripten.clang"
  },
  "schemaVersion": "3.4.1",
  "updatedAt": "2021-06-30T19:44:42.219Z",
  "devdoc": {
    "author": "Roberto Garca (http://rhizomik.net/~roberto/)",
    "kind": "dev",
    "methods": {
      "addEvidence(string)": {
        "params": {
          "hash": "Hash of the manifestation content, for instance IPFS Base58 Hash"
        }
      },
      "addEvidenceProvider(address)": {
        "params": {
          "provider": "The address of a contract providing evidence"
        }
      },
      "getEvidenceCount(string)": {
        "params": {
          "hash": "Hash of the manifestation content, for instance IPFS Base58 Hash"
        }
      },
      "owner()": {
        "details": "Returns the address of the current owner."
      },
      "renounceOwnership()": {
        "details": "Leaves the contract without owner. It will not be possible to call `onlyOwner` functions anymore. Can only be called by the current owner. NOTE: Renouncing ownership will leave the contract without an owner, thereby removing any functionality that is only available to the owner."
      },
      "transferOwnership(address)": {
        "details": "Transfers ownership of the contract to a new account (`newOwner`). Can only be called by the current owner."
      }
    },
    "title": "Library to implement items that can accumulate evidence",
    "version": 1
  },
  "userdoc": {
    "kind": "user",
    "methods": {
      "addEvidence(string)": {
        "notice": "Adds one to the evidence count for the manifestation with `hash`."
      },
      "addEvidenceProvider(address)": {
        "notice": "Adds an evidence provider `provider` contract that can then call addEvidence(...) to add evidence."
      },
      "getEvidenceCount(string)": {
        "notice": "Get the evidence count for the manifestation with `hash`."
      }
    },
    "version": 1
  }
}