{
  "contractName": "Manifestations",
  "abi": [
    {
      "inputs": [
        {
          "internalType": "uint32",
          "name": "_timeToExpiry",
          "type": "uint32"
        }
      ],
      "stateMutability": "nonpayable",
      "type": "constructor"
    },
    {
      "anonymous": false,
      "inputs": [
        {
          "indexed": false,
          "internalType": "uint8",
          "name": "evidenceCount",
          "type": "uint8"
        }
      ],
      "name": "AddedEvidence",
      "type": "event"
    },
    {
      "anonymous": false,
      "inputs": [
        {
          "indexed": false,
          "internalType": "string",
          "name": "hash",
          "type": "string"
        },
        {
          "indexed": false,
          "internalType": "string",
          "name": "title",
          "type": "string"
        },
        {
          "indexed": true,
          "internalType": "address",
          "name": "manifester",
          "type": "address"
        }
      ],
      "name": "ManifestEvent",
      "type": "event"
    },
    {
      "anonymous": false,
      "inputs": [
        {
          "indexed": true,
          "internalType": "address",
          "name": "previousOwner",
          "type": "address"
        },
        {
          "indexed": true,
          "internalType": "address",
          "name": "newOwner",
          "type": "address"
        }
      ],
      "name": "OwnershipTransferred",
      "type": "event"
    },
    {
      "anonymous": false,
      "inputs": [
        {
          "indexed": false,
          "internalType": "address",
          "name": "account",
          "type": "address"
        }
      ],
      "name": "Paused",
      "type": "event"
    },
    {
      "anonymous": false,
      "inputs": [
        {
          "indexed": false,
          "internalType": "address",
          "name": "account",
          "type": "address"
        }
      ],
      "name": "Unpaused",
      "type": "event"
    },
    {
      "inputs": [
        {
          "internalType": "address",
          "name": "provider",
          "type": "address"
        }
      ],
      "name": "addEvidenceProvider",
      "outputs": [],
      "stateMutability": "nonpayable",
      "type": "function"
    },
    {
      "inputs": [
        {
          "internalType": "string",
          "name": "hash",
          "type": "string"
        }
      ],
      "name": "getEvidenceCount",
      "outputs": [
        {
          "internalType": "uint8",
          "name": "",
          "type": "uint8"
        }
      ],
      "stateMutability": "view",
      "type": "function",
      "constant": true
    },
    {
      "inputs": [],
      "name": "owner",
      "outputs": [
        {
          "internalType": "address",
          "name": "",
          "type": "address"
        }
      ],
      "stateMutability": "view",
      "type": "function",
      "constant": true
    },
    {
      "inputs": [],
      "name": "paused",
      "outputs": [
        {
          "internalType": "bool",
          "name": "",
          "type": "bool"
        }
      ],
      "stateMutability": "view",
      "type": "function",
      "constant": true
    },
    {
      "inputs": [],
      "name": "renounceOwnership",
      "outputs": [],
      "stateMutability": "nonpayable",
      "type": "function"
    },
    {
      "inputs": [],
      "name": "timeToExpiry",
      "outputs": [
        {
          "internalType": "uint32",
          "name": "",
          "type": "uint32"
        }
      ],
      "stateMutability": "view",
      "type": "function",
      "constant": true
    },
    {
      "inputs": [
        {
          "internalType": "address",
          "name": "newOwner",
          "type": "address"
        }
      ],
      "name": "transferOwnership",
      "outputs": [],
      "stateMutability": "nonpayable",
      "type": "function"
    },
    {
      "inputs": [
        {
          "internalType": "string",
          "name": "hash",
          "type": "string"
        },
        {
          "internalType": "string",
          "name": "title",
          "type": "string"
        }
      ],
      "name": "manifestAuthorship",
      "outputs": [],
      "stateMutability": "nonpayable",
      "type": "function"
    },
    {
      "inputs": [
        {
          "internalType": "string",
          "name": "hash",
          "type": "string"
        },
        {
          "internalType": "string",
          "name": "title",
          "type": "string"
        },
        {
          "internalType": "address[]",
          "name": "additionalAuthors",
          "type": "address[]"
        }
      ],
      "name": "manifestJointAuthorship",
      "outputs": [],
      "stateMutability": "nonpayable",
      "type": "function"
    },
    {
      "inputs": [
        {
          "internalType": "string",
          "name": "hash",
          "type": "string"
        }
      ],
      "name": "getManifestation",
      "outputs": [
        {
          "internalType": "string",
          "name": "",
          "type": "string"
        },
        {
          "internalType": "address[]",
          "name": "",
          "type": "address[]"
        },
        {
          "internalType": "uint256",
          "name": "",
          "type": "uint256"
        },
        {
          "internalType": "uint256",
          "name": "",
          "type": "uint256"
        }
      ],
      "stateMutability": "view",
      "type": "function",
      "constant": true
    },
    {
      "inputs": [
        {
          "internalType": "string",
          "name": "hash",
          "type": "string"
        }
      ],
      "name": "addEvidence",
      "outputs": [],
      "stateMutability": "nonpayable",
      "type": "function"
    },
    {
      "inputs": [],
      "name": "pause",
      "outputs": [],
      "stateMutability": "nonpayable",
      "type": "function"
    },
    {
      "inputs": [],
      "name": "unpause",
      "outputs": [],
      "stateMutability": "nonpayable",
      "type": "function"
    }
  ],
  "bytecode": "0x608060405234801561001057600080fd5b506040516114fd3803806114fd83398101604081905261002f9161009c565b600080546001600160a01b031916339081178255604051909182917f8be0079c531659141344cd1fd0a4f28419497f9722a3daafe3b4186f6b6457e0908290a3506000805460ff60a01b191690556003805463ffffffff191663ffffffff929092169190911790556100c9565b6000602082840312156100ae57600080fd5b815163ffffffff811681146100c257600080fd5b9392505050565b611425806100d86000396000f3fe608060405234801561001057600080fd5b50600436106100cf5760003560e01c8063646986fb1161008c5780638da5cb5b116100665780638da5cb5b14610193578063b0594ad5146101ae578063bfbc9412146101d1578063f2fde38b146101e457600080fd5b8063646986fb1461015e578063715018a6146101835780638456cb591461018b57600080fd5b8063144b763a146100d45780633e84531c146100e95780633f4ba83a1461011357806347fc89b61461011b57806351a94a5f1461012e5780635c975abb14610141575b600080fd5b6100e76100e2366004610f6b565b6101f7565b005b6003546100f99063ffffffff1681565b60405163ffffffff90911681526020015b60405180910390f35b6100e7610251565b6100e7610129366004610fc3565b610285565b6100e761013c366004610f86565b6104ba565b600054600160a01b900460ff16604051901515815260200161010a565b61017161016c366004610f86565b610552565b60405160ff909116815260200161010a565b6100e761057d565b6100e76105f1565b6000546040516001600160a01b03909116815260200161010a565b6101c16101bc366004610f86565b610623565b60405161010a949392919061116a565b6100e76101df366004611027565b6107a6565b6100e76101f2366004610f6b565b610ab8565b6000546001600160a01b0316331461022a5760405162461bcd60e51b81526004016102219061127f565b60405180910390fd5b6001600160a01b03166000908152600160208190526040909120805460ff19169091179055565b6000546001600160a01b0316331461027b5760405162461bcd60e51b81526004016102219061127f565b610283610ba2565b565b818160008151116102ce5760405162461bcd60e51b815260206004820152601360248201527210481d1a5d1b19481a5cc81c995c5d5a5c9959606a1b6044820152606401610221565b6004826040516102de919061114e565b908152604051908190036020019020600101541580610331575061032160048360405161030b919061114e565b9081526020016040518091039020600201610c3f565b8015610331575061033182610c5d565b61034d5760405162461bcd60e51b815260040161022190611202565b600054600160a01b900460ff16156103775760405162461bcd60e51b815260040161022190611255565b6040805160018082528183019092526000916020808301908036833701905050905033816000815181106103ad576103ad6113c3565b60200260200101906001600160a01b031690816001600160a01b031681525050806004866040516103de919061114e565b90815260200160405180910390206001019080519060200190610402929190610df1565b505080600483604051610415919061114e565b90815260200160405180910390206000019080519060200190610439929190610e56565b506003546040516104719163ffffffff169060049061045990869061114e565b90815260405190819003602001902060020190610c89565b336001600160a01b03167f9221287e8a14b313bd740c10367708dd71a6bd842aaf2848fbee7d4fb4ca329c83836040516104ac9291906111d4565b60405180910390a250505050565b60006004826040516104cc919061114e565b90815260405190819003602001902080546104e690611352565b9050116105465760405162461bcd60e51b815260206004820152602860248201527f546865206d616e69666573746174696f6e2065766964656e6365642073686f756044820152671b1908195e1a5cdd60c21b6064820152608401610221565b61054f81610ca3565b50565b6000600282604051610564919061114e565b9081526040519081900360200190205460ff1692915050565b6000546001600160a01b031633146105a75760405162461bcd60e51b81526004016102219061127f565b600080546040516001600160a01b03909116907f8be0079c531659141344cd1fd0a4f28419497f9722a3daafe3b4186f6b6457e0908390a3600080546001600160a01b0319169055565b6000546001600160a01b0316331461061b5760405162461bcd60e51b81526004016102219061127f565b610283610d79565b606080600080600485604051610639919061114e565b9081526040519081900360200181209060049061065790889061114e565b9081526020016040518091039020600101600487604051610678919061114e565b908152604051908190036020018120600201549060049061069a908a9061114e565b9081526020016040518091039020600201600101548380546106bb90611352565b80601f01602080910402602001604051908101604052809291908181526020018280546106e790611352565b80156107345780601f1061070957610100808354040283529160200191610734565b820191906000526020600020905b81548152906001019060200180831161071757829003601f168201915b505050505093508280548060200260200160405190810160405280929190818152602001828054801561079057602002820191906000526020600020905b81546001600160a01b03168152600190910190602001808311610772575b5050505050925093509350935093509193509193565b828260008151116107ef5760405162461bcd60e51b815260206004820152601360248201527210481d1a5d1b19481a5cc81c995c5d5a5c9959606a1b6044820152606401610221565b6004826040516107ff919061114e565b90815260405190819003602001902060010154158061083c575061082c60048360405161030b919061114e565b801561083c575061083c82610c5d565b6108585760405162461bcd60e51b815260040161022190611202565b600054600160a01b900460ff16156108825760405162461bcd60e51b815260040161022190611255565b60408351106108e25760405162461bcd60e51b815260206004820152602660248201527f4a6f696e7420617574686f7273686970206c696d6974656420746f20363420616044820152657574686f727360d01b6064820152608401610221565b6000835160016108f291906112e5565b67ffffffffffffffff81111561090a5761090a6113d9565b604051908082528060200260200182016040528015610933578160200160208202803683370190505b509050338160008151811061094a5761094a6113c3565b60200260200101906001600160a01b031690816001600160a01b03168152505060005b84518160ff1610156109e157848160ff168151811061098e5761098e6113c3565b6020026020010151828260016109a491906112fd565b60ff16815181106109b7576109b76113c3565b6001600160a01b0390921660209283029190910190910152806109d98161138d565b91505061096d565b50806004876040516109f3919061114e565b90815260200160405180910390206001019080519060200190610a17929190610df1565b505080600483604051610a2a919061114e565b90815260200160405180910390206000019080519060200190610a4e929190610e56565b50600354604051610a6e9163ffffffff169060049061045990869061114e565b336001600160a01b03167f9221287e8a14b313bd740c10367708dd71a6bd842aaf2848fbee7d4fb4ca329c8383604051610aa99291906111d4565b60405180910390a25050505050565b6000546001600160a01b03163314610ae25760405162461bcd60e51b81526004016102219061127f565b6001600160a01b038116610b475760405162461bcd60e51b815260206004820152602660248201527f4f776e61626c653a206e6577206f776e657220697320746865207a65726f206160448201526564647265737360d01b6064820152608401610221565b600080546040516001600160a01b03808516939216917f8be0079c531659141344cd1fd0a4f28419497f9722a3daafe3b4186f6b6457e091a3600080546001600160a01b0319166001600160a01b0392909216919091179055565b600054600160a01b900460ff16610bf25760405162461bcd60e51b815260206004820152601460248201527314185d5cd8589b194e881b9bdd081c185d5cd95960621b6044820152606401610221565b6000805460ff60a01b191690557f5db9ee0a495bf2e6ff9c91a7834c1ba4fdd244a5e8aa4e537bd38aeae4b073aa335b6040516001600160a01b03909116815260200160405180910390a1565b6000808260010154118015610c575750428260010154105b92915050565b6000600282604051610c6f919061114e565b9081526040519081900360200190205460ff161592915050565b42808355610c979082610dde565b82600101819055505050565b3360009081526001602052604090205460ff16610d155760405162461bcd60e51b815260206004820152602a60248201527f4f6e6c7920726567697374657265642065766964656e63652070726f766964656044820152691c9cc8185b1b1bddd95960b21b6064820152608401610221565b610d436001600283604051610d2a919061114e565b9081526040519081900360200190205460ff1690610dde565b600282604051610d53919061114e565b908152604051908190036020019020805460ff9290921660ff1990921691909117905550565b600054600160a01b900460ff1615610da35760405162461bcd60e51b815260040161022190611255565b6000805460ff60a01b1916600160a01b1790557f62e78cea01bee320cd4e420270b5ea74000d11b0c9f74754ebdbfc544b05a258610c223390565b6000610dea82846112e5565b9392505050565b828054828255906000526020600020908101928215610e46579160200282015b82811115610e4657825182546001600160a01b0319166001600160a01b03909116178255602090920191600190910190610e11565b50610e52929150610eca565b5090565b828054610e6290611352565b90600052602060002090601f016020900481019282610e845760008555610e46565b82601f10610e9d57805160ff1916838001178555610e46565b82800160010185558215610e46579182015b82811115610e46578251825591602001919060010190610eaf565b5b80821115610e525760008155600101610ecb565b80356001600160a01b0381168114610ef657600080fd5b919050565b600082601f830112610f0c57600080fd5b813567ffffffffffffffff811115610f2657610f266113d9565b610f39601f8201601f19166020016112b4565b818152846020838601011115610f4e57600080fd5b816020850160208301376000918101602001919091529392505050565b600060208284031215610f7d57600080fd5b610dea82610edf565b600060208284031215610f9857600080fd5b813567ffffffffffffffff811115610faf57600080fd5b610fbb84828501610efb565b949350505050565b60008060408385031215610fd657600080fd5b823567ffffffffffffffff80821115610fee57600080fd5b610ffa86838701610efb565b9350602085013591508082111561101057600080fd5b5061101d85828601610efb565b9150509250929050565b60008060006060848603121561103c57600080fd5b833567ffffffffffffffff8082111561105457600080fd5b61106087838801610efb565b945060209150818601358181111561107757600080fd5b61108388828901610efb565b94505060408601358181111561109857600080fd5b8601601f810188136110a957600080fd5b8035828111156110bb576110bb6113d9565b8060051b92506110cc8484016112b4565b8181528481019083860185850187018c10156110e757600080fd5b600095505b83861015611111576110fd81610edf565b8352600195909501949186019186016110ec565b508096505050505050509250925092565b6000815180845261113a816020860160208601611322565b601f01601f19169290920160200192915050565b60008251611160818460208701611322565b9190910192915050565b60808152600061117d6080830187611122565b82810360208481019190915286518083528782019282019060005b818110156111bd5784516001600160a01b031683529383019391830191600101611198565b505060408501969096525050506060015292915050565b6040815260006111e76040830185611122565b82810360208401526111f98185611122565b95945050505050565b60208082526033908201527f416c7265616479207265676973746572656420616e64206e6f742065787069726040820152726564206f7220776974682065766964656e636560681b606082015260800190565b60208082526010908201526f14185d5cd8589b194e881c185d5cd95960821b604082015260600190565b6020808252818101527f4f776e61626c653a2063616c6c6572206973206e6f7420746865206f776e6572604082015260600190565b604051601f8201601f1916810167ffffffffffffffff811182821017156112dd576112dd6113d9565b604052919050565b600082198211156112f8576112f86113ad565b500190565b600060ff821660ff84168060ff0382111561131a5761131a6113ad565b019392505050565b60005b8381101561133d578181015183820152602001611325565b8381111561134c576000848401525b50505050565b600181811c9082168061136657607f821691505b6020821081141561138757634e487b7160e01b600052602260045260246000fd5b50919050565b600060ff821660ff8114156113a4576113a46113ad565b60010192915050565b634e487b7160e01b600052601160045260246000fd5b634e487b7160e01b600052603260045260246000fd5b634e487b7160e01b600052604160045260246000fdfea26469706673582212208f0a3d82b10019312573567d30b0182bb9ed84c09b0fdadd8f4f1130e3bbfe7864736f6c63430008060033",
  "immutableReferences": {},
  "source": "// SPDX-License-Identifier: GPL-3.0-or-later\n\npragma solidity ^0.8.6;\n\nimport \"openzeppelin-solidity/contracts/access/Ownable.sol\";\nimport \"openzeppelin-solidity/contracts/security/Pausable.sol\";\nimport \"./ExpirableLib.sol\";\nimport \"./Evidencable.sol\";\n\n/// @title Contract for copyright authorship registration through creations manifestations\n/// @author Roberto Garca (http://rhizomik.net/~roberto/)\ncontract Manifestations is Ownable, Pausable, Evidencable {\n\n    using ExpirableLib for ExpirableLib.TimeAndExpiry;\n\n    struct Manifestation {\n        string title;\n        address[] authors;\n        ExpirableLib.TimeAndExpiry time;\n    }\n\n    uint32 public timeToExpiry;\n    mapping(string => Manifestation) private manifestations;\n\n    event ManifestEvent(string hash, string title, address indexed manifester);\n    event AddedEvidence(uint8 evidenceCount);\n\n    constructor(uint32 _timeToExpiry) {\n        timeToExpiry = _timeToExpiry;\n    }\n\n    /// @dev Modifier implementing the common logic for single and joint authorship.\n    /// Checks title and that hash not registered or expired. Then stores title and sets expiry.\n    /// Finally, emits ManifestEvent\n    /// @param hash Hash of the manifestation content, for instance IPFS Base58 Hash\n    /// @param title The title of the manifestation\n    modifier registerIfAvailable(string memory hash, string memory title) {\n        require(bytes(title).length > 0, \"A title is required\");\n        require(manifestations[hash].authors.length == 0 ||\n                (manifestations[hash].time.isExpired() && isUnevidenced(hash)),\n            \"Already registered and not expired or with evidence\");\n        _;\n        manifestations[hash].title = title;\n        manifestations[hash].time.setExpiry(timeToExpiry);\n        emit ManifestEvent(hash, title, msg.sender);\n    }\n\n    /// @notice Register single authorship for `msg.sender` of the manifestation with title `title`\n    /// and hash `hash`. Requires hash not previously registered or expired.\n    /// @dev To be used when there is just one author, which is considered to be the message sender\n    /// @param hash Hash of the manifestation content, for instance IPFS Base58 Hash\n    /// @param title The title of the manifestation\n    function manifestAuthorship(string memory hash, string memory title)\n    public registerIfAvailable(hash, title) whenNotPaused() {\n        address[] memory authors = new address[](1);\n        authors[0] = msg.sender;\n        manifestations[hash].authors = authors;\n    }\n\n    /// @notice Register joint authorship for `msg.sender` plus additional authors\n    /// `additionalAuthors` of the manifestation with title `title` and hash `hash`.\n    /// Requires hash not previously registered or expired and at most 64 authors,\n    /// including the one registering.\n    /// @dev To be used when there are multiple authors\n    /// @param hash Hash of the manifestation content, for instance IPFS Base58 Hash\n    /// @param title The title of the manifestation\n    /// @param additionalAuthors The additional authors,\n    /// including the one registering that becomes the first author\n    function manifestJointAuthorship(string memory hash, string memory title, address[] memory additionalAuthors)\n    public registerIfAvailable(hash, title) whenNotPaused() {\n        require(additionalAuthors.length < 64, \"Joint authorship limited to 64 authors\");\n        address[] memory authors = new address[](additionalAuthors.length + 1);\n        authors[0] = msg.sender;\n        for (uint8 i = 0; i < additionalAuthors.length; i++)\n            authors[i+1] = additionalAuthors[i];\n        manifestations[hash].authors = authors;\n    }\n\n    /// @notice Retrieve the title and authors of the manifestation with content hash `hash`.\n    /// @param hash Hash of the manifestation content, for instance IPFS Base58 Hash\n    /// @return The title and authors of the manifestation\n    function getManifestation(string memory hash) public view\n    returns (string memory, address[] memory, uint256, uint256) {\n        return (manifestations[hash].title,\n                manifestations[hash].authors,\n                manifestations[hash].time.creationTime,\n                manifestations[hash].time.expiryTime);\n    }\n\n    /// @notice Adds an evidence if there is already a manifestation for `hash`.\n    /// @param hash Hash of the manifestation content, for instance IPFS Base58 Hash\n    function addEvidence(string memory hash) public override {\n        require(bytes(manifestations[hash].title).length > 0, \"The manifestation evidenced should exist\");\n        super.addEvidence(hash);\n    }\n\n    function pause() public onlyOwner {\n        super._pause();\n    }\n\n    function unpause() public onlyOwner {\n        super._unpause();\n    }\n}\n",
  "sourcePath": "/Users/roberto/Proyectos/CopyrightLY/copyrightly/contracts/Manifestations.sol",
  "compiler": {
    "name": "solc",
    "version": "0.8.6+commit.11564f7e.Emscripten.clang"
  },
  "schemaVersion": "3.4.1",
  "updatedAt": "2021-06-30T19:44:43.670Z",
  "networkType": "ethereum",
  "devdoc": {
    "author": "Roberto Garca (http://rhizomik.net/~roberto/)",
    "kind": "dev",
    "methods": {
      "addEvidence(string)": {
        "params": {
          "hash": "Hash of the manifestation content, for instance IPFS Base58 Hash"
        }
      },
      "addEvidenceProvider(address)": {
        "params": {
          "provider": "The address of a contract providing evidence"
        }
      },
      "getEvidenceCount(string)": {
        "params": {
          "hash": "Hash of the manifestation content, for instance IPFS Base58 Hash"
        }
      },
      "getManifestation(string)": {
        "params": {
          "hash": "Hash of the manifestation content, for instance IPFS Base58 Hash"
        },
        "returns": {
          "_0": "The title and authors of the manifestation"
        }
      },
      "manifestAuthorship(string,string)": {
        "details": "To be used when there is just one author, which is considered to be the message sender",
        "params": {
          "hash": "Hash of the manifestation content, for instance IPFS Base58 Hash",
          "title": "The title of the manifestation"
        }
      },
      "manifestJointAuthorship(string,string,address[])": {
        "details": "To be used when there are multiple authors",
        "params": {
          "additionalAuthors": "The additional authors, including the one registering that becomes the first author",
          "hash": "Hash of the manifestation content, for instance IPFS Base58 Hash",
          "title": "The title of the manifestation"
        }
      },
      "owner()": {
        "details": "Returns the address of the current owner."
      },
      "paused()": {
        "details": "Returns true if the contract is paused, and false otherwise."
      },
      "renounceOwnership()": {
        "details": "Leaves the contract without owner. It will not be possible to call `onlyOwner` functions anymore. Can only be called by the current owner. NOTE: Renouncing ownership will leave the contract without an owner, thereby removing any functionality that is only available to the owner."
      },
      "transferOwnership(address)": {
        "details": "Transfers ownership of the contract to a new account (`newOwner`). Can only be called by the current owner."
      }
    },
    "title": "Contract for copyright authorship registration through creations manifestations",
    "version": 1
  },
  "userdoc": {
    "kind": "user",
    "methods": {
      "addEvidence(string)": {
        "notice": "Adds an evidence if there is already a manifestation for `hash`."
      },
      "addEvidenceProvider(address)": {
        "notice": "Adds an evidence provider `provider` contract that can then call addEvidence(...) to add evidence."
      },
      "getEvidenceCount(string)": {
        "notice": "Get the evidence count for the manifestation with `hash`."
      },
      "getManifestation(string)": {
        "notice": "Retrieve the title and authors of the manifestation with content hash `hash`."
      },
      "manifestAuthorship(string,string)": {
        "notice": "Register single authorship for `msg.sender` of the manifestation with title `title` and hash `hash`. Requires hash not previously registered or expired."
      },
      "manifestJointAuthorship(string,string,address[])": {
        "notice": "Register joint authorship for `msg.sender` plus additional authors `additionalAuthors` of the manifestation with title `title` and hash `hash`. Requires hash not previously registered or expired and at most 64 authors, including the one registering."
      }
    },
    "version": 1
  }
}