{
  "contractName": "Manifestations",
  "abi": [
    {
      "constant": false,
      "inputs": [
        {
          "name": "provider",
          "type": "address"
        }
      ],
      "name": "addEvidenceProvider",
      "outputs": [],
      "payable": false,
      "stateMutability": "nonpayable",
      "type": "function"
    },
    {
      "constant": true,
      "inputs": [],
      "name": "timeToExpiry",
      "outputs": [
        {
          "name": "",
          "type": "uint32"
        }
      ],
      "payable": false,
      "stateMutability": "view",
      "type": "function"
    },
    {
      "constant": false,
      "inputs": [],
      "name": "unpause",
      "outputs": [],
      "payable": false,
      "stateMutability": "nonpayable",
      "type": "function"
    },
    {
      "constant": true,
      "inputs": [
        {
          "name": "account",
          "type": "address"
        }
      ],
      "name": "isPauser",
      "outputs": [
        {
          "name": "",
          "type": "bool"
        }
      ],
      "payable": false,
      "stateMutability": "view",
      "type": "function"
    },
    {
      "constant": true,
      "inputs": [],
      "name": "paused",
      "outputs": [
        {
          "name": "",
          "type": "bool"
        }
      ],
      "payable": false,
      "stateMutability": "view",
      "type": "function"
    },
    {
      "constant": true,
      "inputs": [
        {
          "name": "hash",
          "type": "string"
        }
      ],
      "name": "getEvidenceCount",
      "outputs": [
        {
          "name": "",
          "type": "uint8"
        }
      ],
      "payable": false,
      "stateMutability": "view",
      "type": "function"
    },
    {
      "constant": false,
      "inputs": [],
      "name": "renouncePauser",
      "outputs": [],
      "payable": false,
      "stateMutability": "nonpayable",
      "type": "function"
    },
    {
      "constant": false,
      "inputs": [],
      "name": "renounceOwnership",
      "outputs": [],
      "payable": false,
      "stateMutability": "nonpayable",
      "type": "function"
    },
    {
      "constant": false,
      "inputs": [
        {
          "name": "account",
          "type": "address"
        }
      ],
      "name": "addPauser",
      "outputs": [],
      "payable": false,
      "stateMutability": "nonpayable",
      "type": "function"
    },
    {
      "constant": false,
      "inputs": [],
      "name": "pause",
      "outputs": [],
      "payable": false,
      "stateMutability": "nonpayable",
      "type": "function"
    },
    {
      "constant": true,
      "inputs": [],
      "name": "owner",
      "outputs": [
        {
          "name": "",
          "type": "address"
        }
      ],
      "payable": false,
      "stateMutability": "view",
      "type": "function"
    },
    {
      "constant": true,
      "inputs": [],
      "name": "isOwner",
      "outputs": [
        {
          "name": "",
          "type": "bool"
        }
      ],
      "payable": false,
      "stateMutability": "view",
      "type": "function"
    },
    {
      "constant": false,
      "inputs": [
        {
          "name": "newOwner",
          "type": "address"
        }
      ],
      "name": "transferOwnership",
      "outputs": [],
      "payable": false,
      "stateMutability": "nonpayable",
      "type": "function"
    },
    {
      "inputs": [
        {
          "name": "_timeToExpiry",
          "type": "uint32"
        }
      ],
      "payable": false,
      "stateMutability": "nonpayable",
      "type": "constructor"
    },
    {
      "anonymous": false,
      "inputs": [
        {
          "indexed": false,
          "name": "hash",
          "type": "string"
        },
        {
          "indexed": false,
          "name": "title",
          "type": "string"
        },
        {
          "indexed": true,
          "name": "manifester",
          "type": "address"
        }
      ],
      "name": "ManifestEvent",
      "type": "event"
    },
    {
      "anonymous": false,
      "inputs": [
        {
          "indexed": false,
          "name": "evidenceCount",
          "type": "uint8"
        }
      ],
      "name": "AddedEvidence",
      "type": "event"
    },
    {
      "anonymous": false,
      "inputs": [
        {
          "indexed": true,
          "name": "previousOwner",
          "type": "address"
        },
        {
          "indexed": true,
          "name": "newOwner",
          "type": "address"
        }
      ],
      "name": "OwnershipTransferred",
      "type": "event"
    },
    {
      "anonymous": false,
      "inputs": [
        {
          "indexed": false,
          "name": "account",
          "type": "address"
        }
      ],
      "name": "Paused",
      "type": "event"
    },
    {
      "anonymous": false,
      "inputs": [
        {
          "indexed": false,
          "name": "account",
          "type": "address"
        }
      ],
      "name": "Unpaused",
      "type": "event"
    },
    {
      "anonymous": false,
      "inputs": [
        {
          "indexed": true,
          "name": "account",
          "type": "address"
        }
      ],
      "name": "PauserAdded",
      "type": "event"
    },
    {
      "anonymous": false,
      "inputs": [
        {
          "indexed": true,
          "name": "account",
          "type": "address"
        }
      ],
      "name": "PauserRemoved",
      "type": "event"
    },
    {
      "constant": false,
      "inputs": [
        {
          "name": "hash",
          "type": "string"
        },
        {
          "name": "title",
          "type": "string"
        }
      ],
      "name": "manifestAuthorship",
      "outputs": [],
      "payable": false,
      "stateMutability": "nonpayable",
      "type": "function"
    },
    {
      "constant": false,
      "inputs": [
        {
          "name": "hash",
          "type": "string"
        },
        {
          "name": "title",
          "type": "string"
        },
        {
          "name": "additionalAuthors",
          "type": "address[]"
        }
      ],
      "name": "manifestJointAuthorship",
      "outputs": [],
      "payable": false,
      "stateMutability": "nonpayable",
      "type": "function"
    },
    {
      "constant": true,
      "inputs": [
        {
          "name": "hash",
          "type": "string"
        }
      ],
      "name": "getManifestation",
      "outputs": [
        {
          "name": "",
          "type": "string"
        },
        {
          "name": "",
          "type": "address[]"
        },
        {
          "name": "",
          "type": "uint256"
        },
        {
          "name": "",
          "type": "uint256"
        }
      ],
      "payable": false,
      "stateMutability": "view",
      "type": "function"
    },
    {
      "constant": false,
      "inputs": [
        {
          "name": "hash",
          "type": "string"
        }
      ],
      "name": "addEvidence",
      "outputs": [],
      "payable": false,
      "stateMutability": "nonpayable",
      "type": "function"
    }
  ],
  "bytecode": "0x60806040523480156200001157600080fd5b50604051602080620023e8833981018060405260208110156200003357600080fd5b50516200005b6200004c640100000000620000f0810204565b640100000000620000f4810204565b6001805460ff1916905560006200007a640100000000620000f0810204565b6001805461010060a860020a031916610100600160a060020a03841690810291909117909155604051919250906000907f8be0079c531659141344cd1fd0a4f28419497f9722a3daafe3b4186f6b6457e0908290a3506004805463ffffffff191663ffffffff9290921691909117905562000272565b3390565b6200010f60008264010000000062001e196200014682021704565b604051600160a060020a038216907f6719d08c1888103bea251a4ed56406bd0c3e69723c8a1686e017e7bbe159b6f890600090a250565b6200015b8282640100000000620001ed810204565b15620001c857604080517f08c379a000000000000000000000000000000000000000000000000000000000815260206004820152601f60248201527f526f6c65733a206163636f756e7420616c72656164792068617320726f6c6500604482015290519081900360640190fd5b600160a060020a0316600090815260209190915260409020805460ff19166001179055565b6000600160a060020a038216151562000252576040517f08c379a0000000000000000000000000000000000000000000000000000000008152600401808060200182810382526022815260200180620023c66022913960400191505060405180910390fd5b50600160a060020a03166000908152602091909152604090205460ff1690565b61214480620002826000396000f3fe608060405234801561001057600080fd5b5060043610610128576000357c0100000000000000000000000000000000000000000000000000000000900480636ef8d66d116100bf5780638da5cb5b1161008e5780638da5cb5b1461048d5780638f32d59b146104b1578063b0594ad5146104b9578063bfbc941214610626578063f2fde38b146107d757610128565b80636ef8d66d1461044f578063715018a61461045757806382dc1ec41461045f5780638456cb591461048557610128565b806347fc89b6116100fb57806347fc89b6146101b857806351a94a5f146102e55780635c975abb1461038b578063646986fb1461039357610128565b8063144b763a1461012d5780633e84531c146101555780633f4ba83a1461017657806346fbf68e1461017e575b600080fd5b6101536004803603602081101561014357600080fd5b5035600160a060020a03166107fd565b005b61015d61087f565b6040805163ffffffff9092168252519081900360200190f35b61015361088b565b6101a46004803603602081101561019457600080fd5b5035600160a060020a0316610987565b604080519115158252519081900360200190f35b610153600480360360408110156101ce57600080fd5b8101906020810181356401000000008111156101e957600080fd5b8201836020820111156101fb57600080fd5b8035906020019184600183028401116401000000008311171561021d57600080fd5b91908080601f016020809104026020016040519081016040528093929190818152602001838380828437600092019190915250929594936020810193503591505064010000000081111561027057600080fd5b82018360208201111561028257600080fd5b803590602001918460018302840111640100000000831117156102a457600080fd5b91908080601f01602080910402602001604051908101604052809392919081815260200183838082843760009201919091525092955061099f945050505050565b610153600480360360208110156102fb57600080fd5b81019060208101813564010000000081111561031657600080fd5b82018360208201111561032857600080fd5b8035906020019184600183028401116401000000008311171561034a57600080fd5b91908080601f016020809104026020016040519081016040528093929190818152602001838380828437600092019190915250929550610e50945050505050565b6101a4610f1c565b610439600480360360208110156103a957600080fd5b8101906020810181356401000000008111156103c457600080fd5b8201836020820111156103d657600080fd5b803590602001918460018302840111640100000000831117156103f857600080fd5b91908080601f016020809104026020016040519081016040528093929190818152602001838380828437600092019190915250929550610f26945050505050565b6040805160ff9092168252519081900360200190f35b610153610f91565b610153610fa3565b6101536004803603602081101561047557600080fd5b5035600160a060020a031661105e565b6101536110b2565b61049561118d565b60408051600160a060020a039092168252519081900360200190f35b6101a46111a1565b61055f600480360360208110156104cf57600080fd5b8101906020810181356401000000008111156104ea57600080fd5b8201836020820111156104fc57600080fd5b8035906020019184600183028401116401000000008311171561051e57600080fd5b91908080601f0160208091040260200160405190810160405280939291908181526020018383808284376000920191909152509295506111cc945050505050565b604051808060200180602001858152602001848152602001838103835287818151815260200191508051906020019080838360005b838110156105ac578181015183820152602001610594565b50505050905090810190601f1680156105d95780820380516001836020036101000a031916815260200191505b508381038252865181528651602091820191808901910280838360005b8381101561060e5781810151838201526020016105f6565b50505050905001965050505050505060405180910390f35b6101536004803603606081101561063c57600080fd5b81019060208101813564010000000081111561065757600080fd5b82018360208201111561066957600080fd5b8035906020019184600183028401116401000000008311171561068b57600080fd5b91908080601f01602080910402602001604051908101604052809392919081815260200183838082843760009201919091525092959493602081019350359150506401000000008111156106de57600080fd5b8201836020820111156106f057600080fd5b8035906020019184600183028401116401000000008311171561071257600080fd5b91908080601f016020809104026020016040519081016040528093929190818152602001838380828437600092019190915250929594936020810193503591505064010000000081111561076557600080fd5b82018360208201111561077757600080fd5b8035906020019184602083028401116401000000008311171561079957600080fd5b91908080602002602001604051908101604052809392919081815260200183836020028082843760009201919091525092955061145e945050505050565b610153600480360360208110156107ed57600080fd5b5035600160a060020a0316611947565b6108056111a1565b151561085b576040805160e560020a62461bcd02815260206004820181905260248201527f4f776e61626c653a2063616c6c6572206973206e6f7420746865206f776e6572604482015290519081900360640190fd5b600160a060020a03166000908152600260205260409020805460ff19166001179055565b60045463ffffffff1681565b61089b6108966119ae565b610987565b15156108db5760405160e560020a62461bcd028152600401808060200182810382526030815260200180611fd56030913960400191505060405180910390fd5b60015460ff161515610937576040805160e560020a62461bcd02815260206004820152601460248201527f5061757361626c653a206e6f7420706175736564000000000000000000000000604482015290519081900360640190fd5b6001805460ff191690557f5db9ee0a495bf2e6ff9c91a7834c1ba4fdd244a5e8aa4e537bd38aeae4b073aa61096a6119ae565b60408051600160a060020a039092168252519081900360200190a1565b6000610999818363ffffffff6119b216565b92915050565b8181600081511115156109fc576040805160e560020a62461bcd02815260206004820152601360248201527f41207469746c6520697320726571756972656400000000000000000000000000604482015290519081900360640190fd5b6005826040518082805190602001908083835b60208310610a2e5780518252601f199092019160209182019101610a0f565b51815160209384036101000a6000190180199092169116179052920194855250604051938490030190922060010154159150819050610ae45750610ad46005836040518082805190602001908083835b60208310610a9d5780518252601f199092019160209182019101610a7e565b51815160209384036101000a600019018019909216911617905292019485525060405193849003019092206002019150611a1e9050565b8015610ae45750610ae482611a38565b1515610b245760405160e560020a62461bcd02815260040180806020018281038252603381526020018061202b6033913960400191505060405180910390fd5b60015460ff1615610b7f576040805160e560020a62461bcd02815260206004820152601060248201527f5061757361626c653a2070617573656400000000000000000000000000000000604482015290519081900360640190fd5b6040805160018082528183019092526060916020808301908038833901905050905033816000815181101515610bb157fe5b90602001906020020190600160a060020a03169081600160a060020a031681525050806005866040518082805190602001908083835b60208310610c065780518252601f199092019160209182019101610be7565b6001836020036101000a03801982511681845116808217855250505050505090500191505090815260200160405180910390206001019080519060200190610c4f929190611e9d565b5050806005836040518082805190602001908083835b60208310610c845780518252601f199092019160209182019101610c65565b51815160209384036101000a60001901801990921691161790529201948552506040519384900381019093208451610cc59591949190910192509050611f0f565b506004546040518351610d409263ffffffff1691600591869190819060208401908083835b60208310610d095780518252601f199092019160209182019101610cea565b51815160209384036101000a6000190180199092169116179052920194855250604051938490030190922060020192915050611aa4565b33600160a060020a03167f9221287e8a14b313bd740c10367708dd71a6bd842aaf2848fbee7d4fb4ca329c8383604051808060200180602001838103835285818151815260200191508051906020019080838360005b83811015610dae578181015183820152602001610d96565b50505050905090810190601f168015610ddb5780820380516001836020036101000a031916815260200191505b50838103825284518152845160209182019186019080838360005b83811015610e0e578181015183820152602001610df6565b50505050905090810190601f168015610e3b5780820380516001836020036101000a031916815260200191505b5094505050505060405180910390a250505050565b60006005826040518082805190602001908083835b60208310610e845780518252601f199092019160209182019101610e65565b6001836020036101000a0380198251168184511680821785525050505050509050019150509081526020016040518091039020600001805460018160011615610100020316600290049050111515610f105760405160e560020a62461bcd0281526004018080602001828103825260288152602001806120f16028913960400191505060405180910390fd5b610f1981611ac4565b50565b60015460ff165b90565b60006003826040518082805190602001908083835b60208310610f5a5780518252601f199092019160209182019101610f3b565b51815160209384036101000a600019018019909216911617905292019485525060405193849003019092205460ff16949350505050565b610fa1610f9c6119ae565b611bfb565b565b610fab6111a1565b1515611001576040805160e560020a62461bcd02815260206004820181905260248201527f4f776e61626c653a2063616c6c6572206973206e6f7420746865206f776e6572604482015290519081900360640190fd5b6001546040516000916101009004600160a060020a0316907f8be0079c531659141344cd1fd0a4f28419497f9722a3daafe3b4186f6b6457e0908390a36001805474ffffffffffffffffffffffffffffffffffffffff0019169055565b6110696108966119ae565b15156110a95760405160e560020a62461bcd028152600401808060200182810382526030815260200180611fd56030913960400191505060405180910390fd5b610f1981611c43565b6110bd6108966119ae565b15156110fd5760405160e560020a62461bcd028152600401808060200182810382526030815260200180611fd56030913960400191505060405180910390fd5b60015460ff1615611158576040805160e560020a62461bcd02815260206004820152601060248201527f5061757361626c653a2070617573656400000000000000000000000000000000604482015290519081900360640190fd5b6001805460ff1916811790557f62e78cea01bee320cd4e420270b5ea74000d11b0c9f74754ebdbfc544b05a25861096a6119ae565b6001546101009004600160a060020a031690565b6001546000906101009004600160a060020a03166111bd6119ae565b600160a060020a031614905090565b6060806000806005856040518082805190602001908083835b602083106112045780518252601f1990920191602091820191016111e5565b51815160209384036101000a6000190180199092169116179052920194855250604051938490038101842089519094600594508a9350918291908401908083835b602083106112645780518252601f199092019160209182019101611245565b6001836020036101000a03801982511681845116808217855250505050505090500191505090815260200160405180910390206001016005876040518082805190602001908083835b602083106112cc5780518252601f1990920191602091820191016112ad565b51815160209384036101000a60001901801990921691161790529201948552506040519384900381018420600201548b519094600594508c9350918291908401908083835b602083106113305780518252601f199092019160209182019101611311565b518151600019602094850361010090810a82019283169219939093169190911790925294909201968752604080519788900382018820600301548b54601f6002600183161590980290950116959095049283018290048202880182019052818752929594508893509184019050828280156113ec5780601f106113c1576101008083540402835291602001916113ec565b820191906000526020600020905b8154815290600101906020018083116113cf57829003601f168201915b505050505093508280548060200260200160405190810160405280929190818152602001828054801561144857602002820191906000526020600020905b8154600160a060020a0316815260019091019060200180831161142a575b5050505050925093509350935093509193509193565b8282600081511115156114bb576040805160e560020a62461bcd02815260206004820152601360248201527f41207469746c6520697320726571756972656400000000000000000000000000604482015290519081900360640190fd5b6005826040518082805190602001908083835b602083106114ed5780518252601f1990920191602091820191016114ce565b51815160209384036101000a600019018019909216911617905292019485525060405193849003019092206001015415915081905061156b575061155b60058360405180828051906020019080838360208310610a9d5780518252601f199092019160209182019101610a7e565b801561156b575061156b82611a38565b15156115ab5760405160e560020a62461bcd02815260040180806020018281038252603381526020018061202b6033913960400191505060405180910390fd5b60015460ff1615611606576040805160e560020a62461bcd02815260206004820152601060248201527f5061757361626c653a2070617573656400000000000000000000000000000000604482015290519081900360640190fd5b82516040116116495760405160e560020a62461bcd0281526004018080602001828103825260268152602001806120cb6026913960400191505060405180910390fd5b60608351600101604051908082528060200260200182016040528015611679578160200160208202803883390190505b5090503381600081518110151561168c57fe5b600160a060020a0390921660209283029091019091015260005b84518160ff16101561170057848160ff168151811015156116c357fe5b90602001906020020151828260010160ff168151811015156116e157fe5b600160a060020a039092166020928302909101909101526001016116a6565b50806005876040518082805190602001908083835b602083106117345780518252601f199092019160209182019101611715565b6001836020036101000a0380198251168184511680821785525050505050509050019150509081526020016040518091039020600101908051906020019061177d929190611e9d565b5050806005836040518082805190602001908083835b602083106117b25780518252601f199092019160209182019101611793565b51815160209384036101000a600019018019909216911617905292019485525060405193849003810190932084516117f39591949190910192509050611f0f565b5060045460405183516118369263ffffffff16916005918691908190602084019080838360208310610d095780518252601f199092019160209182019101610cea565b33600160a060020a03167f9221287e8a14b313bd740c10367708dd71a6bd842aaf2848fbee7d4fb4ca329c8383604051808060200180602001838103835285818151815260200191508051906020019080838360005b838110156118a457818101518382015260200161188c565b50505050905090810190601f1680156118d15780820380516001836020036101000a031916815260200191505b50838103825284518152845160209182019186019080838360005b838110156119045781810151838201526020016118ec565b50505050905090810190601f1680156119315780820380516001836020036101000a031916815260200191505b5094505050505060405180910390a25050505050565b61194f6111a1565b15156119a5576040805160e560020a62461bcd02815260206004820181905260248201527f4f776e61626c653a2063616c6c6572206973206e6f7420746865206f776e6572604482015290519081900360640190fd5b610f1981611c8b565b3390565b6000600160a060020a03821615156119fe5760405160e560020a62461bcd0281526004018080602001828103825260228152602001806120a96022913960400191505060405180910390fd5b50600160a060020a03166000908152602091909152604090205460ff1690565b600080826001015411801561099957505060010154421190565b60006003826040518082805190602001908083835b60208310611a6c5780518252601f199092019160209182019101611a4d565b51815160209384036101000a600019018019909216911617905292019485525060405193849003019092205460ff1615949350505050565b42808355611ab8908263ffffffff611d4916565b82600101819055505050565b3360009081526002602052604090205460ff161515611b175760405160e560020a62461bcd02815260040180806020018281038252602a81526020018061207f602a913960400191505060405180910390fd5b611b8660016003836040518082805190602001908083835b60208310611b4e5780518252601f199092019160209182019101611b2f565b51815160209384036101000a600019018019909216911617905292019485525060405193849003019092205460ff1692915050611d49565b6003826040518082805190602001908083835b60208310611bb85780518252601f199092019160209182019101611b99565b51815160209384036101000a60001901801990921691161790529201948552506040519384900301909220805460ff191660ff9490941693909317909255505050565b611c0c60008263ffffffff611dad16565b604051600160a060020a038216907fcd265ebaf09df2871cc7bd4133404a235ba12eff2041bb89d9c714a2621c7c7e90600090a250565b611c5460008263ffffffff611e1916565b604051600160a060020a038216907f6719d08c1888103bea251a4ed56406bd0c3e69723c8a1686e017e7bbe159b6f890600090a250565b600160a060020a0381161515611cd55760405160e560020a62461bcd0281526004018080602001828103825260268152602001806120056026913960400191505060405180910390fd5b600154604051600160a060020a0380841692610100900416907f8be0079c531659141344cd1fd0a4f28419497f9722a3daafe3b4186f6b6457e090600090a360018054600160a060020a039092166101000274ffffffffffffffffffffffffffffffffffffffff0019909216919091179055565b600082820183811015611da6576040805160e560020a62461bcd02815260206004820152601b60248201527f536166654d6174683a206164646974696f6e206f766572666c6f770000000000604482015290519081900360640190fd5b9392505050565b611db782826119b2565b1515611df75760405160e560020a62461bcd02815260040180806020018281038252602181526020018061205e6021913960400191505060405180910390fd5b600160a060020a0316600090815260209190915260409020805460ff19169055565b611e2382826119b2565b15611e78576040805160e560020a62461bcd02815260206004820152601f60248201527f526f6c65733a206163636f756e7420616c72656164792068617320726f6c6500604482015290519081900360640190fd5b600160a060020a0316600090815260209190915260409020805460ff19166001179055565b828054828255906000526020600020908101928215611eff579160200282015b82811115611eff578251825473ffffffffffffffffffffffffffffffffffffffff1916600160a060020a03909116178255602090920191600190910190611ebd565b50611f0b929150611f89565b5090565b828054600181600116156101000203166002900490600052602060002090601f016020900481019282601f10611f5057805160ff1916838001178555611f7d565b82800160010185558215611f7d579182015b82811115611f7d578251825591602001919060010190611f62565b50611f0b929150611fba565b610f2391905b80821115611f0b57805473ffffffffffffffffffffffffffffffffffffffff19168155600101611f8f565b610f2391905b80821115611f0b5760008155600101611fc056fe506175736572526f6c653a2063616c6c657220646f6573206e6f742068617665207468652050617573657220726f6c654f776e61626c653a206e6577206f776e657220697320746865207a65726f2061646472657373416c7265616479207265676973746572656420616e64206e6f742065787069726564206f7220776974682065766964656e6365526f6c65733a206163636f756e7420646f6573206e6f74206861766520726f6c654f6e6c7920726567697374657265642065766964656e63652070726f76696465727320616c6c6f776564526f6c65733a206163636f756e7420697320746865207a65726f20616464726573734a6f696e7420617574686f7273686970206c696d6974656420746f20363420617574686f7273546865206d616e69666573746174696f6e2065766964656e6365642073686f756c64206578697374a165627a7a7230582021d2d5d871fae0663b07919ed9d841b74da80db01b62691ad1cd3d5b20406ffd0029526f6c65733a206163636f756e7420697320746865207a65726f2061646472657373",
  "source": "pragma solidity >=0.4.21 <0.6.0;\n\nimport \"openzeppelin-solidity/contracts/lifecycle/Pausable.sol\";\nimport \"./ExpirableLib.sol\";\nimport \"./Evidencable.sol\";\n\n/// @title Contract for copyright authorship registration through creations manifestations\n/// @author Roberto Garca (http://rhizomik.net/~roberto/)\ncontract Manifestations is Pausable, Evidencable {\n\n    using ExpirableLib for ExpirableLib.TimeAndExpiry;\n\n    struct Manifestation {\n        string title;\n        address[] authors;\n        ExpirableLib.TimeAndExpiry time;\n    }\n\n    uint32 public timeToExpiry;\n    mapping(string => Manifestation) private manifestations;\n\n    event ManifestEvent(string hash, string title, address indexed manifester);\n    event AddedEvidence(uint8 evidenceCount);\n\n    constructor(uint32 _timeToExpiry) public {\n        timeToExpiry = _timeToExpiry;\n    }\n\n    /// @dev Modifier implementing the common logic for single and joint authorship.\n    /// Checks title and that hash not registered or expired. Then stores title and sets expiry.\n    /// Finally, emits ManifestEvent\n    /// @param hash Hash of the manifestation content, for instance IPFS Base58 Hash\n    /// @param title The title of the manifestation\n    modifier registerIfAvailable(string memory hash, string memory title) {\n        require(bytes(title).length > 0, \"A title is required\");\n        require(manifestations[hash].authors.length == 0 ||\n                (manifestations[hash].time.isExpired() && isUnevidenced(hash)),\n            \"Already registered and not expired or with evidence\");\n        _;\n        manifestations[hash].title = title;\n        manifestations[hash].time.setExpiry(timeToExpiry);\n        emit ManifestEvent(hash, title, msg.sender);\n    }\n\n    /// @notice Register single authorship for `msg.sender` of the manifestation with title `title`\n    /// and hash `hash`. Requires hash not previously registered or expired.\n    /// @dev To be used when there is just one author, which is considered to be the message sender\n    /// @param hash Hash of the manifestation content, for instance IPFS Base58 Hash\n    /// @param title The title of the manifestation\n    function manifestAuthorship(string memory hash, string memory title)\n    public registerIfAvailable(hash, title) whenNotPaused() {\n        address[] memory authors = new address[](1);\n        authors[0] = msg.sender;\n        manifestations[hash].authors = authors;\n    }\n\n    /// @notice Register joint authorship for `msg.sender` plus additional authors\n    /// `additionalAuthors` of the manifestation with title `title` and hash `hash`.\n    /// Requires hash not previously registered or expired and at most 64 authors,\n    /// including the one registering.\n    /// @dev To be used when there are multiple authors\n    /// @param hash Hash of the manifestation content, for instance IPFS Base58 Hash\n    /// @param title The title of the manifestation\n    /// @param additionalAuthors The additional authors,\n    /// including the one registering that becomes the first author\n    function manifestJointAuthorship(string memory hash, string memory title, address[] memory additionalAuthors)\n    public registerIfAvailable(hash, title) whenNotPaused() {\n        require(additionalAuthors.length < 64, \"Joint authorship limited to 64 authors\");\n        address[] memory authors = new address[](additionalAuthors.length + 1);\n        authors[0] = msg.sender;\n        for (uint8 i = 0; i < additionalAuthors.length; i++)\n            authors[i+1] = additionalAuthors[i];\n        manifestations[hash].authors = authors;\n    }\n\n    /// @notice Retrieve the title and authors of the manifestation with content hash `hash`.\n    /// @param hash Hash of the manifestation content, for instance IPFS Base58 Hash\n    /// @return The title and authors of the manifestation\n    function getManifestation(string memory hash) public view\n    returns (string memory, address[] memory, uint256, uint256) {\n        return (manifestations[hash].title,\n                manifestations[hash].authors,\n                manifestations[hash].time.creationTime,\n                manifestations[hash].time.expiryTime);\n    }\n\n    /// @notice Adds an evidence if there is already a manifestation for `hash`.\n    /// @param hash Hash of the manifestation content, for instance IPFS Base58 Hash\n    function addEvidence(string memory hash) public {\n        require(bytes(manifestations[hash].title).length > 0, \"The manifestation evidenced should exist\");\n        super.addEvidence(hash);\n    }\n}\n",
  "sourcePath": "/Users/roberto/Proyectos/CopyrightLY/copyrightly/contracts/Manifestations.sol",
  "compiler": {
    "name": "solc",
    "version": "0.5.2+commit.1df8f40c.Emscripten.clang"
  },
  "schemaVersion": "3.4.0",
  "updatedAt": "2021-05-06T23:10:00.588Z",
  "networkType": "ethereum",
  "devdoc": {
    "author": "Roberto Garca (http://rhizomik.net/~roberto/)",
    "methods": {
      "addEvidence(string)": {
        "params": {
          "hash": "Hash of the manifestation content, for instance IPFS Base58 Hash"
        }
      },
      "addEvidenceProvider(address)": {
        "params": {
          "provider": "The address of a contract providing evidence"
        }
      },
      "getEvidenceCount(string)": {
        "params": {
          "hash": "Hash of the manifestation content, for instance IPFS Base58 Hash"
        }
      },
      "getManifestation(string)": {
        "params": {
          "hash": "Hash of the manifestation content, for instance IPFS Base58 Hash"
        },
        "return": "The title and authors of the manifestation"
      },
      "isOwner()": {
        "details": "Returns true if the caller is the current owner."
      },
      "manifestAuthorship(string,string)": {
        "details": "To be used when there is just one author, which is considered to be the message sender",
        "params": {
          "hash": "Hash of the manifestation content, for instance IPFS Base58 Hash",
          "title": "The title of the manifestation"
        }
      },
      "manifestJointAuthorship(string,string,address[])": {
        "details": "To be used when there are multiple authors",
        "params": {
          "additionalAuthors": "The additional authors, including the one registering that becomes the first author",
          "hash": "Hash of the manifestation content, for instance IPFS Base58 Hash",
          "title": "The title of the manifestation"
        }
      },
      "owner()": {
        "details": "Returns the address of the current owner."
      },
      "pause()": {
        "details": "Called by a pauser to pause, triggers stopped state."
      },
      "paused()": {
        "details": "Returns true if the contract is paused, and false otherwise."
      },
      "renounceOwnership()": {
        "details": "Leaves the contract without owner. It will not be possible to call `onlyOwner` functions anymore. Can only be called by the current owner.     * NOTE: Renouncing ownership will leave the contract without an owner, thereby removing any functionality that is only available to the owner."
      },
      "transferOwnership(address)": {
        "details": "Transfers ownership of the contract to a new account (`newOwner`). Can only be called by the current owner."
      },
      "unpause()": {
        "details": "Called by a pauser to unpause, returns to normal state."
      }
    },
    "title": "Contract for copyright authorship registration through creations manifestations"
  },
  "userdoc": {
    "methods": {
      "addEvidence(string)": {
        "notice": "Adds an evidence if there is already a manifestation for `hash`."
      },
      "addEvidenceProvider(address)": {
        "notice": "Adds an evidence provider `provider` contract that can then call addEvidence(...) to add evidence."
      },
      "getEvidenceCount(string)": {
        "notice": "Get the evidence count for the manifestation with `hash`."
      },
      "getManifestation(string)": {
        "notice": "Retrieve the title and authors of the manifestation with content hash `hash`."
      },
      "manifestAuthorship(string,string)": {
        "notice": "Register single authorship for `msg.sender` of the manifestation with title `title` and hash `hash`. Requires hash not previously registered or expired."
      },
      "manifestJointAuthorship(string,string,address[])": {
        "notice": "Register joint authorship for `msg.sender` plus additional authors `additionalAuthors` of the manifestation with title `title` and hash `hash`. Requires hash not previously registered or expired and at most 64 authors, including the one registering."
      }
    }
  }
}