{
  "contractName": "Manifestations",
  "abi": [
    {
      "inputs": [
        {
          "internalType": "uint32",
          "name": "_timeToExpiry",
          "type": "uint32"
        }
      ],
      "stateMutability": "nonpayable",
      "type": "constructor"
    },
    {
      "anonymous": false,
      "inputs": [
        {
          "indexed": false,
          "internalType": "string",
          "name": "hash",
          "type": "string"
        },
        {
          "indexed": false,
          "internalType": "string",
          "name": "title",
          "type": "string"
        },
        {
          "indexed": true,
          "internalType": "address",
          "name": "manifester",
          "type": "address"
        }
      ],
      "name": "ManifestEvent",
      "type": "event"
    },
    {
      "anonymous": false,
      "inputs": [
        {
          "indexed": true,
          "internalType": "address",
          "name": "previousOwner",
          "type": "address"
        },
        {
          "indexed": true,
          "internalType": "address",
          "name": "newOwner",
          "type": "address"
        }
      ],
      "name": "OwnershipTransferred",
      "type": "event"
    },
    {
      "anonymous": false,
      "inputs": [
        {
          "indexed": false,
          "internalType": "address",
          "name": "account",
          "type": "address"
        }
      ],
      "name": "Paused",
      "type": "event"
    },
    {
      "anonymous": false,
      "inputs": [
        {
          "indexed": false,
          "internalType": "address",
          "name": "account",
          "type": "address"
        }
      ],
      "name": "Unpaused",
      "type": "event"
    },
    {
      "inputs": [
        {
          "internalType": "address",
          "name": "provider",
          "type": "address"
        }
      ],
      "name": "addEvidenceProvider",
      "outputs": [],
      "stateMutability": "nonpayable",
      "type": "function"
    },
    {
      "inputs": [
        {
          "internalType": "uint256",
          "name": "amount",
          "type": "uint256"
        },
        {
          "internalType": "string",
          "name": "hash",
          "type": "string"
        }
      ],
      "name": "addStake",
      "outputs": [],
      "stateMutability": "nonpayable",
      "type": "function"
    },
    {
      "inputs": [
        {
          "internalType": "string",
          "name": "hash",
          "type": "string"
        }
      ],
      "name": "getEvidenceCount",
      "outputs": [
        {
          "internalType": "uint8",
          "name": "",
          "type": "uint8"
        }
      ],
      "stateMutability": "view",
      "type": "function",
      "constant": true
    },
    {
      "inputs": [
        {
          "internalType": "string",
          "name": "hash",
          "type": "string"
        }
      ],
      "name": "isStaked",
      "outputs": [
        {
          "internalType": "bool",
          "name": "",
          "type": "bool"
        }
      ],
      "stateMutability": "view",
      "type": "function",
      "constant": true
    },
    {
      "inputs": [
        {
          "internalType": "string",
          "name": "hash",
          "type": "string"
        }
      ],
      "name": "isUnevidenced",
      "outputs": [
        {
          "internalType": "bool",
          "name": "",
          "type": "bool"
        }
      ],
      "stateMutability": "view",
      "type": "function",
      "constant": true
    },
    {
      "inputs": [],
      "name": "owner",
      "outputs": [
        {
          "internalType": "address",
          "name": "",
          "type": "address"
        }
      ],
      "stateMutability": "view",
      "type": "function",
      "constant": true
    },
    {
      "inputs": [],
      "name": "paused",
      "outputs": [
        {
          "internalType": "bool",
          "name": "",
          "type": "bool"
        }
      ],
      "stateMutability": "view",
      "type": "function",
      "constant": true
    },
    {
      "inputs": [
        {
          "internalType": "uint256",
          "name": "amount",
          "type": "uint256"
        },
        {
          "internalType": "string",
          "name": "hash",
          "type": "string"
        }
      ],
      "name": "removeStake",
      "outputs": [],
      "stateMutability": "nonpayable",
      "type": "function"
    },
    {
      "inputs": [],
      "name": "renounceOwnership",
      "outputs": [],
      "stateMutability": "nonpayable",
      "type": "function"
    },
    {
      "inputs": [
        {
          "internalType": "address",
          "name": "token",
          "type": "address"
        }
      ],
      "name": "setToken",
      "outputs": [],
      "stateMutability": "nonpayable",
      "type": "function"
    },
    {
      "inputs": [
        {
          "internalType": "string",
          "name": "",
          "type": "string"
        }
      ],
      "name": "staked",
      "outputs": [
        {
          "internalType": "uint256",
          "name": "",
          "type": "uint256"
        }
      ],
      "stateMutability": "view",
      "type": "function",
      "constant": true
    },
    {
      "inputs": [],
      "name": "timeToExpiry",
      "outputs": [
        {
          "internalType": "uint32",
          "name": "",
          "type": "uint32"
        }
      ],
      "stateMutability": "view",
      "type": "function",
      "constant": true
    },
    {
      "inputs": [
        {
          "internalType": "address",
          "name": "newOwner",
          "type": "address"
        }
      ],
      "name": "transferOwnership",
      "outputs": [],
      "stateMutability": "nonpayable",
      "type": "function"
    },
    {
      "inputs": [
        {
          "internalType": "string",
          "name": "hash",
          "type": "string"
        },
        {
          "internalType": "string",
          "name": "title",
          "type": "string"
        }
      ],
      "name": "manifestAuthorship",
      "outputs": [],
      "stateMutability": "nonpayable",
      "type": "function"
    },
    {
      "inputs": [
        {
          "internalType": "string",
          "name": "hash",
          "type": "string"
        },
        {
          "internalType": "string",
          "name": "title",
          "type": "string"
        },
        {
          "internalType": "address[]",
          "name": "additionalAuthors",
          "type": "address[]"
        }
      ],
      "name": "manifestJointAuthorship",
      "outputs": [],
      "stateMutability": "nonpayable",
      "type": "function"
    },
    {
      "inputs": [
        {
          "internalType": "string",
          "name": "hash",
          "type": "string"
        }
      ],
      "name": "getManifestation",
      "outputs": [
        {
          "internalType": "string",
          "name": "",
          "type": "string"
        },
        {
          "internalType": "address[]",
          "name": "",
          "type": "address[]"
        },
        {
          "internalType": "uint256",
          "name": "",
          "type": "uint256"
        },
        {
          "internalType": "uint256",
          "name": "",
          "type": "uint256"
        }
      ],
      "stateMutability": "view",
      "type": "function",
      "constant": true
    },
    {
      "inputs": [
        {
          "internalType": "string",
          "name": "hash",
          "type": "string"
        }
      ],
      "name": "addEvidence",
      "outputs": [],
      "stateMutability": "nonpayable",
      "type": "function"
    },
    {
      "inputs": [
        {
          "internalType": "string",
          "name": "hash",
          "type": "string"
        }
      ],
      "name": "isStakable",
      "outputs": [],
      "stateMutability": "view",
      "type": "function",
      "constant": true
    },
    {
      "inputs": [],
      "name": "pause",
      "outputs": [],
      "stateMutability": "nonpayable",
      "type": "function"
    },
    {
      "inputs": [],
      "name": "unpause",
      "outputs": [],
      "stateMutability": "nonpayable",
      "type": "function"
    }
  ],
  "bytecode": "0x608060405234801561001057600080fd5b506040516118f73803806118f783398101604081905261002f9161009c565b600080546001600160a01b031916339081178255604051909182917f8be0079c531659141344cd1fd0a4f28419497f9722a3daafe3b4186f6b6457e0908290a3506000805460ff60a01b191690556005805463ffffffff191663ffffffff929092169190911790556100c9565b6000602082840312156100ae57600080fd5b815163ffffffff811681146100c257600080fd5b9392505050565b61181f806100d86000396000f3fe608060405234801561001057600080fd5b506004361061012c5760003560e01c8063646986fb116100ad578063b0594ad511610071578063b0594ad514610295578063b288b067146102b8578063bfbc9412146102cb578063c3e53c19146102de578063f2fde38b146102f157600080fd5b8063646986fb1461020c578063715018a614610231578063835d83ef146102395780638456cb59146102725780638da5cb5b1461027a57600080fd5b80633f4ba83a116100f45780633f4ba83a146101a957806344639f16146101b157806347fc89b6146101d457806351a94a5f146101e75780635c975abb146101fa57600080fd5b8063144b763a14610131578063144fa6d7146101465780631fc91d581461015957806329cf96291461016c5780633e84531c1461017f575b600080fd5b61014461013f3660046112d1565b610304565b005b6101446101543660046112d1565b61035e565b610144610167366004611488565b6103aa565b61014461017a3660046112ec565b61049f565b60055461018f9063ffffffff1681565b60405163ffffffff90911681526020015b60405180910390f35b610144610534565b6101c46101bf3660046112ec565b610568565b60405190151581526020016101a0565b6101446101e2366004611329565b610594565b6101446101f53660046112ec565b6107cb565b600054600160a01b900460ff166101c4565b61021f61021a3660046112ec565b610860565b60405160ff90911681526020016101a0565b61014461088b565b6102646102473660046112ec565b805160208183018101805160048252928201919093012091525481565b6040519081526020016101a0565b6101446108ff565b6000546040516001600160a01b0390911681526020016101a0565b6102a86102a33660046112ec565b610931565b6040516101a0949392919061150d565b6101446102c6366004611488565b610ab4565b6101446102d936600461138d565b610b0c565b6101c46102ec3660046112ec565b610e20565b6101446102ff3660046112d1565b610e4a565b6000546001600160a01b031633146103375760405162461bcd60e51b815260040161032e90611662565b60405180910390fd5b6001600160a01b03166000908152600160208190526040909120805460ff19169091179055565b6000546001600160a01b031633146103885760405162461bcd60e51b815260040161032e90611662565b600380546001600160a01b0319166001600160a01b0392909216919091179055565b6003546001600160a01b031633146103d45760405162461bcd60e51b815260040161032e906115a5565b6004816040516103e491906114f1565b9081526020016040518091039020548211156104685760405162461bcd60e51b815260206004820152603760248201527f4e6f206d6f7265207468616e2074686520616d6f756e742063757272656e746c60448201527f79207374616b65642063616e2062652072656d6f766564000000000000000000606482015260840161032e565b8160048260405161047991906114f1565b908152602001604051809103902060008282546104969190611705565b90915550505050565b60006006826040516104b191906114f1565b90815260405190819003602001902080546104cb9061174c565b9050116105315760405162461bcd60e51b815260206004820152602e60248201527f546865206d616e69666573746174696f6e2073686f756c64206578697374207460448201526d6f20616363657074207374616b6560901b606482015260840161032e565b50565b6000546001600160a01b0316331461055e5760405162461bcd60e51b815260040161032e90611662565b610566610f34565b565b600060028260405161057a91906114f1565b9081526040519081900360200190205460ff161592915050565b818160008151116105dd5760405162461bcd60e51b815260206004820152601360248201527210481d1a5d1b19481a5cc81c995c5d5a5c9959606a1b604482015260640161032e565b6006826040516105ed91906114f1565b908152604051908190036020019020600101541580610642575061063060068360405161061a91906114f1565b9081526020016040518091039020600201610fd1565b8015610642575061064082610e20565b155b61065e5760405162461bcd60e51b815260040161032e906115e8565b600054600160a01b900460ff16156106885760405162461bcd60e51b815260040161032e90611638565b6040805160018082528183019092526000916020808301908036833701905050905033816000815181106106be576106be6117bd565b60200260200101906001600160a01b031690816001600160a01b031681525050806006866040516106ef91906114f1565b90815260200160405180910390206001019080519060200190610713929190611157565b50508060068360405161072691906114f1565b9081526020016040518091039020600001908051906020019061074a9291906111bc565b506005546040516107829163ffffffff169060069061076a9086906114f1565b90815260405190819003602001902060020190610fef565b336001600160a01b03167f9221287e8a14b313bd740c10367708dd71a6bd842aaf2848fbee7d4fb4ca329c83836040516107bd929190611577565b60405180910390a250505050565b60006006826040516107dd91906114f1565b90815260405190819003602001902080546107f79061174c565b9050116108575760405162461bcd60e51b815260206004820152602860248201527f546865206d616e69666573746174696f6e2065766964656e6365642073686f756044820152671b1908195e1a5cdd60c21b606482015260840161032e565b61053181611009565b600060028260405161087291906114f1565b9081526040519081900360200190205460ff1692915050565b6000546001600160a01b031633146108b55760405162461bcd60e51b815260040161032e90611662565b600080546040516001600160a01b03909116907f8be0079c531659141344cd1fd0a4f28419497f9722a3daafe3b4186f6b6457e0908390a3600080546001600160a01b0319169055565b6000546001600160a01b031633146109295760405162461bcd60e51b815260040161032e90611662565b6105666110df565b60608060008060068560405161094791906114f1565b908152604051908190036020018120906006906109659088906114f1565b908152602001604051809103902060010160068760405161098691906114f1565b90815260405190819003602001812060020154906006906109a8908a906114f1565b9081526020016040518091039020600201600101548380546109c99061174c565b80601f01602080910402602001604051908101604052809291908181526020018280546109f59061174c565b8015610a425780601f10610a1757610100808354040283529160200191610a42565b820191906000526020600020905b815481529060010190602001808311610a2557829003601f168201915b5050505050935082805480602002602001604051908101604052809291908181526020018280548015610a9e57602002820191906000526020600020905b81546001600160a01b03168152600190910190602001808311610a80575b5050505050925093509350935093509193509193565b6003546001600160a01b03163314610ade5760405162461bcd60e51b815260040161032e906115a5565b81600482604051610aef91906114f1565b9081526020016040518091039020600082825461049691906116c8565b82826000815111610b555760405162461bcd60e51b815260206004820152601360248201527210481d1a5d1b19481a5cc81c995c5d5a5c9959606a1b604482015260640161032e565b600682604051610b6591906114f1565b908152604051908190036020019020600101541580610ba45750610b9260068360405161061a91906114f1565b8015610ba45750610ba282610e20565b155b610bc05760405162461bcd60e51b815260040161032e906115e8565b600054600160a01b900460ff1615610bea5760405162461bcd60e51b815260040161032e90611638565b6040835110610c4a5760405162461bcd60e51b815260206004820152602660248201527f4a6f696e7420617574686f7273686970206c696d6974656420746f20363420616044820152657574686f727360d01b606482015260840161032e565b600083516001610c5a91906116c8565b67ffffffffffffffff811115610c7257610c726117d3565b604051908082528060200260200182016040528015610c9b578160200160208202803683370190505b5090503381600081518110610cb257610cb26117bd565b60200260200101906001600160a01b031690816001600160a01b03168152505060005b84518160ff161015610d4957848160ff1681518110610cf657610cf66117bd565b602002602001015182826001610d0c91906116e0565b60ff1681518110610d1f57610d1f6117bd565b6001600160a01b039092166020928302919091019091015280610d4181611787565b915050610cd5565b5080600687604051610d5b91906114f1565b90815260200160405180910390206001019080519060200190610d7f929190611157565b505080600683604051610d9291906114f1565b90815260200160405180910390206000019080519060200190610db69291906111bc565b50600554604051610dd69163ffffffff169060069061076a9086906114f1565b336001600160a01b03167f9221287e8a14b313bd740c10367708dd71a6bd842aaf2848fbee7d4fb4ca329c8383604051610e11929190611577565b60405180910390a25050505050565b600080600483604051610e3391906114f1565b908152602001604051809103902054119050919050565b6000546001600160a01b03163314610e745760405162461bcd60e51b815260040161032e90611662565b6001600160a01b038116610ed95760405162461bcd60e51b815260206004820152602660248201527f4f776e61626c653a206e6577206f776e657220697320746865207a65726f206160448201526564647265737360d01b606482015260840161032e565b600080546040516001600160a01b03808516939216917f8be0079c531659141344cd1fd0a4f28419497f9722a3daafe3b4186f6b6457e091a3600080546001600160a01b0319166001600160a01b0392909216919091179055565b600054600160a01b900460ff16610f845760405162461bcd60e51b815260206004820152601460248201527314185d5cd8589b194e881b9bdd081c185d5cd95960621b604482015260640161032e565b6000805460ff60a01b191690557f5db9ee0a495bf2e6ff9c91a7834c1ba4fdd244a5e8aa4e537bd38aeae4b073aa335b6040516001600160a01b03909116815260200160405180910390a1565b6000808260010154118015610fe95750428260010154105b92915050565b42808355610ffd9082611144565b82600101819055505050565b3360009081526001602052604090205460ff1661107b5760405162461bcd60e51b815260206004820152602a60248201527f4f6e6c7920726567697374657265642065766964656e63652070726f766964656044820152691c9cc8185b1b1bddd95960b21b606482015260840161032e565b6110a9600160028360405161109091906114f1565b9081526040519081900360200190205460ff1690611144565b6002826040516110b991906114f1565b908152604051908190036020019020805460ff9290921660ff1990921691909117905550565b600054600160a01b900460ff16156111095760405162461bcd60e51b815260040161032e90611638565b6000805460ff60a01b1916600160a01b1790557f62e78cea01bee320cd4e420270b5ea74000d11b0c9f74754ebdbfc544b05a258610fb43390565b600061115082846116c8565b9392505050565b8280548282559060005260206000209081019282156111ac579160200282015b828111156111ac57825182546001600160a01b0319166001600160a01b03909116178255602090920191600190910190611177565b506111b8929150611230565b5090565b8280546111c89061174c565b90600052602060002090601f0160209004810192826111ea57600085556111ac565b82601f1061120357805160ff19168380011785556111ac565b828001600101855582156111ac579182015b828111156111ac578251825591602001919060010190611215565b5b808211156111b85760008155600101611231565b80356001600160a01b038116811461125c57600080fd5b919050565b600082601f83011261127257600080fd5b813567ffffffffffffffff81111561128c5761128c6117d3565b61129f601f8201601f1916602001611697565b8181528460208386010111156112b457600080fd5b816020850160208301376000918101602001919091529392505050565b6000602082840312156112e357600080fd5b61115082611245565b6000602082840312156112fe57600080fd5b813567ffffffffffffffff81111561131557600080fd5b61132184828501611261565b949350505050565b6000806040838503121561133c57600080fd5b823567ffffffffffffffff8082111561135457600080fd5b61136086838701611261565b9350602085013591508082111561137657600080fd5b5061138385828601611261565b9150509250929050565b6000806000606084860312156113a257600080fd5b833567ffffffffffffffff808211156113ba57600080fd5b6113c687838801611261565b94506020915081860135818111156113dd57600080fd5b6113e988828901611261565b9450506040860135818111156113fe57600080fd5b8601601f8101881361140f57600080fd5b803582811115611421576114216117d3565b8060051b9250611432848401611697565b8181528481019083860185850187018c101561144d57600080fd5b600095505b838610156114775761146381611245565b835260019590950194918601918601611452565b508096505050505050509250925092565b6000806040838503121561149b57600080fd5b82359150602083013567ffffffffffffffff8111156114b957600080fd5b61138385828601611261565b600081518084526114dd81602086016020860161171c565b601f01601f19169290920160200192915050565b6000825161150381846020870161171c565b9190910192915050565b60808152600061152060808301876114c5565b82810360208481019190915286518083528782019282019060005b818110156115605784516001600160a01b03168352938301939183019160010161153b565b505060408501969096525050506060015292915050565b60408152600061158a60408301856114c5565b828103602084015261159c81856114c5565b95945050505050565b60208082526023908201527f4f6e6c79207265676973746572656420746f6b656e2063616e20616464207374604082015262616b6560e81b606082015260800190565b60208082526030908201527f416c7265616479207265676973746572656420616e64206e6f7420657870697260408201526f6564206f722077697468207374616b6560801b606082015260800190565b60208082526010908201526f14185d5cd8589b194e881c185d5cd95960821b604082015260600190565b6020808252818101527f4f776e61626c653a2063616c6c6572206973206e6f7420746865206f776e6572604082015260600190565b604051601f8201601f1916810167ffffffffffffffff811182821017156116c0576116c06117d3565b604052919050565b600082198211156116db576116db6117a7565b500190565b600060ff821660ff84168060ff038211156116fd576116fd6117a7565b019392505050565b600082821015611717576117176117a7565b500390565b60005b8381101561173757818101518382015260200161171f565b83811115611746576000848401525b50505050565b600181811c9082168061176057607f821691505b6020821081141561178157634e487b7160e01b600052602260045260246000fd5b50919050565b600060ff821660ff81141561179e5761179e6117a7565b60010192915050565b634e487b7160e01b600052601160045260246000fd5b634e487b7160e01b600052603260045260246000fd5b634e487b7160e01b600052604160045260246000fdfea26469706673582212201601324acd91a255c93a966c5d8ca05695fe6f3f57cd085b287e26fb5c6e0fac64736f6c63430008060033",
  "immutableReferences": {},
  "source": "// SPDX-License-Identifier: GPL-3.0-or-later\n\npragma solidity ^0.8.6;\n\nimport \"openzeppelin-solidity/contracts/access/Ownable.sol\";\nimport \"openzeppelin-solidity/contracts/security/Pausable.sol\";\nimport \"./ExpirableLib.sol\";\nimport \"./Evidencable.sol\";\nimport \"./Stakable.sol\";\n\n/// @title Contract for copyright authorship registration through creations manifestations\n/// @author Roberto Garca (http://rhizomik.net/~roberto/)\ncontract Manifestations is Ownable, Pausable, Evidencable, Stakable {\n\n    using ExpirableLib for ExpirableLib.TimeAndExpiry;\n\n    struct Manifestation {\n        string title;\n        address[] authors;\n        ExpirableLib.TimeAndExpiry time;\n    }\n\n    uint32 public timeToExpiry;\n    mapping(string => Manifestation) private manifestations;\n\n    event ManifestEvent(string hash, string title, address indexed manifester);\n\n    constructor(uint32 _timeToExpiry) {\n        timeToExpiry = _timeToExpiry;\n    }\n\n    /// @dev Modifier implementing the common logic for single and joint authorship.\n    /// Checks title and that hash not registered or expired. Then stores title and sets expiry.\n    /// Finally, emits ManifestEvent\n    /// @param hash Hash of the manifestation content, for instance IPFS Base58 Hash\n    /// @param title The title of the manifestation\n    modifier registerIfAvailable(string memory hash, string memory title) {\n        require(bytes(title).length > 0, \"A title is required\");\n        require(manifestations[hash].authors.length == 0 ||\n                (manifestations[hash].time.isExpired() && !isStaked(hash)),\n            \"Already registered and not expired or with stake\");\n        _;\n        manifestations[hash].title = title;\n        manifestations[hash].time.setExpiry(timeToExpiry);\n        emit ManifestEvent(hash, title, msg.sender);\n    }\n\n    /// @notice Register single authorship for `msg.sender` of the manifestation with title `title`\n    /// and hash `hash`. Requires hash not previously registered or expired.\n    /// @dev To be used when there is just one author, which is considered to be the message sender\n    /// @param hash Hash of the manifestation content, for instance IPFS Base58 Hash\n    /// @param title The title of the manifestation\n    function manifestAuthorship(string memory hash, string memory title)\n    public registerIfAvailable(hash, title) whenNotPaused() {\n        address[] memory authors = new address[](1);\n        authors[0] = msg.sender;\n        manifestations[hash].authors = authors;\n    }\n\n    /// @notice Register joint authorship for `msg.sender` plus additional authors\n    /// `additionalAuthors` of the manifestation with title `title` and hash `hash`.\n    /// Requires hash not previously registered or expired and at most 64 authors,\n    /// including the one registering.\n    /// @dev To be used when there are multiple authors\n    /// @param hash Hash of the manifestation content, for instance IPFS Base58 Hash\n    /// @param title The title of the manifestation\n    /// @param additionalAuthors The additional authors,\n    /// including the one registering that becomes the first author\n    function manifestJointAuthorship(string memory hash, string memory title, address[] memory additionalAuthors)\n    public registerIfAvailable(hash, title) whenNotPaused() {\n        require(additionalAuthors.length < 64, \"Joint authorship limited to 64 authors\");\n        address[] memory authors = new address[](additionalAuthors.length + 1);\n        authors[0] = msg.sender;\n        for (uint8 i = 0; i < additionalAuthors.length; i++)\n            authors[i+1] = additionalAuthors[i];\n        manifestations[hash].authors = authors;\n    }\n\n    /// @notice Retrieve the title and authors of the manifestation with content hash `hash`.\n    /// @param hash Hash of the manifestation content, for instance IPFS Base58 Hash\n    /// @return The title and authors of the manifestation\n    function getManifestation(string memory hash) public view\n    returns (string memory, address[] memory, uint256, uint256) {\n        return (manifestations[hash].title,\n                manifestations[hash].authors,\n                manifestations[hash].time.creationTime,\n                manifestations[hash].time.expiryTime);\n    }\n\n    /// @notice Adds an evidence if there is already a manifestation for `hash`.\n    /// @param hash Hash of the manifestation content, for instance IPFS Base58 Hash\n    function addEvidence(string memory hash) public override {\n        require(bytes(manifestations[hash].title).length > 0, \"The manifestation evidenced should exist\");\n        super.addEvidence(hash);\n    }\n\n    /// @notice Checks if a manifestation for `hash` exists and thus can get stake.\n    /// @param hash Hash of the manifestation content, for instance IPFS Base58 Hash\n    function isStakable(string memory hash) public view override {\n        require(bytes(manifestations[hash].title).length > 0, \"The manifestation should exist to accept stake\");\n    }\n\n    function pause() public onlyOwner {\n        super._pause();\n    }\n\n    function unpause() public onlyOwner {\n        super._unpause();\n    }\n}\n",
  "sourcePath": "/Users/roberto/Proyectos/CopyrightLY/copyrightly/contracts/Manifestations.sol",
  "compiler": {
    "name": "solc",
    "version": "0.8.6+commit.11564f7e.Emscripten.clang"
  },
  "schemaVersion": "3.4.1",
  "updatedAt": "2021-09-13T16:33:36.964Z",
  "networkType": "ethereum",
  "devdoc": {
    "author": "Roberto Garca (http://rhizomik.net/~roberto/)",
    "kind": "dev",
    "methods": {
      "addEvidence(string)": {
        "params": {
          "hash": "Hash of the manifestation content, for instance IPFS Base58 Hash"
        }
      },
      "addEvidenceProvider(address)": {
        "params": {
          "provider": "The address of a contract providing evidence"
        }
      },
      "addStake(uint256,string)": {
        "params": {
          "amount": "Amount of stake on the registered token to add",
          "hash": "Hash identifying the item to get stake, for instance IPFS Base58 Hash"
        }
      },
      "getEvidenceCount(string)": {
        "params": {
          "hash": "Hash of the manifestation content, for instance IPFS Base58 Hash"
        }
      },
      "getManifestation(string)": {
        "params": {
          "hash": "Hash of the manifestation content, for instance IPFS Base58 Hash"
        },
        "returns": {
          "_0": "The title and authors of the manifestation"
        }
      },
      "isStakable(string)": {
        "params": {
          "hash": "Hash of the manifestation content, for instance IPFS Base58 Hash"
        }
      },
      "isStaked(string)": {
        "details": "Used to check if the corresponding item has a current stake bigger than 0.",
        "params": {
          "hash": "Hash identifying the item to get stake, for instance IPFS Base58 Hash"
        }
      },
      "isUnevidenced(string)": {
        "details": "Used to check if the corresponding item evidence count is 0.",
        "params": {
          "hash": "Hash of the manifestation content, for instance IPFS Base58 Hash"
        }
      },
      "manifestAuthorship(string,string)": {
        "details": "To be used when there is just one author, which is considered to be the message sender",
        "params": {
          "hash": "Hash of the manifestation content, for instance IPFS Base58 Hash",
          "title": "The title of the manifestation"
        }
      },
      "manifestJointAuthorship(string,string,address[])": {
        "details": "To be used when there are multiple authors",
        "params": {
          "additionalAuthors": "The additional authors, including the one registering that becomes the first author",
          "hash": "Hash of the manifestation content, for instance IPFS Base58 Hash",
          "title": "The title of the manifestation"
        }
      },
      "owner()": {
        "details": "Returns the address of the current owner."
      },
      "paused()": {
        "details": "Returns true if the contract is paused, and false otherwise."
      },
      "removeStake(uint256,string)": {
        "params": {
          "amount": "Amount of stake on the registered token to remove",
          "hash": "Hash identifying the item to loose stake, for instance IPFS Base58 Hash"
        }
      },
      "renounceOwnership()": {
        "details": "Leaves the contract without owner. It will not be possible to call `onlyOwner` functions anymore. Can only be called by the current owner. NOTE: Renouncing ownership will leave the contract without an owner, thereby removing any functionality that is only available to the owner."
      },
      "setToken(address)": {
        "params": {
          "token": "The address of the authorised token contract"
        }
      },
      "transferOwnership(address)": {
        "details": "Transfers ownership of the contract to a new account (`newOwner`). Can only be called by the current owner."
      }
    },
    "title": "Contract for copyright authorship registration through creations manifestations",
    "version": 1
  },
  "userdoc": {
    "kind": "user",
    "methods": {
      "addEvidence(string)": {
        "notice": "Adds an evidence if there is already a manifestation for `hash`."
      },
      "addEvidenceProvider(address)": {
        "notice": "Adds an evidence provider `provider` contract that can then call addEvidence(...) to add evidence."
      },
      "addStake(uint256,string)": {
        "notice": "Adds `amount` stake on the registered token to the item with `hash`."
      },
      "getEvidenceCount(string)": {
        "notice": "Get the evidence count for the manifestation with `hash`."
      },
      "getManifestation(string)": {
        "notice": "Retrieve the title and authors of the manifestation with content hash `hash`."
      },
      "isStakable(string)": {
        "notice": "Checks if a manifestation for `hash` exists and thus can get stake."
      },
      "isStaked(string)": {
        "notice": "Check if the stakable `hash` has some stake."
      },
      "isUnevidenced(string)": {
        "notice": "Check if the evidencable `hash` has no evidence yet."
      },
      "manifestAuthorship(string,string)": {
        "notice": "Register single authorship for `msg.sender` of the manifestation with title `title` and hash `hash`. Requires hash not previously registered or expired."
      },
      "manifestJointAuthorship(string,string,address[])": {
        "notice": "Register joint authorship for `msg.sender` plus additional authors `additionalAuthors` of the manifestation with title `title` and hash `hash`. Requires hash not previously registered or expired and at most 64 authors, including the one registering."
      },
      "removeStake(uint256,string)": {
        "notice": "Removes `amount` of stake on the registered token from the item with `hash`."
      },
      "setToken(address)": {
        "notice": "Sets the `token` address authorised to add and remove stake."
      }
    },
    "version": 1
  }
}