{
  "contractName": "Stakable",
  "abi": [
    {
      "anonymous": false,
      "inputs": [
        {
          "indexed": true,
          "internalType": "address",
          "name": "previousOwner",
          "type": "address"
        },
        {
          "indexed": true,
          "internalType": "address",
          "name": "newOwner",
          "type": "address"
        }
      ],
      "name": "OwnershipTransferred",
      "type": "event"
    },
    {
      "inputs": [],
      "name": "owner",
      "outputs": [
        {
          "internalType": "address",
          "name": "",
          "type": "address"
        }
      ],
      "stateMutability": "view",
      "type": "function"
    },
    {
      "inputs": [],
      "name": "renounceOwnership",
      "outputs": [],
      "stateMutability": "nonpayable",
      "type": "function"
    },
    {
      "inputs": [
        {
          "internalType": "string",
          "name": "",
          "type": "string"
        }
      ],
      "name": "staked",
      "outputs": [
        {
          "internalType": "uint256",
          "name": "",
          "type": "uint256"
        }
      ],
      "stateMutability": "view",
      "type": "function"
    },
    {
      "inputs": [
        {
          "internalType": "address",
          "name": "newOwner",
          "type": "address"
        }
      ],
      "name": "transferOwnership",
      "outputs": [],
      "stateMutability": "nonpayable",
      "type": "function"
    },
    {
      "inputs": [
        {
          "internalType": "address",
          "name": "token",
          "type": "address"
        }
      ],
      "name": "setToken",
      "outputs": [],
      "stateMutability": "nonpayable",
      "type": "function"
    },
    {
      "inputs": [
        {
          "internalType": "string",
          "name": "hash",
          "type": "string"
        }
      ],
      "name": "isStakable",
      "outputs": [],
      "stateMutability": "nonpayable",
      "type": "function"
    },
    {
      "inputs": [
        {
          "internalType": "string",
          "name": "hash",
          "type": "string"
        }
      ],
      "name": "isStaked",
      "outputs": [
        {
          "internalType": "bool",
          "name": "",
          "type": "bool"
        }
      ],
      "stateMutability": "view",
      "type": "function"
    },
    {
      "inputs": [
        {
          "internalType": "uint256",
          "name": "amount",
          "type": "uint256"
        },
        {
          "internalType": "string",
          "name": "hash",
          "type": "string"
        }
      ],
      "name": "addStake",
      "outputs": [],
      "stateMutability": "nonpayable",
      "type": "function"
    },
    {
      "inputs": [
        {
          "internalType": "uint256",
          "name": "amount",
          "type": "uint256"
        },
        {
          "internalType": "string",
          "name": "hash",
          "type": "string"
        }
      ],
      "name": "removeStake",
      "outputs": [],
      "stateMutability": "nonpayable",
      "type": "function"
    }
  ],
  "bytecode": "0x608060405234801561001057600080fd5b50600080546001600160a01b031916339081178255604051909182917f8be0079c531659141344cd1fd0a4f28419497f9722a3daafe3b4186f6b6457e0908290a35061072a806100616000396000f3fe608060405234801561001057600080fd5b50600436106100935760003560e01c8063835d83ef11610066578063835d83ef146100d95780638da5cb5b14610117578063b288b06714610132578063c3e53c1914610145578063f2fde38b1461016857600080fd5b8063144fa6d7146100985780631fc91d58146100ad57806329cf9629146100c0578063715018a6146100d1575b600080fd5b6100ab6100a6366004610532565b61017b565b005b6100ab6100bb36600461059f565b6101d0565b6100ab6100ce366004610562565b50565b6100ab6102c5565b6101046100e7366004610562565b805160208183018101805160028252928201919093012091525481565b6040519081526020015b60405180910390f35b6000546040516001600160a01b03909116815260200161010e565b6100ab61014036600461059f565b610339565b610158610153366004610562565b610391565b604051901515815260200161010e565b6100ab610176366004610532565b6103bb565b6000546001600160a01b031633146101ae5760405162461bcd60e51b81526004016101a590610664565b60405180910390fd5b600180546001600160a01b0319166001600160a01b0392909216919091179055565b6001546001600160a01b031633146101fa5760405162461bcd60e51b81526004016101a590610621565b60028160405161020a91906105e6565b90815260200160405180910390205482111561028e5760405162461bcd60e51b815260206004820152603760248201527f4e6f206d6f7265207468616e2074686520616d6f756e742063757272656e746c60448201527f79207374616b65642063616e2062652072656d6f76656400000000000000000060648201526084016101a5565b8160028260405161029f91906105e6565b908152602001604051809103902060008282546102bc91906106b1565b90915550505050565b6000546001600160a01b031633146102ef5760405162461bcd60e51b81526004016101a590610664565b600080546040516001600160a01b03909116907f8be0079c531659141344cd1fd0a4f28419497f9722a3daafe3b4186f6b6457e0908390a3600080546001600160a01b0319169055565b6001546001600160a01b031633146103635760405162461bcd60e51b81526004016101a590610621565b8160028260405161037491906105e6565b908152602001604051809103902060008282546102bc9190610699565b6000806002836040516103a491906105e6565b908152602001604051809103902054119050919050565b6000546001600160a01b031633146103e55760405162461bcd60e51b81526004016101a590610664565b6001600160a01b03811661044a5760405162461bcd60e51b815260206004820152602660248201527f4f776e61626c653a206e6577206f776e657220697320746865207a65726f206160448201526564647265737360d01b60648201526084016101a5565b600080546040516001600160a01b03808516939216917f8be0079c531659141344cd1fd0a4f28419497f9722a3daafe3b4186f6b6457e091a3600080546001600160a01b0319166001600160a01b0392909216919091179055565b600082601f8301126104b657600080fd5b813567ffffffffffffffff808211156104d1576104d16106de565b604051601f8301601f19908116603f011681019082821181831017156104f9576104f96106de565b8160405283815286602085880101111561051257600080fd5b836020870160208301376000602085830101528094505050505092915050565b60006020828403121561054457600080fd5b81356001600160a01b038116811461055b57600080fd5b9392505050565b60006020828403121561057457600080fd5b813567ffffffffffffffff81111561058b57600080fd5b610597848285016104a5565b949350505050565b600080604083850312156105b257600080fd5b82359150602083013567ffffffffffffffff8111156105d057600080fd5b6105dc858286016104a5565b9150509250929050565b6000825160005b8181101561060757602081860181015185830152016105ed565b81811115610616576000828501525b509190910192915050565b60208082526023908201527f4f6e6c79207265676973746572656420746f6b656e2063616e20616464207374604082015262616b6560e81b606082015260800190565b6020808252818101527f4f776e61626c653a2063616c6c6572206973206e6f7420746865206f776e6572604082015260600190565b600082198211156106ac576106ac6106c8565b500190565b6000828210156106c3576106c36106c8565b500390565b634e487b7160e01b600052601160045260246000fd5b634e487b7160e01b600052604160045260246000fdfea26469706673582212208acedaedb4be2058e49acd562f6f2d8138f46aefde30a019986508dbb12d4dae64736f6c63430008060033",
  "immutableReferences": {},
  "source": "// SPDX-License-Identifier: GPL-3.0-or-later\n\npragma solidity ^0.8.6;\n\nimport \"openzeppelin-solidity/contracts/utils/math/SafeMath.sol\";\nimport \"openzeppelin-solidity/contracts/access/Ownable.sol\";\n\n/// @title Library to implement items that can accumulate stake\n/// @author Roberto Garca (http://rhizomik.net/~roberto/)\ncontract Stakable is Ownable {\n  using SafeMath for uint256;\n\n  address authorisedToken;\n  mapping(string => uint256) public staked;\n\n  /// @dev Modifier controlling that only the registered token can add stake\n  modifier onlyAllowedToken() {\n    require(authorisedToken == msg.sender, \"Only registered token can add stake\");\n    _;\n  }\n\n  /// @notice Sets the `token` address authorised to add and remove stake.\n  /// @param token The address of the authorised token contract\n  function setToken(address token) public onlyOwner {\n    authorisedToken = token;\n  }\n\n  /// @notice Checks if the item with `hash` can have stake, depending on implementation.\n  /// For instance, the item is already registered.\n  /// @param hash Hash identifying the item, for instance IPFS Base58 Hash\n  function isStakable(string memory hash) virtual public {}\n\n  /// @notice Check if the stakable `hash` has some stake.\n  /// @dev Used to check if the corresponding item has a current stake bigger than 0.\n  /// @param hash Hash identifying the item to get stake, for instance IPFS Base58 Hash\n  function isStaked(string memory hash) public view returns(bool) {\n    return (staked[hash] > 0);\n  }\n\n  /// @notice Adds `amount` stake on the registered token to the item with `hash`.\n  /// @param amount Amount of stake on the registered token to add\n  /// @param hash Hash identifying the item to get stake, for instance IPFS Base58 Hash\n  function addStake(uint256 amount, string memory hash) public onlyAllowedToken {\n    staked[hash] += amount;\n  }\n\n  /// @notice Removes `amount` of stake on the registered token from the item with `hash`.\n  /// @param amount Amount of stake on the registered token to remove\n  /// @param hash Hash identifying the item to loose stake, for instance IPFS Base58 Hash\n  function removeStake(uint256 amount, string memory hash) public onlyAllowedToken {\n    require(amount <= staked[hash], 'No more than the amount currently staked can be removed');\n    staked[hash] -= amount;\n  }\n}\n",
  "sourcePath": "/Users/roberto/Proyectos/CopyrightLY/copyrightly/contracts/Stakable.sol",
  "compiler": {
    "name": "solc",
    "version": "0.8.6+commit.11564f7e.Emscripten.clang"
  },
  "schemaVersion": "3.4.1",
  "updatedAt": "2021-08-29T10:19:14.174Z",
  "devdoc": {
    "author": "Roberto Garca (http://rhizomik.net/~roberto/)",
    "kind": "dev",
    "methods": {
      "addStake(uint256,string)": {
        "params": {
          "amount": "Amount of stake on the registered token to add",
          "hash": "Hash identifying the item to get stake, for instance IPFS Base58 Hash"
        }
      },
      "isStakable(string)": {
        "params": {
          "hash": "Hash identifying the item, for instance IPFS Base58 Hash"
        }
      },
      "isStaked(string)": {
        "details": "Used to check if the corresponding item has a current stake bigger than 0.",
        "params": {
          "hash": "Hash identifying the item to get stake, for instance IPFS Base58 Hash"
        }
      },
      "owner()": {
        "details": "Returns the address of the current owner."
      },
      "removeStake(uint256,string)": {
        "params": {
          "amount": "Amount of stake on the registered token to remove",
          "hash": "Hash identifying the item to loose stake, for instance IPFS Base58 Hash"
        }
      },
      "renounceOwnership()": {
        "details": "Leaves the contract without owner. It will not be possible to call `onlyOwner` functions anymore. Can only be called by the current owner. NOTE: Renouncing ownership will leave the contract without an owner, thereby removing any functionality that is only available to the owner."
      },
      "setToken(address)": {
        "params": {
          "token": "The address of the authorised token contract"
        }
      },
      "transferOwnership(address)": {
        "details": "Transfers ownership of the contract to a new account (`newOwner`). Can only be called by the current owner."
      }
    },
    "title": "Library to implement items that can accumulate stake",
    "version": 1
  },
  "userdoc": {
    "kind": "user",
    "methods": {
      "addStake(uint256,string)": {
        "notice": "Adds `amount` stake on the registered token to the item with `hash`."
      },
      "isStakable(string)": {
        "notice": "Checks if the item with `hash` can have stake, depending on implementation. For instance, the item is already registered."
      },
      "isStaked(string)": {
        "notice": "Check if the stakable `hash` has some stake."
      },
      "removeStake(uint256,string)": {
        "notice": "Removes `amount` of stake on the registered token from the item with `hash`."
      },
      "setToken(address)": {
        "notice": "Sets the `token` address authorised to add and remove stake."
      }
    },
    "version": 1
  }
}