{
  "contractName": "UploadEvidence",
  "abi": [
    {
      "anonymous": false,
      "inputs": [
        {
          "indexed": true,
          "internalType": "address",
          "name": "registry",
          "type": "address"
        },
        {
          "indexed": true,
          "internalType": "bytes32",
          "name": "evidencedIdHash",
          "type": "bytes32"
        },
        {
          "indexed": false,
          "internalType": "string",
          "name": "evidencedHash",
          "type": "string"
        },
        {
          "indexed": false,
          "internalType": "string",
          "name": "evidenceHash",
          "type": "string"
        },
        {
          "indexed": true,
          "internalType": "address",
          "name": "evidencer",
          "type": "address"
        }
      ],
      "name": "UploadEvidenceEvent",
      "type": "event"
    },
    {
      "inputs": [
        {
          "internalType": "string",
          "name": "evidenceHash",
          "type": "string"
        }
      ],
      "name": "getEvidenceExistence",
      "outputs": [
        {
          "internalType": "bool",
          "name": "",
          "type": "bool"
        }
      ],
      "stateMutability": "view",
      "type": "function",
      "constant": true
    },
    {
      "inputs": [
        {
          "internalType": "address",
          "name": "registry",
          "type": "address"
        },
        {
          "internalType": "string",
          "name": "evidencedHash",
          "type": "string"
        },
        {
          "internalType": "string",
          "name": "evidenceHash",
          "type": "string"
        }
      ],
      "name": "addEvidence",
      "outputs": [],
      "stateMutability": "nonpayable",
      "type": "function"
    }
  ],
  "bytecode": "0x608060405234801561001057600080fd5b5061047a806100206000396000f3fe608060405234801561001057600080fd5b50600436106100365760003560e01c806369291ed01461003b5780637a079d3114610050575b600080fd5b61004e6100493660046102af565b610077565b005b61006361005e366004610331565b6101f8565b604051901515815260200160405180910390f35b600081604051610087919061039a565b9081526040519081900360200190205460ff16156100fc5760405162461bcd60e51b815260206004820152602860248201527f5468652065766964656e636520686173206265656e20616c726561647920726560448201526719da5cdd195c995960c21b606482015260840160405180910390fd5b6040516351a94a5f60e01b81526001600160a01b038416906351a94a5f906101289085906004016103b6565b600060405180830381600087803b15801561014257600080fd5b505af1158015610156573d6000803e3d6000fd5b50505050600160008260405161016c919061039a565b90815260405160209181900382018120805460ff191693151593909317909255339161019a9185910161039a565b60405160208183030381529060405280519060200120846001600160a01b03167fef770c44903f5442a75715546b206c07d84ab410a5436d70c0e65297caaff3ca85856040516101eb9291906103d0565b60405180910390a4505050565b60008082604051610209919061039a565b9081526040519081900360200190205460ff1692915050565b600082601f83011261023357600080fd5b813567ffffffffffffffff8082111561024e5761024e61042e565b604051601f8301601f19908116603f011681019082821181831017156102765761027661042e565b8160405283815286602085880101111561028f57600080fd5b836020870160208301376000602085830101528094505050505092915050565b6000806000606084860312156102c457600080fd5b83356001600160a01b03811681146102db57600080fd5b9250602084013567ffffffffffffffff808211156102f857600080fd5b61030487838801610222565b9350604086013591508082111561031a57600080fd5b5061032786828701610222565b9150509250925092565b60006020828403121561034357600080fd5b813567ffffffffffffffff81111561035a57600080fd5b61036684828501610222565b949350505050565b600081518084526103868160208601602086016103fe565b601f01601f19169290920160200192915050565b600082516103ac8184602087016103fe565b9190910192915050565b6020815260006103c9602083018461036e565b9392505050565b6040815260006103e3604083018561036e565b82810360208401526103f5818561036e565b95945050505050565b60005b83811015610419578181015183820152602001610401565b83811115610428576000848401525b50505050565b634e487b7160e01b600052604160045260246000fdfea2646970667358221220139045619fc5a84f1ebace56822830aff4936847d08465c9ea51ab2cc35b955864736f6c63430008060033",
  "immutableReferences": {},
  "source": "// SPDX-License-Identifier: GPL-3.0-or-later\n\npragma solidity ^0.8.6;\n\nimport \"./Evidencable.sol\";\n\n/// @title Contract to register evidence based on uploading content to IPFS\n/// @author Roberto Garca (http://rhizomik.net/~roberto/)\ncontract UploadEvidence {\n\n    /// @notice Allows checking if some content has already been used as evidence.\n    mapping(string => bool) private existingEvidence;\n\n    event UploadEvidenceEvent(address indexed registry, bytes32 indexed evidencedIdHash,\n        string evidencedHash, string evidenceHash, address indexed evidencer);\n\n    /// @notice Get if the evidence with content hash `evidenceHash` is already registered.\n    /// @param evidenceHash Hash of the evidence content, for instance IPFS Base58 Hash\n    function getEvidenceExistence(string memory evidenceHash) public view returns (bool) {\n        return existingEvidence[evidenceHash];\n    }\n\n    /// @notice Add evidence for item in `registry` identified by `evidencedHash`. The evidence\n    /// has `evidenceHash` and is registered by `msg.sender`.\n    /// @dev The address of the registry containing the evidenced item is required to update\n    /// its evidence count. Evidence is stored just in the log as UploadEvidenceEvent events.\n    /// Note: the evidenceHash is hashed using keccak256 before emitting the event so it can be indexed.\n    /// @param registry The address of the contract holding the items evidenced\n    /// @param evidencedHash Hash used by the registry contract to identify the item receiving evidence\n    /// @param evidenceHash Hash of the uploaded content to be used as evidence, for instance IPFS Base58 Hash\n    function addEvidence(address registry, string memory evidencedHash, string memory evidenceHash) public {\n        require(!existingEvidence[evidenceHash], \"The evidence has been already registered\");\n        Evidencable(registry).addEvidence(evidencedHash);\n        existingEvidence[evidenceHash] = true;\n        emit UploadEvidenceEvent(registry, keccak256(abi.encodePacked(evidencedHash)),\n            evidencedHash, evidenceHash, msg.sender);\n    }\n}\n",
  "sourcePath": "/Users/roberto/Proyectos/CopyrightLY/copyrightly/contracts/UploadEvidence.sol",
  "compiler": {
    "name": "solc",
    "version": "0.8.6+commit.11564f7e.Emscripten.clang"
  },
  "schemaVersion": "3.4.1",
  "updatedAt": "2021-08-29T10:24:06.895Z",
  "networkType": "ethereum",
  "devdoc": {
    "author": "Roberto Garca (http://rhizomik.net/~roberto/)",
    "kind": "dev",
    "methods": {
      "addEvidence(address,string,string)": {
        "details": "The address of the registry containing the evidenced item is required to update its evidence count. Evidence is stored just in the log as UploadEvidenceEvent events. Note: the evidenceHash is hashed using keccak256 before emitting the event so it can be indexed.",
        "params": {
          "evidenceHash": "Hash of the uploaded content to be used as evidence, for instance IPFS Base58 Hash",
          "evidencedHash": "Hash used by the registry contract to identify the item receiving evidence",
          "registry": "The address of the contract holding the items evidenced"
        }
      },
      "getEvidenceExistence(string)": {
        "params": {
          "evidenceHash": "Hash of the evidence content, for instance IPFS Base58 Hash"
        }
      }
    },
    "title": "Contract to register evidence based on uploading content to IPFS",
    "version": 1
  },
  "userdoc": {
    "kind": "user",
    "methods": {
      "addEvidence(address,string,string)": {
        "notice": "Add evidence for item in `registry` identified by `evidencedHash`. The evidence has `evidenceHash` and is registered by `msg.sender`."
      },
      "getEvidenceExistence(string)": {
        "notice": "Get if the evidence with content hash `evidenceHash` is already registered."
      }
    },
    "version": 1
  }
}