{
  "contractName": "YouTubeEvidence",
  "abi": [
    {
      "inputs": [],
      "stateMutability": "nonpayable",
      "type": "constructor"
    },
    {
      "anonymous": false,
      "inputs": [
        {
          "indexed": true,
          "internalType": "bytes32",
          "name": "id",
          "type": "bytes32"
        }
      ],
      "name": "ChainlinkCancelled",
      "type": "event"
    },
    {
      "anonymous": false,
      "inputs": [
        {
          "indexed": true,
          "internalType": "bytes32",
          "name": "id",
          "type": "bytes32"
        }
      ],
      "name": "ChainlinkFulfilled",
      "type": "event"
    },
    {
      "anonymous": false,
      "inputs": [
        {
          "indexed": true,
          "internalType": "bytes32",
          "name": "id",
          "type": "bytes32"
        }
      ],
      "name": "ChainlinkRequested",
      "type": "event"
    },
    {
      "anonymous": false,
      "inputs": [
        {
          "indexed": true,
          "internalType": "bytes32",
          "name": "requestId",
          "type": "bytes32"
        },
        {
          "indexed": false,
          "internalType": "string",
          "name": "evidencedHash",
          "type": "string"
        },
        {
          "indexed": false,
          "internalType": "string",
          "name": "videoId",
          "type": "string"
        }
      ],
      "name": "VerificationRequest",
      "type": "event"
    },
    {
      "anonymous": false,
      "inputs": [
        {
          "indexed": true,
          "internalType": "bytes32",
          "name": "requestId",
          "type": "bytes32"
        },
        {
          "indexed": true,
          "internalType": "address",
          "name": "registry",
          "type": "address"
        },
        {
          "indexed": false,
          "internalType": "string",
          "name": "evidencedHash",
          "type": "string"
        },
        {
          "indexed": false,
          "internalType": "string",
          "name": "videoId",
          "type": "string"
        },
        {
          "indexed": true,
          "internalType": "address",
          "name": "evidencer",
          "type": "address"
        },
        {
          "indexed": false,
          "internalType": "bool",
          "name": "isVerified",
          "type": "bool"
        }
      ],
      "name": "YouTubeEvidenceEvent",
      "type": "event"
    },
    {
      "inputs": [
        {
          "internalType": "bytes32",
          "name": "",
          "type": "bytes32"
        }
      ],
      "name": "evidences",
      "outputs": [
        {
          "internalType": "address",
          "name": "registry",
          "type": "address"
        },
        {
          "internalType": "address",
          "name": "evidencer",
          "type": "address"
        },
        {
          "internalType": "string",
          "name": "evidencedId",
          "type": "string"
        },
        {
          "internalType": "string",
          "name": "videoId",
          "type": "string"
        },
        {
          "internalType": "bool",
          "name": "isPending",
          "type": "bool"
        },
        {
          "internalType": "bool",
          "name": "isVerified",
          "type": "bool"
        }
      ],
      "stateMutability": "view",
      "type": "function",
      "constant": true
    },
    {
      "inputs": [
        {
          "internalType": "address",
          "name": "registry",
          "type": "address"
        },
        {
          "internalType": "string",
          "name": "evidencedId",
          "type": "string"
        },
        {
          "internalType": "string",
          "name": "videoId",
          "type": "string"
        }
      ],
      "name": "check",
      "outputs": [
        {
          "internalType": "bytes32",
          "name": "requestId",
          "type": "bytes32"
        }
      ],
      "stateMutability": "nonpayable",
      "type": "function"
    },
    {
      "inputs": [
        {
          "internalType": "bytes32",
          "name": "requestId",
          "type": "bytes32"
        },
        {
          "internalType": "bool",
          "name": "valid",
          "type": "bool"
        }
      ],
      "name": "processVerification",
      "outputs": [],
      "stateMutability": "nonpayable",
      "type": "function"
    }
  ],
  "bytecode": "0x6080604052600160045534801561001557600080fd5b50600280546001600160a01b03191673326c977e6efc84e512bb9c30f76e30c160ed06fb179055600680546001600160a01b03191673eeca89a3895f7df577dd5e7c4e816e2fe2da92f11790557f3433373032646534643934373461323238396665383761393531373663623630600755662386f26fc100006008556112cf806100a06000396000f3fe608060405234801561001057600080fd5b50600436106100415760003560e01c806361056bca14610046578063bfa3d5c71461006c578063d84c09de14610081575b600080fd5b610059610054366004610d9f565b6100a6565b6040519081526020015b60405180910390f35b61007f61007a366004610e57565b610248565b005b61009461008f366004610e3e565b610457565b60405161006396959493929190610f74565b6000806100bd6007543063bfa3d5c760e01b6105af565b6040805180820190915260028152611a5960f21b60208201529091506100e5908290856105d4565b6040805180820190915260048152630d0c2e6d60e31b602082015261010c908290866105d4565b600654600854610127916001600160a01b03169083906105f7565b6040805160c0810182526001600160a01b0380891682523360208084019182528385018a8152606085018a9052600160808601819052600060a087018190528881526009845296909620855181549086166001600160a01b0319918216178255935196810180549790951696909316959095179092559251805194965091936101b69260028501920190610c3e565b50606082015180516101d2916003840191602090910190610c3e565b5060808201516004909101805460a09093015115156101000261ff00199215159290921661ffff199093169290921717905560405182907f9571cdd60af002f716365a00164ad630d3558bb9629a1d7f36148e761bc70c2590610238908790879061105c565b60405180910390a2509392505050565b60008281526005602052604090205482906001600160a01b031633146102c65760405162461bcd60e51b815260206004820152602860248201527f536f75726365206d75737420626520746865206f7261636c65206f6620746865604482015267081c995c5d595cdd60c21b60648201526084015b60405180910390fd5b60008181526005602052604080822080546001600160a01b03191690555182917f7cc135e0cebb02c3480ae5d74d377283180a2601f8f644edf7987b009316c63a91a260008381526009602052604090206004015460ff1661032757600080fd5b6000838152600960205260409020600401805460ff1916905581156103d95760008381526009602052604090819020805491516351a94a5f60e01b81526001600160a01b03909216916351a94a5f9161038891600290910190600401611081565b600060405180830381600087803b1580156103a257600080fd5b505af11580156103b6573d6000803e3d6000fd5b5050506000848152600960205260409020600401805461ff001916610100179055505b6000838152600960205260409081902060018101548154600483015493516001600160a01b0392831694919092169287927f4ea80b39c4b41352202e11a2d4851c9122be4f109e614b4080a18e99e84aadf29261044a92600281019260039091019160ff6101009091041690611094565b60405180910390a4505050565b6009602052600090815260409020805460018201546002830180546001600160a01b0393841694929093169261048c90611205565b80601f01602080910402602001604051908101604052809291908181526020018280546104b890611205565b80156105055780601f106104da57610100808354040283529160200191610505565b820191906000526020600020905b8154815290600101906020018083116104e857829003601f168201915b50505050509080600301805461051a90611205565b80601f016020809104026020016040519081016040528092919081815260200182805461054690611205565b80156105935780601f1061056857610100808354040283529160200191610593565b820191906000526020600020905b81548152906001019060200180831161057657829003601f168201915b5050506004909301549192505060ff8082169161010090041686565b6105b7610cc2565b6105bf610cc2565b6105cb81868686610616565b95945050505050565b60808301516105e39083610653565b60808301516105f29082610653565b505050565b600061060e84848460016320214ca360e11b61066a565b949350505050565b61061e610cc2565b61062e8560800151610100610876565b50509183526001600160a01b031660208301526001600160e01b031916604082015290565b61066082600383516108e1565b6105f282826109b5565b6004546040516bffffffffffffffffffffffff193060601b166020820152603481019190915260009060540160408051808303601f19018152918152815160209283012060045460608901526000818152600590935281832080546001600160a01b0319166001600160a01b038b16179055905190925082917fb5e6e01e79f91267dc17b4e6314d5d4d03593d2ceee0fbb452b750bd70ea5af991a2600082600080886000015189602001518a604001518b606001518a8d6080015160000151604051602401610741989796959493929190610fcd565b60408051601f198184030181529181526020820180516001600160e01b03166001600160e01b0319909416939093179092526002549151630200057560e51b81529092506001600160a01b0390911690634000aea0906107a9908a9089908690600401611035565b602060405180830381600087803b1580156107c357600080fd5b505af11580156107d7573d6000803e3d6000fd5b505050506040513d601f19601f820116820180604052508101906107fb9190610e21565b6108535760405162461bcd60e51b815260206004820152602360248201527f756e61626c6520746f207472616e73666572416e6443616c6c20746f206f7261604482015262636c6560e81b60648201526084016102bd565b60016004600082825461086691906110cc565b9091555091979650505050505050565b60408051808201909152606081526000602082015261089660208361123a565b156108be576108a660208361123a565b6108b19060206111ee565b6108bb90836110cc565b91505b506020808301829052604080518085526000815283019091019052815b92915050565b60178111610902576108fc8360e0600585901b1683176109e3565b50505050565b60ff811161092c5761091f836018611fe0600586901b16176109e3565b506108fc83826001610a08565b61ffff81116109575761094a836019611fe0600586901b16176109e3565b506108fc83826002610a08565b63ffffffff81116109845761097783601a611fe0600586901b16176109e3565b506108fc83826004610a08565b67ffffffffffffffff81116105f2576109a883601b611fe0600586901b16176109e3565b506108fc83826008610a08565b6040805180820190915260608152600060208201526109dc83846000015151848551610a2e565b9392505050565b6040805180820190915260608152600060208201526109dc8384600001515184610b33565b60408051808201909152606081526000602082015261060e848560000151518585610b8f565b6040805180820190915260608152600060208201528251821115610a5157600080fd5b6020850151610a6083866110cc565b1115610a9357610a9385610a8387602001518786610a7e91906110cc565b610c10565b610a8e9060026111cf565b610c27565b600080865180518760208301019350808887011115610ab25787860182525b505050602084015b60208410610af25780518252610ad16020836110cc565b9150610ade6020826110cc565b9050610aeb6020856111ee565b9350610aba565b60006001610b018660206111ee565b610b0d90610100611127565b610b1791906111ee565b9151835183169219169190911790915250849050949350505050565b60408051808201909152606081526000602082015283602001518310610b6857610b688485602001516002610a8e91906111cf565b835180516020858301018481535080851415610b85576001810182525b5093949350505050565b6040805180820190915260608152600060208201526020850151610bb385846110cc565b1115610bc757610bc785610a8386856110cc565b60006001610bd784610100611127565b610be191906111ee565b9050855183868201018583198251161781525080518487011115610c055783860181525b509495945050505050565b600081831115610c215750816108db565b50919050565b8151610c338383610876565b506108fc83826109b5565b828054610c4a90611205565b90600052602060002090601f016020900481019282610c6c5760008555610cb2565b82601f10610c8557805160ff1916838001178555610cb2565b82800160010185558215610cb2579182015b82811115610cb2578251825591602001919060010190610c97565b50610cbe929150610cfd565b5090565b6040805160a0810182526000808252602080830182905282840182905260608084018390528451808601909552845283015290608082015290565b5b80821115610cbe5760008155600101610cfe565b600082601f830112610d2357600080fd5b813567ffffffffffffffff80821115610d3e57610d3e611272565b604051601f8301601f19908116603f01168101908282118183101715610d6657610d66611272565b81604052838152866020858801011115610d7f57600080fd5b836020870160208301376000602085830101528094505050505092915050565b600080600060608486031215610db457600080fd5b83356001600160a01b0381168114610dcb57600080fd5b9250602084013567ffffffffffffffff80821115610de857600080fd5b610df487838801610d12565b93506040860135915080821115610e0a57600080fd5b50610e1786828701610d12565b9150509250925092565b600060208284031215610e3357600080fd5b81516109dc81611288565b600060208284031215610e5057600080fd5b5035919050565b60008060408385031215610e6a57600080fd5b823591506020830135610e7c81611288565b809150509250929050565b6000815180845260005b81811015610ead57602081850181015186830182015201610e91565b81811115610ebf576000602083870101525b50601f01601f19169290920160200192915050565b8054600090600181811c9080831680610eee57607f831692505b6020808410821415610f1057634e487b7160e01b600052602260045260246000fd5b83885260208801828015610f2b5760018114610f3c57610f67565b60ff19871682528282019750610f67565b60008981526020902060005b87811015610f6157815484820152908601908401610f48565b83019850505b5050505050505092915050565b6001600160a01b0387811682528616602082015260c060408201819052600090610fa090830187610e87565b8281036060840152610fb28187610e87565b9415156080840152505090151560a090910152949350505050565b6001600160a01b0389811682526020820189905260408201889052861660608201526001600160e01b03198516608082015260a0810184905260c0810183905261010060e0820181905260009061102683820185610e87565b9b9a5050505050505050505050565b60018060a01b03841681528260208201526060604082015260006105cb6060830184610e87565b60408152600061106f6040830185610e87565b82810360208401526105cb8185610e87565b6020815260006109dc6020830184610ed4565b6060815260006110a76060830186610ed4565b82810360208401526110b98186610ed4565b9150508215156040830152949350505050565b600082198211156110df576110df61125c565b500190565b600181815b8085111561111f5781600019048211156111055761110561125c565b8085161561111257918102915b93841c93908002906110e9565b509250929050565b60006109dc838360008261113d575060016108db565b8161114a575060006108db565b8160018114611160576002811461116a57611186565b60019150506108db565b60ff84111561117b5761117b61125c565b50506001821b6108db565b5060208310610133831016604e8410600b84101617156111a9575081810a6108db565b6111b383836110e4565b80600019048211156111c7576111c761125c565b029392505050565b60008160001904831182151516156111e9576111e961125c565b500290565b6000828210156112005761120061125c565b500390565b600181811c9082168061121957607f821691505b60208210811415610c2157634e487b7160e01b600052602260045260246000fd5b60008261125757634e487b7160e01b600052601260045260246000fd5b500690565b634e487b7160e01b600052601160045260246000fd5b634e487b7160e01b600052604160045260246000fd5b801515811461129657600080fd5b5056fea2646970667358221220e932a7312710d1c1e3d80b80f5658b10f412d89989d511be50e38b174ed197eb64736f6c63430008060033",
  "immutableReferences": {},
  "source": "// SPDX-License-Identifier: GPL-3.0-or-later\n\npragma solidity ^0.8.6;\n\nimport \"@chainlink/contracts/src/v0.8/ChainlinkClient.sol\";\nimport \"./Evidencable.sol\";\n\ncontract YouTubeEvidence is ChainlinkClient {\n  using Chainlink for Chainlink.Request;\n\n  address private oracle;\n  bytes32 private jobId;\n  uint256 private fee;\n\n  // Data storage\n  struct YTEvidence {\n    address registry;\n    address evidencer;\n    string evidencedId;\n    string videoId;\n    bool isPending;\n    bool isVerified;\n  }\n\n  mapping(bytes32 => YTEvidence) public evidences;\n\n  event VerificationRequest(bytes32 indexed requestId, string evidencedHash, string videoId);\n  event YouTubeEvidenceEvent(bytes32 indexed requestId, address indexed registry,\n    string evidencedHash, string videoId, address indexed evidencer, bool isVerified);\n\n  constructor() {\n    setChainlinkToken(0x326C977E6efc84E512bB9C30f76E30c160eD06FB); // goerli\n    oracle = 0xeecA89a3895F7df577dd5e7C4E816e2fe2da92f1; // oracle address\n    jobId = \"43702de4d9474a2289fe87a95176cb60\"; //job id\n    fee = 1 * 10 ** 16; // 0.01 LINK\n  }\n\n  /// @notice Check using an oracle if the YouTube `videoId` is linked to the manifestation with\n  /// identifier `evidencedId` in the registry with address `registry`.\n  /// @dev The oracle checks if the YouTube page for the video contains in its description\n  /// the manifestation hash.\n  /// @param registry The address of the contract holding the items receiving evidence\n  /// @param evidencedId The identifier used by the registry contract for the item receiving evidence\n  /// @param videoId The identifier of a YouTube video to be checked\n  /// @return requestId The id for the request sent to the oracle\n  function check(address registry, string memory evidencedId, string memory videoId) public\n  returns (bytes32 requestId) {\n    Chainlink.Request memory req = buildChainlinkRequest(jobId, address(this), this.processVerification.selector);\n    req.add(\"id\", videoId);\n    req.add(\"hash\", evidencedId);\n    requestId = sendChainlinkRequestTo(oracle, req, fee);\n    evidences[requestId] = YTEvidence(registry, msg.sender, evidencedId, videoId, true, false);\n    emit VerificationRequest(requestId, evidencedId, videoId);\n  }\n\n  /// @notice Process the oracle callback for query `requestId` to check if `valid`\n  /// @param requestId The identifier of the oracle query\n  /// @param valid True if the video description contains the hash\n  function processVerification(bytes32 requestId, bool valid) public recordChainlinkFulfillment(requestId) {\n    require(evidences[requestId].isPending);\n\n    evidences[requestId].isPending = false;\n    if (valid) {\n      Evidencable(evidences[requestId].registry).addEvidence(evidences[requestId].evidencedId);\n      evidences[requestId].isVerified = true;\n    }\n    emit YouTubeEvidenceEvent(requestId, evidences[requestId].registry,\n      evidences[requestId].evidencedId, evidences[requestId].videoId,\n      evidences[requestId].evidencer, evidences[requestId].isVerified);\n  }\n}\n",
  "sourcePath": "/Users/roberto/Proyectos/CopyrightLY/copyrightly/contracts/YouTubeEvidence.sol",
  "compiler": {
    "name": "solc",
    "version": "0.8.6+commit.11564f7e.Emscripten.clang"
  },
  "schemaVersion": "3.4.1",
  "updatedAt": "2023-01-03T12:08:15.034Z",
  "networkType": "ethereum",
  "devdoc": {
    "kind": "dev",
    "methods": {
      "check(address,string,string)": {
        "details": "The oracle checks if the YouTube page for the video contains in its description the manifestation hash.",
        "params": {
          "evidencedId": "The identifier used by the registry contract for the item receiving evidence",
          "registry": "The address of the contract holding the items receiving evidence",
          "videoId": "The identifier of a YouTube video to be checked"
        },
        "returns": {
          "requestId": "The id for the request sent to the oracle"
        }
      },
      "processVerification(bytes32,bool)": {
        "params": {
          "requestId": "The identifier of the oracle query",
          "valid": "True if the video description contains the hash"
        }
      }
    },
    "version": 1
  },
  "userdoc": {
    "kind": "user",
    "methods": {
      "check(address,string,string)": {
        "notice": "Check using an oracle if the YouTube `videoId` is linked to the manifestation with identifier `evidencedId` in the registry with address `registry`."
      },
      "processVerification(bytes32,bool)": {
        "notice": "Process the oracle callback for query `requestId` to check if `valid`"
      }
    },
    "version": 1
  }
}